:100000006BEF2EF0F76A140FF66E000EF722090060
:10001000F55012002F4461746F732E7478740000D1
:100020000D0A2D2D25732D2D00000D0A0D0A2020FF
:1000300020202020202020000D0A0D0A2D2D4641D1
:10004000542053746174732D2D0D0A004669727328
:100050007420464154207374617274732061743A41
:10006000203078256C580D0A0000446174612053DB
:1000700074617274732041743A203078256C580D85
:100080000A00526F6F74204469726563746F7279ED
:100090002049732041743A203078256C580D0A00AD
:1000A00042797465732050657220436C7573746572
:1000B000723A203078256C580D0A00000D0A0D0A9E
:1000C0002D2D000020496E666F2D2D000D0A417404
:1000D00074726962757465733A203078255800002F
:1000E0000D0A437265617465643A20000D0A4D6F14
:1000F0006469666965643A2000000D0A5374617290
:1001000074696E6720636C75737465723A20256C30
:1001100058000D0A5374617274696E6720616464DB
:10012000726573733A20256C58000D0A53697A651D
:100130003A20256C752042797465730D0A000D0A0A
:100140000A496E697469616C697A65204641542078
:100150006C696272617279202E2E2E200000457229
:10016000726F7220696E697469616C697A696E6711
:1001700020464154206C696272617279210D0A0037
:10018000464154204C69627261727920696E6974CB
:1001900069616C697A6564202E2E2E20000043610F
:1001A000726420547970653A20004D4D43200D0A49
:1001B000000053445343200D0A0053444843200D8C
:1001C0000A0043726561746520274461746F732E61
:1001D000747874272066696C65202D2D2D3E2000D3
:1001E0004F4B200D0A006572726F72206372656159
:1001F00074696E672066696C65200D0A0000656C85
:10020000696D696E6174696E6720274461746F73EC
:100210002E747874272066696C65202D2D2D3E2064
:1002200000004F4B200D0A006572726F7220656CE2
:10023000696D696E6174696E672066696C65200D11
:100240000A0020206572726F72206F70656E696E91
:10025000672066696C65200D0A002020777269743A
:10026000696E67206572726F72200D0A0000202D82
:100270002D2D3E2077726974696E67206572726FEA
:1002800072200D0A00002020636C6F73696E672076
:100290006572726F72200D0A000052656164696EAA
:1002A0006720274461746F732E7478742720666901
:1002B0006C653A200D0A00000D0A0A0054696D654C
:1002C000206F7574210D0A00436865636B73756D4B
:1002D000204572726F72210D0A004E6F2072657395
:1002E000706F6E73652066726F6D20746865207321
:1002F000656E736F720D0A0054494D453A202530E2
:1003000032753A253032753A253032750000204476
:100310004154453A20253032752F253032752F3221
:1003200030253032750D0A0048756D656461643A98
:100330002025302E31660D0A000054656D706572FF
:1003400061747572613A20252E33670D0A5072650B
:1003500073696F6E3A20252E33670D0A00004C75C5
:100360007A3A2025752020566261743A202566006D
:10037000253032752F253032752F323025303275C9
:1003800020253032753A25303275207C2025302EDC
:100390003166207C2025302E3166207C2025302EB1
:1003A00031662000202077726974696E672065725B
:1003B000726F72200D0A00007C202575207C20259C
:1003C00066200D0A0000202077726974696E67202C
:1003D0006572726F72200D0A000041542B43495020
:1003E00053544152543D256354435025632C256397
:1003F0006170692E7468696E67737065616B2E63D6
:100400006F6D25632C38300D0A0041542B43495041
:100410004D4F44453D310D0A000041542B43495096
:1004200053454E440D0A00004745542068747470CB
:10043000733A2F2F6170692E7468696E67737065E7
:10044000616B2E636F6D2F7570646174653F6170B1
:10045000695F6B65793D4A34314148315A593739C2
:100460005351393659390000266669656C64313D4F
:100470002575266669656C64323D25752666696555
:100480006C64333D256C75266669656C64343D2566
:10049000750D0A0041542B47534C503D310D0A0055
:1004A00041542B47534C503D310D0A00080E016E4C
:1004B000000089909290000003013F378992D8B0E4
:1004C0009282D8A09292928080A0FED7012E01D075
:1004D00002D00001EDD70000899092900000928236
:1004E00000000000928080A0FED7016A000080B268
:1004F0000180899092908992929200011200080ED8
:100500000301406F00C041F392820000928080A0FE
:10051000FED780B2D88080A2D89001360000929099
:100520008990402FF1D79282000089924151D8A43E
:1005300092920000928080A0FED700008990929055
:100540000000899292920001120003013639006E78
:100550000F0E001600500A0DF3CF37F336510F0B74
:100560003725016E00011200928200009280000087
:1005700089929292000089909290D00E03013F6F71
:10058000000194DF03013F6B000190DF92820000C5
:100590009280000080A0FED78992929200008990FC
:1005A0009290D10E03013F6F000180DF010E006EBB
:1005B000A6DF01507F0B0201606F010E006E00018B
:1005C0009EDF01C061F2010E006E99DF01C062F290
:1005D000010E006E94DF01C063F2010E006E8FDF2A
:1005E00001C064F2010E006E8ADF01C065F2006A8C
:1005F00086DF01C066F292920000928080A0FED752
:10060000000000D000009282000060C236F39DDF3F
:1006100001C060F261C236F398DF01C061F262C2CC
:1006200036F393DF01C062F264C236F38EDF01C09D
:1006300064F265C236F389DF01C065F266C236F343
:1006400084DF01C066F2600E016E020E026E1200BF
:1006500092968996080E016E00D00000018E10D08F
:10066000019E030145330001D8B08986D8A0899640
:10067000018C06D0019C012EF4D700D000008986A1
:100680003F0EE96EE92EFED7000001BEE9D701BC9E
:10069000F1D712000900F6CF3AF3F7CF3BF3F5CFCD
:1006A00045F3D6DF3AC3F6FF3BC3F7FF0301392F0B
:1006B00001D002D00001EED70001120003013E512B
:1006C000016A3D5D03E23DC300F00CD0006A080EF4
:1006D0003F6F3D3700363E51005CD8B0006E0136AA
:1006E0003F2FF7D700011200015039C33DF3640ECC
:1006F00003013E6F0001E2DF00C039F30150300E0C
:1007000008E103013AA30FD03AB70DD03AB9200E51
:1007100004D003013A973A993A81012601C045F382
:10072000000196DF030139C33DF30A0E3E6F00015D
:10073000C5DF00C039F30150300E08E103013AB7BC
:100740000AD03AA108D03AB9200E0001012601C012
:1007500045F37EDF0301300E392739C345F300012D
:1007600077DF1200020E0201E625E96E000EE72196
:10077000EA6EEFCF36F3010EE625E96E000EE721B3
:10078000EA6EEFCF37F3E6C2E9FFE7C2EAFFEFCF49
:1007900038F3F80EF66E020EF76E060E0301396F8F
:1007A000000178DF36C339F3010E03013A6F00010F
:1007B0009BDF3A0E0301456F00014ADF37C339F36F
:1007C000010E03013A6F00018FDF3A0E0301456FFE
:1007D00000013EDF38C339F3010E03013A6F000117
:1007E00083DF040E0201E625E96E000EE721EA6EC2
:1007F000EFCF36F3050EE625E96E000EE721EA6E2F
:10080000EFCF37F3060EE625E96E000EE721EA6E1C
:10081000EFCF38F30E0EF66E030EF76E070E0301E0
:10082000396F000137DF36C339F3010E03013A6F28
:1008300000015ADF2F0E0301456F000109DF37C3A6
:1008400039F3010E03013A6F00014EDF1E0EF66E02
:10085000030EF76E030E0301396F00011BDF38C36F
:1008600039F3010E03013A6F00013EDF0D0E030163
:10087000456F0001EDDE0A0E0301456F0001E8DE61
:100880001200030EEA6E5E0EE96EEF500DE0020EEE
:10089000016E006A002EFED7012EFBD7970E006E68
:1008A000002EFED7EF2EF3D71200939A8A9A190ED4
:1008B00003015E6F0001E5DF8A8A130E006E002ED1
:1008C000FED700D0938ADDEF05F01A0E006E002EE1
:1008D000FED7000081BA0CD0350E006E002EFED778
:1008E00081AA06D0210E006E002EFED7010E016EE9
:1008F000DEEF05F00301396B020104A500D003010E
:10090000376B3751070842E3386B81BA0AD0382B6E
:100910003851640804E202010485030102D000D0CA
:10092000F4D7130E006E002EFED700D081BA11D07E
:10093000070ED88037553A6F010E006E3A51016E9E
:1009400004E0D8900036012EFCD70050FF0A39177A
:100950001BD0070ED88037553A6F010E006E3A5102
:10096000016E04E0D8900036012EFCD700503913F8
:1009700081AA0AD0382B3851640804E202010485A8
:10098000030102D000D0F4D7372BBBD739C301F015
:10099000000112000900F5520CE0F6CF43F3F7CF47
:1009A00044F3F5CF45F354DE43C3F6FF44C3F7FFEA
:1009B000F1D71200030138513A19800B3C6F38AF60
:1009C00005D0371F381F372BD8B4382B3AAF05D096
:1009D000391F3A1F392BD8B43A2B37513903F3CF8B
:1009E00001F0F4CF00F03A03F350002638513903F8
:1009F000F3500020026E3CAF05D0011E021E012AFA
:100A0000D8B4022A00012CEF06F08E0E006E3EC311
:100A100001F03DC302F0036A015209E102C001F096
:100A2000026A080E005E015202E1006A08D0D89006
:100A300001BE04D0023601360006F9D7019E12002D
:100A400003015251D8B4A5D05E6F5651D8B4A1D08D
:100A50005E5F05E37F0E5E27D8B09BD006D0810E87
:100A60005E5FD8A096D0D8B494D05EC300F0016A7F
:100A7000026A036A5D6B53C35CF35C8F54C35BF320
:100A800055C35AF3190E5E6F59515A5F0DE2010EAC
:100A90005B5F0AE25C5F08E25D5F06E25D2B5C2B58
:100AA0005B2B59515A2728D058515B5F12E2010E37
:100AB0005C5F0FE25D5F0DE25D2B5C2B58515B27A5
:100AC00059515A2719E35B2B17E15C2B15E15D2B7C
:100AD00013D0575180095C5F0EE2010E5D5F0BE29F
:100AE0005D2B575180095C2758515B27E9E35C2B4C
:100AF000E7E15D2BE5D703805E2F01D00BD0D890C6
:100B00005A375B375C375D37D8900336023601368B
:100B10005F37BAD75FA106D0D890013202320332D4
:100B20005F3302D0000635E05FBF1ED0D8905A3741
:100B30005B375C375D3759515A5F07E2010E5B5FE7
:100B400004E25C5F02E25D5F1AE358515B5F05E21D
:100B5000010E5C5F02E25D5F12E3575180095C5F4A
:100B600003E2010E5D5F0BE3032A09E1022A07E1BC
:100B7000012A05E1002A0DE001320232033253C39B
:100B80005EF357515E1B5EAF02D0018E06D0019E10
:100B900004D0006A016A026A036A00011200020EB0
:100BA0000301376FFA0E5E6F00016BDE0301372F12
:100BB000F9D702010495000178D687D60152D8B43E
:100BC000C1D098DE01C069F295DE01C06AF292DE02
:100BD00001C067F28FDE01C068F28CDE01C06BF2EB
:100BE000020104A508D0BC0EF66E020EF76E0001DD
:100BF000D1DEA5D002016A516925672568256B5DA4
:100C0000D8A497D06F6B69C26EF26EC26FF2030107
:100C1000376B375102016A116E6F02016D6B67C24B
:100C20006CF26CC26DF20301376B3751020168112F
:100C30006C6F02016D517F0815E2FF0A03E16C51F0
:100C4000000810E26D9F6DC238F36CC237F30301E8
:100C50003A6939690001AED602C06DF2020101C0E5
:100C60006CF20FD06DC23EF36CC23DF30001CDDEDD
:100C700003C073F202C072F201C071F200C070F2E0
:100C8000020173C255F372C254F371C253F370C2BE
:100C900052F30301596B586B200E576F820E566F3B
:100CA0000001CEDE03C073F202C072F201C071F225
:100CB00000C070F26FC23EF36EC23DF3A6DE03C009
:100CC00077F202C076F201C075F200C074F277C20A
:100CD00055F376C254F375C253F374C252F3030151
:100CE000596B586B200E576F820E566F0001A8DEAD
:100CF00003C077F202C076F201C075F200C074F250
:100D00000301365309E170C200F071C201F072C2F2
:100D100002F073C203F01CD0362D09D074C200F06B
:100D200075C201F076C202F077C203F011D008D08C
:100D30000201C80EF66E020EF76E00012BDE0301F3
:100D400007D00001DA0EF66E020EF76E23DE030105
:100D50000001C9EF2EF003015251D8B471D0006EDA
:100D60005651D8B46DD0002604E3810E002668E207
:100D700004D07F0E005E64E363E053C35AF357511F
:100D80005A1B538F578F55515903F4CF5CF354516D
:100D90005803F4CF03F0F3CF5BF35903F3505C2710
:100DA000F4505B23000E032255515803F3505C2787
:100DB000F4505B23000E026A0322022253515903AE
:100DC000F3505B27F4500322000E022253515803C4
:100DD000F3500326F4500222000E016A01225551FD
:100DE0005703F3505B27F4500322000E0222012226
:100DF00054515703F3500326F4500222000E0122EF
:100E000053515703F3500226F4500122002A01BE29
:100E100005D05B370336023601360006000E5BAFA5
:100E20000AD0032A02220122015005E1025003E107
:100E3000035001E1002A5ABF018E5AAF019E04D02F
:100E4000006A016A026A036A000112000301485144
:100E5000B608486F036A49C34CF3498FD8904933A9
:100E60004A334B330332023201320032482FF6D775
:100E70004CAF0BD0001E011E021E031E002AD8B468
:100E8000012AD8B4022AD8B4032A00011200D8B229
:100E900003D0040EEA6EE96E006A016A026A036A10
:100EA0000401046B056B066B076B03510211011102
:100EB00000112EE0200E086FD8900301FC37FD379B
:100EC000FE37FF370401043705370637073703516C
:100ED000075D08E10251065D05E10151055D02E192
:100EE0000051045D0FE30051045F0151D8A0013DA2
:100EF000055F0251D8A0023D065F0351D8A0033D13
:100F0000075FD8800036013602360336082FD4D763
:100F100004C4EFFF05C4ECFF06C4ECFF07C4ECFFFC
:100F200000011200E95003013B6F3A513D6F1BE095
:100F300039C355F338C354F337C353F336C352F3AD
:100F4000596B586B200E576F820E566F000103DFEE
:100F500003C039F302C038F301C037F300C036F3E1
:100F600003013D2FE5D739C34BF338C34AF337C3E9
:100F700049F336C348F3000169DF03C039F302C007
:100F800038F301C037F300C036F3030139AF0DD099
:100F90003B073B8B361F371F381F391F362BD8B402
:100FA000372BD8B4382BD8B4392B3B0E426F9A0E5E
:100FB000416FCA0E406F3F6B0A0E3D6F3A51D8B475
:100FC0003B2BD882030EEA6E360EE96E39C3FFF36F
:100FD00038C3FEF337C3FDF336C3FCF342C303F457
:100FE00041C302F440C301F43FC300F400014FDFEA
:100FF0000150005213E103013A293D5DD8A402D00B
:1010000000010CD03B510DE00F0B3D5D01E044E2CF
:101010003BBF42D03BBD05D0200E37D0200E030190
:101020003B173BAB0FD03B9B3A51D8A43B0700503A
:101030003B6F2D0E456F000128EC03F003013B517F
:10104000006E3B6B3A513D5D0DE100503B6F2E0E43
:10105000456F000128EC03F003013B51006E200EA8
:101060003B17000E300E3BAB10D03B9B3A51D8A43F
:101070003B0700503B6F2D0E456F000128EC03F03D
:1010800003013B51006E3B6B300E002600C045F360
:10109000000128EC03F00301D89242C3FFF341C3DF
:1010A000FEF340C3FDF33FC3FCF30401036B026B8B
:1010B000016B0A0E006F0001EADE03C042F302C0BA
:1010C00041F301C040F300C03FF303013D2F79D746
:1010D0000001120092820000928000008992929298
:1010E000000089909290EE0E03013F6F000156ECD4
:1010F00002F038C33FF356EC02F092820000928077
:10110000000080A0FED78992929200008990929070
:10111000EF0E03013F6F000156EC02F0010E006E6E
:101120007FEC02F001C039F3006A7FEC02F001C0ED
:101130003AF392920000928080A0FED7000000D087
:1011400000009282000039C33CF33AC33BF3030131
:101150003BC301F03CC302F0000112008E0E006E92
:1011600037C301F036C302F0036A01AE05D0011E99
:10117000021E022A01E1012A015209E102C001F026
:10118000026A080E005E015202E1006A0ED0D89099
:1011900001BE04D0023601360006F9D7030137AF8D
:1011A00002D0000102D0019E00011200AA0E03012C
:1011B000386F00018FDF02C079F201C078F2AC0E07
:1011C0000301386F000186DF02C07BF201C07AF2B2
:1011D000AE0E0301386F00017DDF02C07DF201C059
:1011E0007CF2B00E0301386F000174DF02C07FF2A1
:1011F00001C07EF2B20E0301386F00016BDF02C046
:1012000081F201C080F2B40E0301386F000162DF89
:1012100002C083F201C082F2B60E0301386F0001F2
:1012200059DF02C085F201C084F2B80E0301386FA5
:10123000000150DF02C087F201C086F2BA0E03013E
:10124000386F000147DF02C089F201C088F2BC0E8E
:101250000301386F00013EDF02C08BF201C08AF249
:10126000BE0E0301386F000135DF02C08DF201C0F0
:101270008CF27DC237F37CC236F370DF0301556B0D
:10128000546B200E536F770E526F03C059F302C098
:1012900058F301C057F300C056F300015CDD03C0F2
:1012A00091F202C090F201C08FF200C08EF27FC2B4
:1012B0003EF37EC23DF305EC05F06F0E0301556F62
:1012C000120E546F030E536F660E526F03C059F324
:1012D00002C058F301C057F300C056F300013BDDD4
:1012E00003C095F202C094F201C093F200C092F2E2
:1012F00081C23EF380C23DF305EC05F0CD0E030143
:10130000556FCC0E546F4C0E536F680E526F03C066
:1013100059F302C058F301C057F300C056F300015F
:101320001ADD03C09DF202C09CF201C09BF200C016
:101330009AF283C23EF382C23DF305EC05F003C08E
:10134000A1F202C0A0F201C09FF200C09EF285C2CD
:1013500037F384C236F302DF0301556B546B480E3A
:10136000536F6F0E526F03C059F302C058F301C0A0
:1013700057F300C056F30001EEDC03C099F202C03F
:1013800098F201C097F200C096F28BC237F38AC27E
:1013900036F3E4DE0A0E0301556FD70E546F230EA9
:1013A000536F7B0E526F03C059F302C058F301C054
:1013B00057F300C056F30001CEDC03C0A5F202C013
:1013C000A4F201C0A3F200C0A2F28DC237F38CC216
:1013D00036F3C4DE03C039F302C038F301C037F37B
:1013E00000C036F303C055F302C054F301C053F3F9
:1013F00000C052F30301596B586B200E576F860ED5
:10140000566F000120EC05F003C0A9F202C0A8F25B
:1014100001C0A7F200C0A6F279C237F378C236F352
:101420009DDE03C0ADF202C0ACF201C0ABF200C061
:10143000AAF27BC237F37AC236F390DE0301556B12
:10144000546B200E536F790E526F03C059F302C0D4
:1014500058F301C057F300C056F300017CDC03C011
:10146000B1F202C0B0F201C0AFF200C0AEF287C26A
:1014700037F386C236F372DE0301556B546B480EA8
:10148000536F740E526F03C059F302C058F301C07A
:1014900057F300C056F300015EDC03C0B5F202C092
:1014A000B4F201C0B3F200C0B2F295C255F394C2D7
:1014B00054F393C253F392C252F30301596B586B26
:1014C000576B8E0E566F000146DC03C0B9F202C0A6
:1014D000B8F201C0B7F200C0B6F295C255F394C29B
:1014E00054F393C253F392C252F391C259F390C290
:1014F00058F38FC257F38EC256F32DDC03C0BDF2F2
:1015000002C0BCF201C0BBF200C0BAF295C255F3F2
:1015100094C254F393C253F392C252F399C259F353
:1015200098C258F397C257F396C256F314DC03C01F
:10153000C1F202C0C0F201C0BFF200C0BEF2EC0EA8
:101540000201C56F510EC46F170EC36F800EC26FBC
:10155000330EC96F340EC86F7E0EC76FC66F1A0E7A
:10156000CD6F580ECC6F140ECB6F6D0ECA6F00018D
:1015700005EF2FF0928200009280000089929292F3
:10158000000089909290EE0E03013F6F000156EC2F
:1015900002F03DC33FF356EC02F03EC33FF356EC7E
:1015A00002F092920000928080A0FED7000000D04E
:1015B00000009282000012008E0E006E030138516E
:1015C000005E39C302F03AC301F0028E005209E016
:1015D000D890025202E1015204E002320132002EA0
:1015E000F7D739AF05D0011E021E012AD8B4022A4E
:1015F00000011200F40E03013D6F2E0E3E6F00013C
:10160000B9DF050E03015E6F000141EC04F0F60E38
:101610000301386F00015EDD02C037F301C036F30D
:1016200037C33EF336C33DF305EC05F003C03BF38F
:1016300002C03AF301C039F300C038F3BDDF0250F5
:101640001200800ED8A202D00301571B03015C6B6D
:101650005D6B53C35BF357515B1B5251D8B4DFD062
:101660005A6F006E5651D8B4E3D05A5FD8B483D0C5
:101670003EE357C360F3608F58C35FF359C35EF313
:101680005D6BD89060335F335E335D335A2FF8D78C
:101690005BAF03D05C81E0D05C915A915C89030E12
:1016A000EA6E550EE96EEBD05C995BBF0AD05AA189
:1016B00013D060335F335E335D33002AD8B4C7D0B4
:1016C0000BD060BF0CD0D8905D375E375F37603786
:1016D0000006D8B4BCD0F5D75C8D6DD05C9D53C3EB
:1016E0005BF353AF02D0608FABD0609FA9D056C3DD
:1016F0005AF356C300F052515A5F53C360F3608FE0
:1017000054C35FF355C35EF35D6BD89060335F33B2
:101710005E335D335A2FF8D75BAF03D05C839CD028
:101720005C935A915C8B030EEA6E590EE96EA7D05A
:101730005C9B5BBF0AD05AA113D060335F335E332A
:101740005D33002AD8B483D00BD060BF0CD0D890C2
:101750005D375E375F3760370006D8B478D0F5D78D
:101760005C8F29D05C9F57C35BF357AF02D0608F6B
:1017700067D0609F65D057C360F3608F58C35FF335
:1017800059C35EF35BAF04D0609F5C8565D05C9508
:101790005D6B5A91030EEA6E550EE96E70D05BBF19
:1017A0001CD053C35BF35AA106D060335F335E3362
:1017B0005D33002A4CE05DAF0BD05E2B09E15F2B5F
:1017C00007E1602B05E160335F335E33002A3FE0C1
:1017D0005CBD84D75CBFC6D71CD0800E601B60AFD9
:1017E00004D03AD057C35BF30AD053C35BF36053C2
:1017F00006E15F5304E15E5302E1006A21D060BF5D
:1018000008D0D8905D375E375F376037002EF7D746
:101810001ED05BAF02D0608F13D0609F11D056C333
:1018200000F057C360F358C35FF359C35EF308D0A9
:1018300052C300F053C360F354C35FF355C35EF368
:1018400060C301F05FC302F05EC303F034D0006AEE
:10185000016A026A036A2FD05D6B5E1F5F1F601F03
:101860005D1F5D2B05E15E2B03E15F2B01E1602B2A
:101870005CB112D75CB354D75CB589D7B3D7EF50FE
:101880005E2705E35F2B03E1602BD8B45A81ED524C
:10189000EF505F2703E3602BD8B45A81ED52EF502D
:1018A000EFBE01D0800A6027D8B05A815CB9FCD65F
:1018B0005CBB3ED774D700011200D8823DC355F3FC
:1018C0003CC354F33BC353F33AC352F3A1C259F39D
:1018D000A0C258F39FC257F39EC256F3B2DE9DC218
:1018E00055F39CC254F39BC253F39AC252F303C004
:1018F00059F302C058F301C057F300C056F3ABECE4
:1019000006F003C041F302C040F301C03FF300C042
:101910003EF3D89241C355F340C354F33FC353F34E
:101920003EC352F3A9C259F3A8C258F3A7C257F352
:10193000A6C256F386DEA5C255F3A4C254F3A3C2D1
:1019400053F3A2C252F303C059F302C058F301C0CB
:1019500057F300C056F320EC05F0D89241C355F37D
:1019600040C354F33FC353F33EC352F303C059F390
:1019700002C058F301C057F300C056F362DE03C043
:1019800045F302C044F301C043F300C042F3D882E0
:1019900045C355F344C354F343C353F342C352F313
:1019A0000301596B586B480E576F830E566F000139
:1019B00048DE03C0D1F202C0D0F201C0CFF200C0B5
:1019C000CEF242C300F043C301F044C302F045C36A
:1019D00003F012000FDE02C03EF301C03DF305EC40
:1019E00005F003C039F302C038F301C037F300C07B
:1019F00036F303C03DF302C03CF301C03BF300C02B
:101A00003AF35BDF03C0D5F202C0D4F201C0D3F2D7
:101A100000C0D2F2D2C200F0D3C201F0D4C202F0B0
:101A2000D5C203F013EF2FF09282000092800000E5
:101A300089929292000089909290EE0E03013F6F7E
:101A4000000156EC02F03DC33FF356EC02F09282E7
:101A500000009280000080A0FED789929292000040
:101A600089909290EF0E03013F6F000156EC02F057
:101A7000006A7FEC02F001C03EF392920000928077
:101A800080A0FED7000000D0000092820000030179
:101A90003EC301F000011200F40E03013D6F3E6FE2
:101AA000000168DD1A0E03015E6F000141EC04F0D5
:101AB000F60E03013D6F0001B7DF01C036F3F70EEC
:101AC00003013D6F0001B0DF01C037F3F80E0301E1
:101AD0003D6F0001A9DF01C038F3036A030136C37B
:101AE0003EF33D6B37513D27000E3E23036A3D25F3
:101AF000016E3E51032201C03DF303C03EF30001DD
:101B000005EC05F003C03CF302C03BF301C03AF31F
:101B100000C039F33CC34BF33BC34AF33AC349F328
:101B200039C348F326EC07F09EEF0FF0B60E006EB7
:101B3000036A026A016A03013651371138113911FB
:101B400002E1006A0DD0D89001BE09D03637373790
:101B500038373937033602360136002EF4D7019E66
:101B60000001A7EF0FF0B5C255F3B4C254F3B3C2EE
:101B700053F3B2C252F3D1C259F3D0C258F3CFC219
:101B800057F3CEC256F3ABEC06F003C051F302C0DC
:101B900050F301C04FF300C04EF303C055F302C031
:101BA00054F301C053F300C052F3D1C259F3D0C271
:101BB00058F3CFC257F3CEC256F3ABEC06F003C0D6
:101BC00051F302C050F301C04FF300C04EF3B1C255
:101BD00055F3B0C254F3AFC253F3AEC252F3D1C205
:101BE00059F3D0C258F3CFC257F3CEC256F3ABEC81
:101BF00006F0D89251C355F350C354F34FC353F377
:101C00004EC352F303C059F302C058F301C057F357
:101C100000C056F316DD03C051F302C050F301C0FB
:101C20004FF300C04EF3D89203C055F302C054F3F3
:101C300001C053F300C052F3ADC259F3ACC258F324
:101C4000ABC257F3AAC256F3FCDC03C041F302C097
:101C500040F301C03FF300C03EF3C1C255F3C0C220
:101C600054F3BFC253F3BEC252F3D1C259F3D0C230
:101C700058F3CFC257F3CEC256F3ABEC06F003C015
:101C800051F302C050F301C04FF300C04EF303C044
:101C900055F302C054F301C053F300C052F3D1C254
:101CA00059F3D0C258F3CFC257F3CEC256F3ABECC0
:101CB00006F003C051F302C050F301C04FF300C05F
:101CC0004EF3BDC255F3BCC254F3BBC253F3BAC208
:101CD00052F3D1C259F3D0C258F3CFC257F3CEC298
:101CE00056F3ABEC06F0D89251C355F350C354F3FE
:101CF0004FC353F34EC352F303C059F302C058F31A
:101D000001C057F300C056F39CDC03C051F302C07E
:101D100050F301C04FF300C04EF3D89203C055F307
:101D200002C054F301C053F300C052F3B9C259F3D7
:101D3000B8C258F3B7C257F3B6C256F382DC03C039
:101D400045F302C044F301C043F300C042F3D8821C
:101D50003DC355F33CC354F33BC353F33AC352F36F
:101D600041C359F340C358F33FC357F33EC356F33F
:101D700068DC03C051F302C050F301C04FF300C050
:101D80004EF303C055F302C054F301C053F300C037
:101D900052F345C359F344C358F343C357F342C303
:101DA00056F320EC05F003C049F302C048F301C02C
:101DB00047F300C046F3CDC255F3CCC254F3CBC2B7
:101DC00053F3CAC252F349C359F348C358F347C344
:101DD00057F346C356F3ABEC06F003C051F302C011
:101DE00050F301C04FF300C04EF303C055F302C0DF
:101DF00054F301C053F300C052F349C359F348C32D
:101E000058F347C357F346C356F3ABEC06F003C091
:101E100051F302C050F301C04FF300C04EF3C9C2EA
:101E200055F3C8C254F3C7C253F3C6C252F349C3F1
:101E300059F348C358F347C357F346C356F3ABECC3
:101E400006F0D89251C355F350C354F34FC353F324
:101E50004EC352F303C059F302C058F301C057F305
:101E600000C056F321EC0BF003C051F302C050F355
:101E700001C04FF300C04EF3D89203C055F302C027
:101E800054F301C053F300C052F3C5C259F3C4C2A6
:101E900058F3C3C257F3C2C256F321EC0BF003C090
:101EA0004DF302C04CF301C04BF300C04AF3D8928B
:101EB0004DC355F34CC354F34BC353F34AC352F3CE
:101EC0000301596B586B400E576F7F0E566F000120
:101ED00021EC0BF003C04DF302C04CF301C04BF3F7
:101EE00000C04AF34AC300F04BC301F04CC302F0F8
:101EF0004DC303F0B8EF0FF0FAEC0AF002C03EF366
:101F000001C03DF305EC05F003C039F302C038F31E
:101F100001C037F300C036F303C03DF302C03CF309
:101F200001C03BF300C03AF3C8DC03C0D5F202C0E5
:101F3000D4F201C0D3F200C0D2F2AED503C039F35F
:101F400002C038F301C037F300C036F3EFD503C049
:101F500039F302C038F301C037F300C036F303C0D1
:101F60003DF302C03CF301C03BF300C03AF3FBD5A4
:101F70001DEF2FF0E95003013B6F3A513D6F1CE01C
:101F800039C355F338C354F337C353F336C352F34D
:101F9000596B586B200E576F820E566F0001ABECD9
:101FA00006F003C039F302C038F301C037F300C0B4
:101FB00036F303013D2FE4D77E0E006E016A37BF72
:101FC000018E026A036AD89239C355F338C354F3B9
:101FD00037C353F336C352F303C059F302C058F367
:101FE00001C057F3566F000121EC0BF003C039F329
:101FF00002C038F301C037F300C036F339C34BF3E6
:1020000038C34AF337C349F336C348F326EC07F025
:1020100003C039F302C038F301C037F300C036F310
:10202000030139AF0DD03B073B8B361F371F381FDD
:10203000391F362BD8B4372BD8B4382BD8B4392B1A
:102040003B0E426F9A0E416FCA0E406F3F6B0A0EF5
:102050003D6F3A51D8B43B2BD882030EEA6E360E50
:10206000E96E39C3FFF338C3FEF337C3FDF336C35C
:10207000FCF342C303F441C302F440C301F43FC381
:1020800000F4000147EC07F00150005213E1030196
:102090003A293D5DD8A402D000010CD03B510DE09F
:1020A0000F0B3D5D01E044E23BBF42D03BBD05D09C
:1020B000200E37D0200E03013B173BAB0FD03B9BCC
:1020C0003A51D8A43B0700503B6F2D0E456F0001DD
:1020D00028EC03F003013B51006E3B6B3A513D5D30
:1020E0000DE100503B6F2E0E456F000128EC03F010
:1020F00003013B51006E200E3B17000E300E3BAB30
:1021000010D03B9B3A51D8A43B0700503B6F2D0E9B
:10211000456F000128EC03F003013B51006E3B6B5F
:10212000300E002600C045F3000128EC03F0030147
:10213000D89242C3FFF341C3FEF340C3FDF33FC354
:10214000FCF30401036B026B016B0A0E006F0001CC
:1021500047EC07F003C042F302C041F301C040F373
:1021600000C03FF303013D2F77D7000112000201A9
:10217000D96BD86BDD6BDC6BDB6BDA6B92820000AA
:102180009280000089929292000089909290900E25
:1021900003013F6F000156EC02F0010E03013F6F97
:1021A000000156EC02F0D00E03013F6F000156EC27
:1021B00002F0C30E03013F6F000156EC02F0929251
:1021C0000000928080A0FED7000000D00000928224
:1021D000000092820000928000008992929200009A
:1021E00089909290900E03013F6F000156EC02F02F
:1021F00003013F6B000156EC02F0929200009280C6
:1022000080A0FED7000000D00000928200009282E1
:102210000000928000008992929200008990929032
:10222000910E03013F6F000156EC02F0010E006EAB
:102230007FEC02F001C0D7F2010E006E7FEC02F0DD
:1022400001C0D6F292920000928080A0FED70000DA
:1022500000D0000092820000D7C2D9F20201D86BF0
:10226000D651D813D951750832E303E1D8512F085C
:102270002EE3D9C23EF3D8C23DF3000105EC05F0D0
:10228000050E0301556F790E546F440E536F720E95
:10229000526F03C059F302C058F301C057F300C096
:1022A00056F30001ABEC06F003C0DDF202C0DCF235
:1022B00001C0DBF200C0DAF2DAC200F0DBC201F0EA
:1022C000DCC202F0DDC203F00FD00ED00201DD6BE4
:1022D000DC6BDB6BDA6BDAC200F0DBC201F0DCC274
:1022E00002F0DDC203F000017DEF2FF00201D96B97
:1022F000D86BE16BE06BDF6BDE6B9282000092804B
:10230000000089929292000089909290900E0301B1
:102310003F6F000156EC02F0010E03013F6F000118
:1023200056EC02F0E00E03013F6F000156EC02F0A4
:10233000C30E03013F6F000156EC02F092920000C1
:10234000928080A0FED7000000D0000092820000A2
:1023500092820000928000008992929200008990FF
:102360009290900E03013F6F000156EC02F00301C2
:102370003F6B000156EC02F092920000928080A028
:10238000FED7000000D00000928200009282000080
:102390009280000089929292000089909290910E12
:1023A00003013F6F000156EC02F0010E006E7FEC5E
:1023B00002F001C0D7F2010E006E7FEC02F001C006
:1023C000D6F292920000928080A0FED7000000D04A
:1023D000000092820000D7C2D9F20201D86BD65118
:1023E000D813D951750832E303E1D8512F082EE3F1
:1023F000D9C23EF3D8C23DF3000105EC05F0050E4D
:102400000301556F790E546F440E536F720E526F65
:1024100003C059F302C058F301C057F300C056F38C
:102420000001ABEC06F003C0E1F202C0E0F201C033
:10243000DFF200C0DEF2DEC200F0DFC201F0E0C277
:1024400002F0E1C203F00FD00ED00201E16BE06BAD
:10245000DF6BDE6BDEC200F0DFC201F0E0C202F033
:10246000E1C203F0000185EF2FF089841200C9500A
:1024700063C4C9FFC730FEE3C9CF01F012008994DD
:1024800012000401696B666B6551665D1DE263C4F1
:10249000E9FF64C4EAFFEFCF68F4676B6751070890
:1024A0000CE3D890693768516919800B02E0090E76
:1024B000691BD8906837672BF1D7699F6651662BE7
:1024C000632BD8B4642BE0D7D880693769C401F096
:1024D000000183EF12F00401585140095D6F5CC4A4
:1024E0005EF45BC45FF45AC460F459C461F4020141
:1024F00004A10DD0040E0401646F5D0E636F050E20
:10250000656F0001BED701C062F404D0020104016E
:10251000626900015DC463F4AADF5EC463F4A7DFEF
:102520005FC463F4A4DF60C463F4A1DF61C463F437
:102530009EDF62C463F49BDF000E016E1200040193
:10254000586B596959530EE06369000190DF01C06F
:1025500058F40401583D01D003D058C401F004D010
:102560005907F0D7800E016E000112000401586B6C
:102570005C6B5B6B5A6B596B0001ADDFE0DF0150A8
:102580001200010E0401586F5C6B5B6B5A6B596B48
:102590000001A1DFD4DF015043EF14F0040E03016A
:1025A0006225016E000E6321036E01C065F3666F44
:1025B0000001C5DF66C3EAFF65C3E9FF01C0EFFFA5
:1025C0000301646B6451030818E3030ED88064555B
:1025D0006225016E000E6321036E01C065F3666F14
:1025E00004016369000143DF66C3EAFF65C3E9FFD5
:1025F00001C0EFFF0301642BE5D7040E6225E96EED
:10260000000E6321EA6EEFCF01F000011200080E08
:102610000401586F5C6B5B6B010E5A6FAA0E596F09
:10262000000159DF5FC363F35EC362F3B7DF01509C
:1026300066EF14F0370E0401586F5C6B5B6B5A6BDE
:10264000596B000148DF7BDF015074EF14F0290E55
:102650000401586F400E5C6F5B6B5A6B596B000145
:102660003ADF6DDF015077EF14F061C363F360C3AD
:1026700062F394DF01504BEF13F03A0E0401586FF0
:102680005C6B5B6B5A6B596B000125DF5FC361F3B9
:102690005EC360F3EAD701509EEF14F0100E040100
:1026A000586F61C35CF460C35BF45FC35AF45EC3EC
:1026B00059F4000110DF43DF0150B7EF14F03B0E77
:1026C0000401586F5C6B5B6B5A6B5EC359F400017D
:1026D00002DF0201049103015EA103D00201048123
:1026E000030100012CDF0150CEEF14F0110E0401A4
:1026F000586F57C45CF456C45BF455C45AF454C4C0
:1027000059F40001E8DE1BDF0150A0EF13F017DFE2
:1027100001C055F404015451555D03E1000E016EF2
:1027200002D055C401F00001AFEF13F0A8DE4CC495
:1027300057F44BC456F44AC455F449C454F4D6D79C
:1027400001C051F40401515306E000018EDE040182
:1027500051C401F03BD0FE0E546F0001D8D701C028
:1027600051F40401515306E000017FDE040151C41D
:1027700001F02CD0536B526B53514E5D1CE303E1BF
:102780004D51525D18E24F515225016E5051532167
:10279000036E01C054F4556F6369000168DE55C4CF
:1027A000EAFF54C4E9FF01C0EFFF010E0401522704
:1027B000000E5323E1D76369000159DE0401636908
:1027C000000155DE52DE000E016E04010001FCEF37
:1027D00013F00201049308C24CF407C24BF406C282
:1027E0004AF405C249F4020E04014E6F4D6B506B62
:1027F000040E4F6F00019AD70150120002010481AC
:10280000086B076B066B056B9294C69A949E938037
:102810009392320EC66E000EC76E000126DEFA0ECF
:1028200003015E6F000141EC04F00301586B585145
:10283000090807E304016369000119DE0301582B4D
:10284000F6D7586B010E5E6F000141EC04F017DE05
:102850008DDE01C059F309DE0301582B583D09D024
:10286000595304E1010E016EA2D003D059C301F007
:102870009ED0592DE7D7586B010E5E6F000141ECD9
:1028800004F0FDDD7ED601C059F3EFDD0301582BC6
:1028900059A102D0583DF0D7583D22D0640E5E6F4A
:1028A000000141EC04F0EBDD61DE01C059F3DDDD38
:1028B000640E03015E6F000141EC04F0E0DD030EE5
:1028C00003015F6F5A0E5E6F0001A1D601C059F37C
:1028D000CCDD0301592D01D003D059C301F067D0DD
:1028E000586B0001CCDDA6D601C059F3B0D601C0AB
:1028F00059F3BBDD640E03015E6F000141EC04F08F
:102900000301582B592D02D0583DEBD7592D03D038
:1029100059C301F04CD05951040804E10201096B7C
:102920001BD00301010E0201096F0001A8DD030E97
:1029300003015F6F5A0E5E6F00019FD601C059F30D
:1029400094DD03015951040808E05DC359F359AD02
:1029500004D0020E0201096F0301000190DD0301A2
:10296000616B606B020E5F6F5E6B000197D601C0FA
:1029700059F37BDD0301595303E059C301F017D02C
:10298000C69A949E93809392300EC66E000EC76EC8
:10299000000175DD03015E6B000191D601C059F3A2
:1029A00064DD17DF01C059F3000E016E0301000161
:1029B00064EF16F0180E0401586F57C45CF456C447
:1029C0005BF455C45AF454C459F4000184DDB7DDF6
:1029D0000150F5EF14F053DD4CC457F44BC456F4DA
:1029E0004AC455F449C454F4E5D701C051F4040174
:1029F000515306E0000139DD040151C401F03ED01D
:102A0000FE0E636F000133DD0401536B526B5351B3
:102A10004E5D14E303E14D51525D10E24F515225DA
:102A2000E96E50515321EA6EEFCF63F400011FDDD0
:102A3000010E04015227000E5323E9D763690001F8
:102A400016DD04016369000112DD79DD01C051F476
:102A5000040151510A0B06E0000107DD040151C4D5
:102A600001F00CD06369000102DD0152D8A402D04C
:102A70000401F8D7FADC000E016E0401000156EFE4
:102A800015F0020104A315D0049308C24CF407C248
:102A90004BF406C24AF405C249F4020E04014E6F1B
:102AA0004D6B506B040E4F6F000195D7015004D051
:102AB0000201000E016E000112000401446B0201CC
:102AC000095102080BE1D8900401486B4331476F6C
:102AD0004231466F4131456F13D00201040141512B
:102AE000010B016E026A036A4051405D456F01505F
:102AF0004159466F02504259476F03504359486F3E
:102B000045510201055D0FE1040146510201065DD8
:102B10000AE1040147510201075D05E10401485142
:102B20000201085D1BE004A30CD00001AADF01C074
:102B300044F40401445303E044C401F012D0020100
:102B4000049348C408F247C407F246C406F245C4D9
:102B500005F200013EDE01C044F40201040144C458
:102B600001F0000112002AC443F429C442F428C42D
:102B700041F427C440F4A1DF01C02DF404012D531A
:102B800003E02DC401F015D02851010B316F326BD9
:102B9000336B040E2725E96E000E3121EA6EEFCF6C
:102BA00034F42CC4EAFF2BC4E9FF34C4EFFF000E59
:102BB000016E000110EF16F00401206B1F6B205115
:102BC0001B5D3AE303E11A511F5D36E219C42AF492
:102BD00018C402F017C401F016C400F0010E162745
:102BE000D8B0172BD8B4182BD8B4192B02C023F4A3
:102BF00001C022F400C021F41DC403F01C511C2BA1
:102C0000D8B41D2B256F03C026F402C029F401C0DF
:102C100028F400C027F403C02CF42B6F0001A3D7C5
:102C200001C01EF404011E5303E01EC401F006D0CF
:102C30001F2BD8B4202BC3D7000E016E0001120049
:102C4000030158515A03F3CF01F0F4CF00F05B03B6
:102C5000F350002659515A03F3500020026E000130
:102C6000FCEF17F00401366B376B010E386FDA6A30
:102C7000D96A040E3B6F2E0E3A6F040EEA6E320EC6
:102C8000E96E3BC4E2FF3AC4E1FF38C439F4D8909E
:102C9000E550EE02F3503623F4503723392FF7D79F
:102CA00036C4DEFF37C436F4376BD8B0372B3A2B37
:102CB000D8B43B2B382B38510508DFE10001120056
:102CC0000301366B00019AD5015203E0FF0E016E3D
:102CD00015D20401196B186B010E176FBE0E166F1B
:102CE0001B6B010E1A6F030E1D6F4B0E1C6F000144
:102CF00063DF0150030136270401196B186B010EC5
:102D0000176FC60E166F1B6B040E1A6F030E1D6F26
:102D1000540E1C6F000150DF0150030136270401DF
:102D2000196B186B010E176FCA0E166F1B6B040E12
:102D30001A6F030E1D6F500E1C6F00013DDF015016
:102D4000030136274B517F0B11E1535307E15253D7
:102D500005E1515303E15051630808E254530BE17C
:102D6000555309E1565307E1575305E14F6B4E6B3D
:102D70004D6B4C6B08D0D8904C6B54354D6F55351E
:102D80004E6F56354F6F0B0E4C25586F000E4D2170
:102D9000596F000E4E215A6F000E4F215B6FE8CF26
:102DA00019F45AC318F459C317F458C316F404019C
:102DB0001B6B020E1A6F030E1D6F390E1C6F000184
:102DC000FBDE0150030136270D0E4C25586F000E17
:102DD0004D21596F000E4E215A6F000E4F215B6F2F
:102DE000E8CF19F45AC318F459C317F458C316F4AA
:102DF00004011B6B010E1A6F030E1D6F380E1C6F42
:102E00000001DADE0150030136270E0E4C25586F03
:102E1000000E4D21596F000E4E215A6F000E4F21AA
:102E20005B6FE8CF19F45AC318F459C317F458C3A9
:102E300016F404011B6B020E1A6F030E1D6F3B0E7E
:102E40001C6F0001B9DE015003013627100E4C251E
:102E5000586F000E4D21596F000E4E215A6F000E13
:102E60004F215B6FE8CF19F45AC318F459C317F414
:102E700058C316F404011B6B010E1A6F030E1D6F6D
:102E8000370E1C6F000198DE015003013627130E28
:102E90004C25586F000E4D21596F000E4E215A6F70
:102EA000000E4F215B6FE8CF19F45AC318F459C3D1
:102EB00017F458C316F404011B6B020E1A6F030EAD
:102EC0001D6F3D0E1C6F000177DE01500301362798
:102ED000240E4C25586F000E4D21596F000E4E21C7
:102EE0005A6F000E4F215B6FE8CF19F45AC318F4E4
:102EF00059C317F458C316F404011B6B040E1A6F60
:102F0000030E1D6F470E1C6F000156DE01500301BA
:102F100036271C0E4C25586F000E4D21596F000EA0
:102F20004E215A6F000E4F215B6FE8CF19F45AC340
:102F300018F459C317F458C316F404011B6B040E9C
:102F40001A6F030E1D6F3F0E1C6F000135DE01501E
:102F500003013627200E4C25586F000E4D21596F66
:102F6000000E4E215A6F000E4F215B6FE8CF19F40F
:102F70005AC318F459C317F458C316F404011B6B51
:102F8000040E1A6F030E1D6F430E1C6F000114DE3A
:102F9000015003013627EC0E4C25586F030E4D21CE
:102FA000596F000E4E215A6F000E4F215B6FE8CF14
:102FB00019F45AC318F459C317F458C316F404018A
:102FC0001B6B040E1A6F020E1D6F1A0E1C6F000190
:102FD000F3DD015003013627365305E0FF0E016E85
:102FE00000018CD00301596B38C358F33AC35BF32B
:102FF00039C35AF3000124D602C00DF201C00CF20D
:1030000039C300F03AC301F0026A036A03C05BF3FC
:1030100002C05AF33AC359F339C358F34AC331F4DF
:1030200049C330F448C32FF447C32EF403C035F42A
:1030300002C034F43AC333F439C332F413DE03C0AC
:1030400019F202C018F201C017F200C016F2030113
:103050005B6B5A6B3CC359F33BC358F35BC331F40E
:103060005AC330F43CC32FF43BC32EF40401356B38
:10307000346B3AC333F439C332F40001F3DD00504A
:1030800003014C2502010E6F015003014D21020185
:103090000F6F025003014E210201106F0350030114
:1030A0004F210201116F0401316B306B2F6B37C35D
:1030B0002EF419C235F418C234F417C233F416C210
:1030C00032F40001CFDD005002010E251E6F0150C9
:1030D0000F211F6F02501021206F03501121216F0B
:1030E0000C511E25126F0D511F21136F000E202150
:1030F000146F000E2121156F000E016E00018EEF7E
:1031000018F03E0EF66E010EF76ECAEC04F0640E77
:1031100003015E6F000141EC04F0D2D501C024F23E
:10312000020124530AE05E0EF66E010EF76E0001F6
:10313000CAEC04F0FFD738D00201800EF66E010E03
:10314000F76E0001CAEC04F0640E03015E6F00012B
:1031500041EC04F09E0EF66E010EF76ECAEC04F020
:1031600002010951000A000105E0010A0AE0030A10
:103170000FE01AD0AA0EF66E010EF76ECAEC04F03C
:1031800013D0B20EF66E010EF76ECAEC04F00CD03E
:10319000BA0EF66E010EF76ECAEC04F0640E03016F
:1031A0005E6F000141EC04F0F8EF2FF0EFC3F1F394
:1031B000EEC3F0F3F1C303F00301F0C3E9FFF1C381
:1031C000EAFFEF5206E0F02BD8B4F12B0001F2D762
:1031D0000301EE51F05D006EEF51F159036E00C036
:1031E00001F0026E000112000301ED6BEC6BEC517B
:1031F0000A083DE3EC51E425EE6F000EE521EF6F88
:10320000000EE621F06F000EE721F16FE8CF19F410
:10321000F0C318F4EFC317F4EEC316F404011B6BEC
:10322000010E1A6F030E1D6FEB0E1C6F0001C4DC44
:10323000015203E0FF0E016E72D00301EB51200832
:1032400013E0ED51E825E96E000EE921EA6EEB513D
:10325000400806E2EB515A0803E3EB51200901D084
:10326000EB51EF6E010EED27010EEC27C0D7ED51AB
:10327000E825E96E000EE921EA6EEF6AEA511008CE
:1032800044E0E9C3EFF3E8C3EEF300018FDF02C0CF
:10329000EFF301C0EEF30301EF5303E1EE51030836
:1032A00034E2E9C3EFF3E8C3EEF300017FDF01C0CE
:1032B000EDF3EDC3ECF3030E0301ED5DEC5D1DE0FA
:1032C0001CE3EC51E825016E000EE921036E01C0FC
:1032D000EEF3EF6F010EEC5DE825E96E000EE921DB
:1032E000EA6EEFCFF0F303C0EAFF01C0E9FFF0C3DD
:1032F000EFFFEC070001DFD70301EC51E825E96E91
:10330000000EE921EA6E2E0EEF6E010EED25E82586
:10331000E96E000EE921EA6EEF6A000E016E00010F
:1033200007EF1CF002011E510301F45DF86F02016A
:103330001F510301F559F96F020120510301F6599C
:10334000FA6F020121510301F759FB6FD892FF6F09
:10335000FAC3FEF3F9C3FDF3F8C3FCF30401036BF6
:10336000026B0DC201F40CC200F4000147EC07F03F
:1033700003C0FBF302C0FAF301C0F9F300C0F8F395
:10338000020E03010024006E000E0120016E000EEB
:103390000220026E000E0320036E000112000301E2
:1033A000F56BF46BF36B010EF26FF96BF86BF76B67
:1033B000F66BF0C3E9FFF1C3EAFFEFCF00F0ECCF0B
:1033C00001F0ECCF02F0ECCF03F00050F65D09E124
:1033D0000150F75D06E10250F85D03E10350F95D2D
:1033E0003EE0010EF227000EF323F423F523F2351D
:1033F000FB6FF335FC6FF435FD6FF535FE6FFB3772
:10340000FC37FD37FE37FC0EFB1702010E5103019E
:10341000FB2702010F510301FC230201105103019C
:10342000FD23020111510301FE23FEC319F4FDC364
:1034300018F4FCC317F4FBC316F404011B6B040E51
:103440001A6F030E1D6FF60E1C6F0001DCEC15F0F9
:10345000015203E0FF0E016E10D00301AAD7F0C3A2
:10346000E9FFF1C3EAFFF2C3EFFFF3C3ECFFF4C3DC
:10347000ECFFF5C3ECFF000E016E000136EF1BF010
:10348000020E0401265D006E000E2759016E000E2B
:103490002859026E000E2959036E2D6F02C02CF4BC
:1034A00001C02BF400C02AF4316B306B0DC22FF435
:1034B0000CC22EF4356F02C034F401C033F400C0E6
:1034C00032F4000132EC16F002011E5100261F51A9
:1034D0000122205102222151032200011200EBC3DC
:1034E00003F00301EAC3E9FFEBC3EAFFEFCFF0F318
:1034F000ECCFF1F3ECCFF2F3ECCFF3F3F3510201A5
:10350000215D15E311E10301F2510201205D0FE39A
:103510000BE10301F15102011F5D09E305E1030124
:10352000F05102011E5D03E3000E016EFAD0EBC301
:1035300003F0EAC3E9FFEBC3EAFFEFCFF0F3ECCF10
:10354000F1F3ECCFF2F3ECCFF3F3020112510301EC
:10355000F05F020113510301F15B020114510301F9
:10356000F25B020115510301F35BEACFF5F3E9CFFA
:10357000F4F3D882030EEA6EF60EE96EF3C3FFF39E
:10358000F2C3FEF3F1C3FDF3F0C3FCF30401036BDC
:10359000026B0DC201F40CC200F4000147EC07F00D
:1035A000F6C300F0F7C301F0F8C302F0F9C303F06B
:1035B000F5C3EAFFF4C3E9FFF9C3F3F3F8C3F2F389
:1035C000F7C3F1F3F6C3F0F30301F053D8A48DD0A1
:1035D000F153D8A48AD0F253D8A487D0F353D8A4F7
:1035E00084D0EBC303F0EAC3E9FFEBC3EAFFEFCFFC
:1035F000F0F3ECCFF1F3ECCFF2F3ECCFF3F3020105
:1036000015510301F35DD8A070D011E102011451EE
:103610000301F25D6AE30BE1020113510301F15D65
:1036200064E305E1020112510301F05D5EE3EBC3C7
:1036300003F0EAC3E9FFEBC3EAFFEFCFF4F3ECCF0B
:10364000F5F3ECCFF6F3ECCFF7F300016BDE03C03C
:10365000EFF302C0EEF301C0EDF300C0ECF3030E94
:103660000301F16FEC0EF06F000199D60150FF08D5
:1036700005E1FF0E016E020154D00001EBC303F01F
:10368000EAC3F0F3EBC3F1F3EFC329F4EEC328F47C
:10369000EDC327F4ECC326F40001F2DE03C0F5F31A
:1036A00002C0F4F301C0F3F300C0F2F3010E020113
:1036B0000C5D006E000E0D59036E00500301F225E3
:1036C000006E03500120016E000E0220026E000EFB
:1036D000F521F1C3EAFFF0C3E9FF00C0EFFF01C02D
:1036E000ECFF02C0ECFFEC6E19D0EAC3E9FFEBC3BC
:1036F000EAFF010EEF5C006E000EEC58016E000E4A
:10370000EC58026E000EEC58ED52ED52ED5200C036
:10371000EFFF01C0ECFF02C0ECFFEC6E000E016E8B
:1037200002010001ADEF1BF00301E4C3E9FFE5C3B3
:10373000EAFFEFCFE6F3ECCFE7F3ECCFE8F3ECCF23
:10374000E9F31F0EE65F000EE75BE85BE95B030E43
:10375000EB6FE60EEA6F0001C2D60150FF0803E1ED
:10376000FF0E016E0FD00301E4C3E9FFE5C3EAFFDA
:10377000E6C3EFFFE7C3ECFFE8C3ECFFE9C3ECFFF0
:10378000000E016E000117EF1CF00301DD6BD9C3C1
:10379000E3F3D8C3E2F3D7C3E1F3D6C3E0F3150EE6
:1037A000E05DE46F000EE159E56F000EE259E66F4F
:1037B000000EE359E76FE8CF19F4E6C318F4E5C348
:1037C00017F4E4C316F404011B6B010E1A6F030E09
:1037D0001D6FDF0E1C6F0001DCEC15F0015203E0E1
:1037E000FF0E016E92D00301DF510F081AE0E3C310
:1037F000E7F3E2C3E6F3E1C3E5F3E0C3E4F3DBC3DD
:10380000E9F3DAC3E8F3DFC3EAF30001EDD40150D2
:10381000FF0803E1FF0E016E78D0000E016E75D037
:103820000301030EE56FE00EE46F00017DD7015048
:10383000FF0803E1FF0E016E68D0010E0301DC6F8B
:10384000DC511F083EE3DC510B0803E10E0EDC6F78
:1038500005D0DC511A0802E11C0EDC6FDC51E025BA
:10386000E46F000EE121E56F000EE221E66F000E2D
:10387000E321E76FDD51DA25016E000EDB21036ED7
:1038800001C0E8F3E96FE7C319F4E6C318F4E5C330
:1038900017F4E4C316F404011B6B010E1A6F03C086
:1038A0001DF401C01CF40001DCEC15F0015203E032
:1038B000FF0E016E2AD0020E0301DC27010EDD2768
:1038C000BFD7E3C319F4E2C318F4E1C317F4E0C3AC
:1038D00016F404011B6B010E1A6F030E1D6FDE0E32
:1038E0001C6F0001DCEC15F0015203E0FF0E016ECD
:1038F0000CD00301DEAD95D7DD51DA25E96E000E5F
:10390000DB21EA6EEF6A000E016E0001A4EF25F0E4
:103910000301D6C3E9FFD7C3EAFFEFCFDAF3D9C378
:1039200003F0D8C3E9FFD9C3EAFFEF50DA5D15E130
:10393000D7C303F0D6C3E9FF03C0EAFFEF5203E1A8
:10394000000E016E1FD0D7C303F0D651D62BD8B4CA
:10395000D72BD82BD8B4D92BDCD7D7C303F0D6C3F9
:10396000E9FFD7C3EAFFEFCFDAF3D9C303F0D8C337
:10397000E9FFD9C3EAFFEF50DA5D02E2FF0E01D0A2
:10398000010E016E0001B8EF25F0F0C303F0030152
:10399000EFC3E9FFF0C3EAFFEFCFF1F3ECCFF2F3AF
:1039A000ECCFF3F3ECCFF4F3F137F237F337F4372E
:1039B000F137F237F337F437FC0EF11702010E51ED
:1039C0000301F12702010F510301F22302011051FB
:1039D0000301F323020111510301F423F4C319F489
:1039E000F3C318F4F2C317F4F1C316F404011B6B0C
:1039F000040E1A6FF0C31DF4EFC31CF40001DCECDD
:103A000015F0015203E0FF0E016E02D0000E016EB0
:103A100012003DC443F43CC442F43BC441F43AC4F4
:103A200040F45DEC15F001C03FF404013F5303E0A6
:103A30003FC401F012D03B51010B416F426B436B0D
:103A4000040E3A25E96E000E4121EA6E3EC4EFFFF6
:103A500002010483000E016E0401000163EF1DF0FA
:103A60000401346B336B34512F5D39E303E12E5184
:103A7000335D35E22DC43DF42CC402F02BC401F0BB
:103A80002AC400F0010E2A27D8B02B2BD8B42C2B37
:103A9000D8B42D2B02C037F401C036F400C035F481
:103AA00031C403F03051302BD8B4312BE96E03C050
:103AB000EAFFEFCF3EF402C03CF401C03BF400C08B
:103AC0003AF40001A6D701C032F40401325303E0F6
:103AD00032C401F006D0332BD8B4342BC4D7000E37
:103AE000016E000112000301FB350401046F0301A4
:103AF000FC350401056F0301FD350401066F030168
:103B0000FE350401076F0437053706370737FC0E0B
:103B1000041702010E510401042702010F51040190
:103B20000523020110510401062302011151040171
:103B3000072307C42DF406C42CF405C42BF404C4D5
:103B40002AF42F6B040E2E6F030E316F30690001C3
:103B500087DF015203E0FF0E016E02D0000E016EFE
:103B60001200DDC3E1F3DCC3E0F3DBC3DFF3DAC350
:103B7000DEF3E1C3E5F3E0C3E4F3DFC3E3F3DEC365
:103B8000E2F3030E0301F06FE20EEF6F0001FDDEC2
:103B90000150FF0803E1FF0E016E36D0E1C3FEF3D2
:103BA000E0C3FDF3DFC3FCF3DEC3FBF30401026BF0
:103BB000016B006B0301FF6B000195DF0150FF08F3
:103BC00003E1FF0E016E20D0E5C3E1F3E4C3E0F3AF
:103BD000E3C3DFF3E2C3DEF30301DE3D01D002D035
:103BE0000001CFD7DF3D01D002D00001CAD7E03DB0
:103BF00001D002D00001C5D7E1510F08D8B402D0DE
:103C00000001BFD7000E016E000138EF27F0040E4F
:103C10000301E425016E000EE521036E01C0E6F309
:103C2000E76F140EE425E96E000EE521EA6EEFCF92
:103C300000F0ECCF01F0ECCF02F0ECCF03F0E7C3E3
:103C4000EAFFE6C3E9FF00C0EFFF01C0ECFF02C0DE
:103C5000ECFF03C0ECFF100EE425E96E000EE52139
:103C6000EA6EEFCF00F0ECCF01F0ECCF02F0ECCF3A
:103C700003F0E5C3EAFFE4C3E9FF00C0EFFF01C0C2
:103C8000ECFF02C0ECFF03C0ECFF000126EF23F0C5
:103C9000FBC3E9FFFCC3EAFFEFCF0DF4ECCF0EF45A
:103CA000ECCF0FF4ECCF10F404010D370E370F37C3
:103CB00010370D370E370F371037FC0E0D17020176
:103CC0000E5104010D25056F02010F5104010E2153
:103CD000066F0201105104010F21076F02011151FB
:103CE00004011021086F0C6B0B6B0A6B096B0C51F4
:103CF0000201195DD8A08ED016E104010B5102011A
:103D0000185DD8A087D00FE104010A510201175DA8
:103D1000D8A080D008E116510401095DD8A002D0D6
:103D2000020178D002010401095105250D6F0A51E5
:103D300006210E6F0B5107210F6F0C510821106FD8
:103D4000196F0FC418F40EC417F40DC416F41B6BCE
:103D5000040E1A6F030E1D6FFD0E1C6F0001DCECCC
:103D600015F0015203E0FF0E016E57D000C404F4B9
:103D7000FFC303F4FEC302F4FDC301F404010153C5
:103D800041E102533FE103533DE104533BE109515B
:103D900005270A5106230B5107230C510823FBC3A7
:103DA000E9FFFCC3EAFF02010E510401055D0F6F3C
:103DB00002010F5104010659106F02011051040154
:103DC0000759116F0201115104010859126F123184
:103DD000036E1131026E1031016E0F31006E03322D
:103DE0000232013200323F0E031600C0EFFF01C065
:103DF000ECFF02C0ECFF03C0ECFF000E016E0001FF
:103E00000CD00401040E0927000E0A230B230C23F7
:103E10006ED70201FF0E016E00011200FEC329F4ED
:103E2000FDC328F4FCC327F4FBC326F440EC1AF0CE
:103E300003C025F402C024F401C023F400C022F41E
:103E400004011F6B1F511F080BE3036A1F51FF0F73
:103E5000E96E030E0320EA6EEF6A010E1F27F2D708
:103E6000216B206B215102010D5D31E308E10C5102
:103E70000401205DD8A002D0020129D00201040172
:103E800020512225266F21512321276F000E242146
:103E9000286F000E2521296F2D6F28C42CF427C40C
:103EA0002BF426C42AF42F6B200E2E6F030E316FD5
:103EB00030690001D5DD015203E0FF0E016E0AD02A
:103EC000200E04012027000E2123CCD70201000E72
:103ED000016E00011200040E0301E725E96E000ED9
:103EE000E821EA6EEFCFEAF3ECCFEBF3ECCFECF3A3
:103EF000ECCFEDF31F0EEA17EB6BEC6BED6BEA53B7
:103F0000D8A46CD0EB536AE1EC5368E1ED5366E161
:103F1000040EE725E96E000EE821EA6EEFCFEAF322
:103F2000ECCFEBF3ECCFECF3ECCFEDF3140EE72595
:103F3000E96E000EE821EA6EEFCF00F0ECCF01F061
:103F4000ECCF02F0ECCF03F00050EA5D09E1015044
:103F5000EB5D06E10250EC5D03E10350ED5D3EE0F8
:103F6000040EE725E96E000EE821EA6EEFCFEAF3D2
:103F7000ECCFEBF3ECCFECF3ECCFEDF3200EEA5FFC
:103F8000000EEB5BEC5BED5B1A0EE725016E000E9D
:103F9000E821036E01C0EEF3EF6FEDC32DF4ECC327
:103FA0002CF4EBC32BF4EAC32AF404012F6B200E8C
:103FB0002E6F03C031F401C030F4000151DD015215
:103FC0000EE0190E0301E725E96E000EE821EA6E06
:103FD000EF504009EF6EFF0E016E29D00001040E74
:103FE0000301E725E96E000EE821EA6EEFCFEAF360
:103FF000ECCFEBF3ECCFECF3ECCFEDF31F0EEA17C5
:10400000EB6BEC6BED6B1A0EEA25006E000EEB21EC
:10401000016E000EEC21000EED21E7510024E96E47
:10402000E8510120EA6EE9C3EFFF000E016E0001C6
:104030004FEF22F0EAC303F00301E9C3E9FFEAC34B
:10404000EAFFEFCFEFF3ECCFF0F3ECCFF1F3ECCFEF
:10405000F2F3010EEF27000EF023F123F223020109
:1040600012510301EF5F020113510301F05B0201E2
:1040700014510301F15B020115510301F25BEACF18
:10408000F4F3E9CFF3F3D882030EEA6EF50EE96E8E
:10409000F2C3FFF3F1C3FEF3F0C3FDF3EFC3FCF390
:1040A0000401036B026B0DC201F40CC200F40001A9
:1040B00047EC07F0F5C300F0F6C301F0F7C302F0D8
:1040C000F8C303F0F4C3EAFFF3C3E9FFF8C3F2F364
:1040D000F7C3F1F3F6C3F0F3F5C3EFF30301EF53C6
:1040E000D8A48DD0F053D8A48AD0F153D8A487D0C7
:1040F000F253D8A484D0EAC303F0E9C3E9FFEAC3CA
:10410000EAFFEFCFEFF3ECCFF0F3ECCFF1F3ECCF2E
:10411000F2F3020115510301F25DD8A070D012E153
:10412000020114510301F15DD8A069D00BE1020135
:1041300013510301F05D63E305E102011251030134
:10414000EF5D5DE3EAC303F0E9C3E9FFEAC3EAFF19
:10415000EFCFF4F3ECCFF5F3ECCFF6F3ECCFF7F3CE
:10416000000192EC19F003C0EEF302C0EDF301C0C0
:10417000ECF300C0EBF3030E0301F06FEB0EEF6FF7
:10418000000103DC0150FF0803E1FF0E016E54D073
:104190000301EB3D07D0EC3D05D0ED3D03D0EE3DF6
:1041A00001D009D0EB3D0CD0EC3D0AD0ED3D08D05C
:1041B000EE510F0805E1FF0E016E00013DD0030135
:1041C000EAC303F0E9C3EFF3EAC3F0F3EEC329F463
:1041D000EDC328F4ECC327F4EBC326F4000140EC54
:1041E0001AF0F0C3EAFFEFC3E9FF00C0EFFF01C020
:1041F000ECFF02C0ECFF03C0ECFF1CD00301E9C3DD
:10420000E9FFEAC3EAFF010EEF24006E000EEC2086
:10421000016E000EEC20026E000EEC20036EED52DB
:10422000ED52ED5200C0EFFF01C0ECFF02C0ECFF09
:10423000EC6E0001000E016E1200F0C3F6F3EFC346
:10424000F5F3EEC3F4F3EDC3F3F3F6C3FAF3F5C3FA
:10425000F9F3F4C3F8F3F3C3F7F3030E0301FC6FB0
:10426000F70EFB6F000114DD0150FF0803E1FF0EA4
:10427000016E5CD0F6C3FEF3F5C3FDF3F4C3FCF3AB
:10428000F3C3FBF3FAC302F4F9C301F4F8C300F477
:10429000F7C3FFF328DC0150FF0803E1FF0E016EB6
:1042A00045D0FAC3FEF3F9C3FDF3F8C3FCF3F7C33B
:1042B000FBF30F0E0401026F016900690301FF693E
:1042C000000111DC0150FF0803E1FF0E016E2ED04A
:1042D000FAC3FEF3F9C3FDF3F8C3FCF3F7C3FBF332
:1042E0009DDD0150FF0803E1FF0E016E1FD0F2C3F8
:1042F00003F0F1C3FBF3F2C3FCF3FAC329F4F9C3EF
:1043000028F4F8C327F4F7C326F4000140EC1AF0B0
:10431000FCC3EAFFFBC3E9FF00C0EFFF01C0ECFFF5
:1043200002C0ECFF03C0ECFF000E016EDCEF22F0D8
:10433000190E0301E525E96E000EE621EA6EEFB2E3
:1043400008D0190EE525E96E000EE621EA6EEFA40D
:104350005BD1180EE525E96E000EE621EA6EEF52FC
:10436000D8A452D1040EE525E96E000EE621EA6ECE
:10437000EFCFE7F3ECCFE8F3ECCFE9F3ECCFEAF3E0
:10438000EA510201155DD8A082D016E10301E9517E
:104390000201145DD8A07BD00FE10301E8510201B6
:1043A000135DD8A074D008E112510301E75DD8A0D5
:1043B00002D002016CD00201020E0301FC6F1A0E42
:1043C000FB6F000165DC0150FF0803E1FF0E016E89
:1043D0001ED11DC2FEF31CC2FDF31BC2FCF31AC2A8
:1043E000FBF30F0E0401026F016900690301FF690D
:1043F000000173EC1DF00150FF0803E1FF0E016E98
:1044000006D11DC2FEF31CC2FDF31BC2FCF31AC28F
:10441000FBF304DD0150FF0803E1FF0E016EF7D04E
:10442000040E0301E525016E000EE621036E01C0B6
:10443000E7F3E86F140EE525016E000EE621036E2A
:1044400001C0E9F3EA6F1DC229F41CC228F41BC2A3
:1044500027F41AC226F4000140EC1AF0EAC3EAFF7E
:10446000E9C3E9FF00C0EFFF01C0ECFF02C0ECFFB1
:1044700003C0ECFFE8C3EAFFE7C3E9FF00C0EFFFBA
:1044800001C0ECFF02C0ECFF03C0ECFF0201E6C379
:10449000E8F3E5C3E7F3E4C3E9F300011CD50150F9
:1044A000FF0803E1FF0E016EB2D0040E0301E52503
:1044B000016E000EE621036E01C0E7F3E86FEA6FBC
:1044C00001C0E9F30001B6DD0150FF08D8A47AD09D
:1044D000040E0301E525E96E000EE621EA6EEFCF3A
:1044E000E7F3ECCFE8F3ECCFE9F3ECCFEAF3200EFF
:1044F000E75F000EE85BE95BEA5B010EE727000E71
:10450000E823E923EA231A0EE525016E000EE621D1
:10451000036E01C0EBF3EC6FEAC32DF4E9C32CF496
:10452000E8C32BF4E7C32AF404012F6B200E2E6F8F
:1045300003C031F401C030F4000130EC1DF0015231
:104540000EE0190E0301E525E96E000EE621EA6E84
:10455000EF504009EF6EFF0E016E000158D0040EBF
:104560000301E525E96E000EE621EA6EEFCFF4F3D4
:10457000ECCFF5F3ECCFF6F3ECCFF7F3000192ECD0
:1045800019F003C0F0F302C0E9F301C0EEF300C07C
:10459000E7F3040E0301E525016E000EE621036E2C
:1045A00001C0EBF3EC6F02C0EFF300C0EDF3F26F6C
:1045B00001C0F1F3000141D60150FF0803E1FF0EF5
:1045C000016E25D0100E0301E525E96E000EE621EF
:1045D000EA6E010EEF24006E000EEC20016E000E5C
:1045E000EC20026E000EEC20ED52ED52ED5200C0B8
:1045F000EFFF01C0ECFF02C0ECFFEC6EE4C301F082
:10460000000105D004D00301FF0E016E000112006D
:10461000DBC303F00301DAC3E9FFDBC3EAFFEFCF3B
:10462000E4F3ECCFE5F3ECCFE6F3ECCFE7F3E453C0
:1046300011E1E5530FE1E6530DE1E7530BE1D9C377
:10464000E5F3D8C3E4F3000107EF1EF0000E016E9E
:10465000DAD10301190ED825E96E000ED921EA6ED0
:10466000EFB208D0190ED825E96E000ED921EA6EF6
:10467000EFA466D0100ED825E96E000ED921EA6E9F
:10468000EFCFE4F3ECCFE5F3ECCFE6F3ECCFE7F3D9
:10469000DAC3E9FFDBC3EAFFEFCF00F0ECCF01F0B4
:1046A000ECCF02F0ECCF03F0E751035C49E30BE100
:1046B000E651025C45E307E1E551015C41E303E1BA
:1046C0000050E45D3DE2100ED825E96E000ED921C0
:1046D000EA6EEFCFE4F3ECCFE5F3ECCFE6F3ECCF0B
:1046E000E7F3DAC3E9FFDBC3EAFFEFCF00F0ECCF7B
:1046F00001F0ECCF02F0ECCF03F0E751035C1BE3D9
:104700000BE1E651025C17E307E1E551015C13E3BD
:1047100003E10050E45D0FE2E46BD9C3E6F3D8C3D4
:10472000E5F3000105DE0150FF0803E1FF0E016E15
:104730006AD10301C8D7000E016E000164D10301E4
:10474000DBC303F0DAC3E9FFDBC3EAFFEFCFFCF31F
:10475000ECCFFDF3ECCFFEF3ECCFFFF3EACFE9F3C0
:10476000E9CFE8F3D8920401036B026B0DC201F4A8
:104770000CC200F4000147EC07F0E9C3EAFFE8C30C
:10478000E9FF03C0E3F302C0E2F301C0E1F300C0BC
:10479000E0F3140E0301D825E96E000ED921EA6E6C
:1047A000EFCFF4F3ECCFF5F3ECCFF6F3ECCFF7F378
:1047B000000192EC19F003C0DFF302C0DEF301C088
:1047C000DDF300C0DCF30301E05306E1E15304E153
:1047D000E25302E1E35314E0030EF06FDC0EEF6FDF
:1047E0000001C5EC1CF0015203E0FF0E016E0BD17D
:1047F000010E0301E05F000EE15BE25BE35BE4D7E7
:10480000040ED825016E000ED921036E01C0E4F319
:10481000E56FDFC329F4DEC328F4DDC327F4DCC36E
:1048200026F4000140EC1AF0E5C3EAFFE4C3E9FF17
:1048300000C0EFFF01C0ECFF02C0ECFF03C0ECFFC3
:10484000040E0301D825016E000ED92101C0E4F346
:10485000E56FEA6E01C0E9FFEFCFE6F3ECCFE7F3D7
:10486000ECCFE8F3ECCFE9F3DBC303F0DAC3E9FF05
:10487000DBC3EAFFEFCFFCF3ECCFFDF3ECCFFEF3AD
:10488000ECCFFFF3EACFEFF3E9CFEEF3D882030EDC
:10489000EA6EF00EE96E0401036B026B0DC201F4C7
:1048A0000CC200F4000147EC07F0F0C300F0F1C3C4
:1048B00001F0F2C302F0F3C303F0EFC3EAFFEEC36B
:1048C000E9FF0301E6510026E7510122E8510222E7
:1048D000E9510322E5C3EAFFE4C3E9FF00C0EFFFAB
:1048E00001C0ECFF02C0ECFF03C0ECFF190ED8259D
:1048F000E96E000ED921EA6EEFA064D0100ED82523
:10490000E96E000ED921EA6EEFCFE6F3ECCFE7F3C4
:10491000ECCFE8F3ECCFE9F3DAC3E9FFDBC3EAFF5E
:10492000EFCF00F0ECCF01F0ECCF02F0ECCF03F0D2
:104930000050E65D006E0150E759016E0250E859E3
:10494000026E0350E959D9C3EAFFD8C3E9FF00C09A
:10495000EFFF01C0ECFF02C0ECFFEC6E040ED825A7
:10496000E96E000ED921EA6EEFCF16F4ECCF17F402
:10497000ECCF18F4ECCF19F41A0ED825016E000E06
:10498000D921036E01C0E8F3E96F04011B6B200E0F
:104990001A6F03C01DF401C01CF40001DCEC15F01B
:1049A00001520EE0190E0301D825E96E000ED9213F
:1049B000EA6EEF502009EF6EFF0E016E000123D06A
:1049C00020D00301100ED825016E000ED92101C0A0
:1049D000E4F3DAC3E9FFDBC3EAFFEFCF00F0ECCF8B
:1049E00001F0ECCF02F0ECCF03F0EA6EE4C3E9FF94
:1049F00000C0EFFF01C0ECFF02C0ECFF03C0ECFF02
:104A00000001000E016E82EF27F00301D6C3E9FF1B
:104A1000D7C3EAFFEFCFD8F3ECCFD9F3ECCFDAF37B
:104A2000ECCFDBF31F0ED827000ED923DA23DB23CC
:104A3000030EEA6FD80EE96F00011AEC20F0015066
:104A4000FF0803E1FF0E016E0FD00301D6C3E9FF9B
:104A5000D7C3EAFFD8C3EFFFD9C3ECFFDAC3ECFF3B
:104A6000DBC3ECFF000E016E00018FEF28F00301A5
:104A7000B16B140EAD25E96E000EAE21EA6EEFCFDC
:104A8000B2F3ECCFB3F3ECCFB4F3ECCFB5F3B5C3E3
:104A900019F4B4C318F4B3C317F4B2C316F4040181
:104AA0001B6B010E1A6F030E1D6FB00E1C6F000101
:104AB000DCEC15F001500301B1270B0EB225D66FC7
:104AC000000EB321D76F000EB421D86F000EB521B0
:104AD000D96FE8CF19F4D8C318F4D7C317F4D6C3E5
:104AE00016F404011B6B010E1A6F030E1D6FAF0E3F
:104AF0001C6F0001DCEC15F001500301B127B1532C
:104B00000CE0190EAD25E96E000EAE21EA6EEF50F5
:104B10002009EF6EFF0E016E19D3B051E508D8B42D
:104B2000F6D2AC51AF5DD8A4F2D2B5C3D9F3B4C3B9
:104B3000D8F3B3C3D7F3B2C3D6F3030EDB6FB60E0D
:104B4000DA6F0001C5EF1BF00150FF0805E1FF0E11
:104B5000016E0301FBD20001ABC3D7F3AAC3D6F3A6
:104B6000030E0301D96FB60ED86F000188EF1CF059
:104B70000152D8A4CDD20C0E0301AD25016E000E5A
:104B8000AE21036E01C0D6F3D76F140EAD25E96ECA
:104B9000000EAE21EA6EEFCF00F0ECCF01F0ECCFCB
:104BA00002F0ECCF03F0D7C3EAFFD6C3E9FF00C0A1
:104BB000EFFF01C0ECFF02C0ECFF03C0ECFF1C0ED6
:104BC000B225D66F000EB321D76F000EB421D86F77
:104BD000000EB521D96F100EAD25016E000EAE216D
:104BE000036E01C0DAF3DB6FD9C319F4D8C318F42C
:104BF000D7C317F4D6C316F404011B6B040E1A6F47
:104C000003C01DF401C01CF40001DCEC15F00150E0
:104C10000301B127140EB225D66F000EB321D76F52
:104C2000000EB421D86F000EB521D96F140EAD253A
:104C3000016E000EAE21036E01C0DAF3DB6F020ECF
:104C4000DA27000EDB23D9C319F4D8C318F4D7C36D
:104C500017F4D6C316F404011B6B020E1A6FDBC3E4
:104C60001DF4DAC31CF40001DCEC15F00150030163
:104C7000B1271A0EB225D66F000EB321D76F000EE2
:104C8000B421D86F000EB521D96F140EAD25016E79
:104C9000000EAE21036E01C0DAF3DB6FD9C319F445
:104CA000D8C318F4D7C317F4D6C316F404011B6B8A
:104CB000020E1A6F03C01DF401C01CF40001DCECED
:104CC00015F001500301B127B1530CE0190EAD25C9
:104CD000E96E000EAE21EA6EEF502009EF6EFF0E76
:104CE000016E34D2140EAD25016E000EAE21036E9E
:104CF00001C0D6F3D76F140EAD25E96E000EAE21BC
:104D0000EA6EEFCF26F4ECCF27F4ECCF28F4ECCF0B
:104D100029F4000140EC1AF0D7C3EAFFD6C3E9FF3B
:104D200000C0EFFF01C0ECFF02C0ECFF03C0ECFFCE
:104D3000080E0301AD25E96E000EAE21EA6EB2C386
:104D4000EFFFB3C3ECFFB4C3ECFFB5C3ECFF100E31
:104D5000AD25E96E000EAE21EA6EEFCF00F0ECCF8C
:104D600001F0ECCF02F0ECCF03F0AEC3EAFFADC32D
:104D7000E9FF00C0EFFF01C0ECFF02C0ECFF03C081
:104D8000ECFFAC512008D8A4B7D1180EAD25E96EC0
:104D9000000EAE21EA6EEF6A190EAD25E96E000E27
:104DA000AE21EA6EEFA27CD0100EAD25E96E000EAA
:104DB000AE21EA6EEE52EE52EC6AED52EF6AED521F
:104DC000EF6AED52EF6A000EAEC3EAFFADC3E9FF32
:104DD00000C0EFFFADC3ECFF02C0ECFFAEC3ECFFC1
:104DE000140EAD25E96E000EAE21EA6EEFCFD6F3BC
:104DF000ECCFD7F3ECCFD8F3ECCFD9F302011551B8
:104E00000301D95D3CE311E1020114510301D85DB6
:104E100036E30BE1020113510301D75D30E305E1F5
:104E2000020112510301D65D2AE3140EAD25E96E8D
:104E3000000EAE21EA6EEFCFF4F3ECCFF5F3ECCF3A
:104E4000F6F3ECCFF7F3000192EC19F003C0D9F3BD
:104E500002C0D8F301C0D7F300C0D6F303C0DDF31E
:104E600002C0DCF301C0DBF300C0DAF3B1EF1DF0E8
:104E70000150FF0805E1FF0E016E030167D100013B
:104E8000040E0301AD25E96E000EAE21EA6EEE526E
:104E9000EE52EC6AED52EF6AED52EF6AED52EF6AB4
:104EA000190EAD25E96E000EAE21EA6EEFA4C5D055
:104EB000100EAD25E96E000EAE21EA6EEFCFD6F3EF
:104EC000ECCFD7F3ECCFD8F3ECCFD9F3D65307E13F
:104ED000D75305E1D85303E1D953D8B4AED0100E5F
:104EE000AD25016E000EAE21036E01C0D6F3D76F63
:104EF000AEC3D9F3ADC3D8F3DB6F01C0DAF3000161
:104F000008EF23F001C0B1F3040E0301AD25E96EF3
:104F1000000EAE21EA6EEFCFD6F3ECCFD7F3ECCF95
:104F2000D8F3ECCFD9F31F0ED617D76BD86BD96B4C
:104F3000D6533AE1D75338E1D85336E1D95334E167
:104F4000040EAD25E96E000EAE21EA6EEFCFD6F36A
:104F5000ECCFD7F3ECCFD8F3ECCFD9F3200ED65F5C
:104F6000000ED75BD85BD95B1A0EAD25016E000E23
:104F7000AE21036E01C0DAF3DB6FD9C319F4D8C3D5
:104F800018F4D7C317F4D6C316F404011B6B200E14
:104F90001A6F03C01DF401C01CF40001DCEC15F015
:104FA00001500301B12749D0040EAD25E96E000E72
:104FB000AE21EA6EEFCFD6F3ECCFD7F3ECCFD8F338
:104FC000ECCFD9F3040EAD25E96E000EAE21EA6EEA
:104FD000EFCFDAF3ECCFDBF3ECCFDCF3ECCFDDF3A8
:104FE000DA511F0B006E016A026A036A0050D65F35
:104FF0000150D75B0250D85B0350D95B1A0EAD2528
:10500000016E000EAE21036E01C0DAF3DB6FD9C36F
:1050100019F4D8C318F4D7C317F4D6C316F404018F
:105020001B6B200E1A6F03C01DF401C01CF400019D
:10503000DCEC15F001500301B127190EAD25E96E26
:10504000000EAE21EA6EEFA048D0040EAD25016E31
:10505000000EAE21036E01C0D6F3D76F140EAD253E
:10506000E96E000EAE21EA6EEFCF00F0ECCF01F05A
:10507000ECCF02F0ECCF03F0D7C3EAFFD6C3E9FFD1
:1050800000C0EFFF01C0ECFF02C0ECFF03C0ECFF6B
:10509000040EAD25E96E000EAE21EA6EEFCF16F4D8
:1050A000ECCF17F4ECCF18F4ECCF19F41A0EAD25B1
:1050B000016E000EAE21036E01C0DAF3DB6F040156
:1050C0001B6B200E1A6F03C01DF401C01CF40001FD
:1050D000DCEC15F001C0B1F30301B1530CE0190E83
:1050E000AD25E96E000EAE21EA6EEF502009EF6E9D
:1050F000FF0E016E2BD008D0180EAD25E96E000E04
:10510000AE21EA6E010EEF6E000E016E1FD000019F
:10511000030E0301D76FB20ED66F000176D4015093
:10512000FF0805E1FF0E016E030110D0000103012D
:10513000B053D8A4ACD4190EAD25E96E000EAE2143
:10514000EA6EEF508009EF6EFF0E016E0001120053
:10515000010E03014D6FA86B4951E96E4A51EA6E89
:10516000EF50720A000105E0050A07E0160A09E09F
:105170000DD0010E0301876F0DD0020E0301876F62
:1051800009D0040E0301876F05D00001FF0E016EE8
:1051900014D10301010E4925E96E000E4A21EA6E81
:1051A000EF50620801E1878721C27DF320C27CF3C2
:1051B0001FC27BF31EC27AF37DC385F37CC384F3E5
:1051C0007BC383F37AC382F34D514725E96E000E0A
:1051D0004821EA6EEF520DE04D514725E96E000E71
:1051E0004821EA6EEF502F0801E1A82B010E4D2750
:1051F000EBD7010E4D6FA85362E0A96B4D514725C7
:10520000E96E000E4821EA6EEF502F0825E04D515F
:105210004725E96E000E4821EA6EEF5205E1FF0EC8
:10522000016E0001CAD00301036AA9514E0F016E3D
:10523000030E03224D514725E96E000E4821EA6E08
:10524000EFCFACF303C0EAFF01C0E9FFACC3EFFF4F
:10525000010E4D27A927D2D7010E4D27036AA95168
:105260004E0FE96E030E0320EA6EEF6A030EAB6F7A
:105270004E0EAA6F100EAC6F030EAE6F6E0EAD6FBA
:10528000000137EC25F0015216E00301878F4CC373
:1052900003F04BC3E9FF4CC3EAFF030EE26E6E0E50
:1052A000E16E3A0E016EE6CFEEFF012EFCD7FF0E47
:1052B000016E000182D0010E0301A85F9CD74D5101
:1052C0004725E96E000E4821EA6EEF5215E14CC306
:1052D00003F04BC3E9FF4CC3EAFF030EE26E6E0E10
:1052E000E16E3A0E016EE6CFEEFF012EFCD7000E06
:1052F000016E000162D00301A96B4D514725E96E93
:10530000000E4821EA6EEF5218E0036AA9514E0FD1
:10531000016E030E03224D514725E96E000E482110
:10532000EA6EEFCFACF303C0EAFF01C0E9FFACC304
:10533000EFFF010E4D27A927E0D7036AA9514E0FB1
:10534000E96E030E0320EA6EEF6A030EAB6F4E0E9A
:10535000AA6F200EAC6F030EAE6F6E0EAD6F000124
:1053600037EC25F0015216E00301878F4CC303F0A0
:105370004BC3E9FF4CC3EAFF030EE26E6E0EE16E13
:105380003A0E016EE6CFEEFF012EFCD7FF0E016E46
:10539000000113D04CC303F003014BC3E9FF4CC31E
:1053A000EAFF030EE26E6E0EE16E3A0E016EE6CF7C
:1053B000EEFF012EFCD7000E016E000102EF2AF075
:1053C000030EEA6E360EE96E0B0E016EF76A000EE2
:1053D00002EC00F00A000900F5CFEEFF012EFBD72A
:1053E000610E0301416F426B030E486F360E476F2B
:1053F000030E4A6F410E496F020E4C6F260E4B6F23
:105400000001A6D6015206E0420EF66E020EF76EBD
:10541000CAEC04F0120023C2EAFF22C2E9FF030132
:1054200048C3EFFFE92AD8B4EA2AEF6A0201222B27
:10543000D8B4232B0001120001503BC33DF3640E8E
:1054400003013E6F00015EEC03F000C03BF301502E
:10545000300E08E103013CA30FD03CB70DD03CB99E
:10546000200E04D003013C973C993C81012601C0E9
:1054700048F30001D0DF03013BC33DF30A0E3E6F4A
:1054800000015EEC03F000C03BF30150300E08E178
:1054900003013CB70AD03CA108D03CB9200E000162
:1054A000012601C048F3B7DF0301300E3B273BC3A1
:1054B00048F30001B0DF12000900F6CF3CF3F7CF4C
:1054C0003DF3F5CF48F3A7DF3CC3F6FF3DC3F7FF3D
:1054D00003013B2F01D002D00001EED700011200E2
:1054E000E9500301406F3F51426F1CE03EC355F34A
:1054F0003DC354F33CC353F33BC352F3596B586B56
:10550000200E576F820E566F0001ABEC06F003C001
:105510003EF302C03DF301C03CF300C03BF3030186
:10552000422FE4D73EC34BF33DC34AF33CC349F398
:105530003BC348F3000126EC07F003C03EF302C072
:105540003DF301C03CF300C03BF303013EAF0DD07F
:105550004007408B3B1F3C1F3D1F3E1F3B2BD8B4D9
:105560003C2BD8B43D2BD8B43E2B3B0E476F9A0E44
:10557000466FCA0E456F446B0A0E426F3F51D8B456
:10558000402BD882030EEA6E3B0EE96E3EC3FFF35A
:105590003DC3FEF33CC3FDF33BC3FCF347C303F43D
:1055A00046C302F445C301F444C300F4000147ECD0
:1055B00007F00150005213E103013F29425DD8A4D6
:1055C00002D000010CD040510DE00F0B425D01E014
:1055D00040E240BF3ED040BD05D0200E34D0200E6A
:1055E0000301401740AB0ED0409B3F51D8A4400769
:1055F0000050406F2D0E486F00010DDF0301405138
:10560000006E406B3F51425D0CE10050406F2E0E2A
:10561000486F000100DF03014051006E200E40176B
:10562000000E300E40AB0FD0409B3F51D8A4400736
:105630000050406F2D0E486F0001EDDE0301405118
:10564000006E406B300E002600C048F30001E3DE20
:105650000301D89247C3FFF346C3FEF345C3FDF3EE
:1056600044C3FCF30401036B026B016B0A0E006F71
:10567000000147EC07F003C047F302C046F301C046
:1056800045F300C044F30301422F7BD70001120011
:1056900003013F6B3F513B25E96E000E3C21EA6E52
:1056A000EF5219E03F513B25E96E000E3C21EA6EB6
:1056B000EFCFE4F33EC3E6F33DC3E5F3000198EC1E
:1056C00021F00150FF0803E1FF0E016E07D0010E2B
:1056D00003013F27DFD7000E016E00011200EF52D9
:1056E00010E0EACF37F3E9CF36F3EFCF45F328ECFC
:1056F00003F037C3EAFF36C3E9FFE92AD8B4EA2A40
:10570000EED712000D0E0301366F0A0E376F386B9D
:10571000030E3C6F360E3B6F020E3E6F260E3D6F42
:105720000001B6DF1200190E03013D25E96E000EDF
:105730003E21EA6EEFB208D0190E3D25E96E000E4B
:105740003E21EA6EEFA4B8D0040E3D25E96E000EAE
:105750003E21EA6EEFCF3FF3ECCF40F3ECCF41F3C5
:10576000ECCF42F31F0E3F17406B416B426B3F5330
:1057700048E1405346E1415344E1425342E1040EC3
:105780003D25E96E000E3E21EA6EEFCF3FF3ECCFF0
:1057900040F3ECCF41F3ECCF42F3200E3F5F000E1D
:1057A000405B415B425B1A0E3D25016E000E3E21BF
:1057B000036E01C043F3446F42C32DF441C32CF484
:1057C00040C32BF43FC32AF404012F6B200E2E6F2D
:1057D00003C031F401C030F4000130EC1DF001527F
:1057E0000EE0190E03013D25E96E000E3E21EA6E22
:1057F000EF504009EF6EFF0E016E60D0000157D0F0
:105800000301040E3D25E96E000E3E21EA6EEFCF46
:105810003FF3ECCF40F3ECCF41F3ECCF42F3040E77
:105820003D25E96E000E3E21EA6EEFCF43F3ECCF4B
:1058300044F3ECCF45F3ECCF46F343511F0B006E1E
:10584000016A026A036A00503F5F0150405B0250E8
:10585000415B0350425B1A0E3D25016E000E3E2156
:10586000036E01C043F3446F42C32DF441C32CF4D3
:1058700040C32BF43FC32AF404012F6B200E2E6F7C
:1058800003C031F401C030F4000130EC1DF00152CE
:105890000EE0190E03013D25E96E000E3E21EA6E71
:1058A000EF504009EF6EFF0E016E08D0000141EC91
:1058B00015F00150030102D0000E016E0001A4EFAB
:1058C0002DF00301386B190E3625E96E000E3721D5
:1058D000EA6EEFB208D0190E3625E96E000E3721B8
:1058E000EA6EEFA438D1080E3625E96E000E372196
:1058F000EA6EEFCF3DF3ECCF3EF3ECCF3FF3ECCFCE
:1059000040F31C0E3D27000E3E233F234023100E84
:105910003625016E000E3721036E01C041F3426F40
:1059200040C32DF43FC32CF43EC32BF43DC32AF4F3
:1059300004012F6B040E2E6F03C031F401C030F44C
:10594000000130EC1DF001520EE0190E0301362566
:10595000E96E000E3721EA6EEF504009EF6EFF0E40
:10596000016E40D10001080E03013625E96E000EDC
:105970003721EA6EEFCF3DF3ECCF3EF3ECCF3FF3B0
:10598000ECCF40F3140E3D27000E3E233F2340236F
:1059900040C319F43FC318F43EC317F43DC316F4D3
:1059A00004011B6B020E1A6F030E1D6F3B0E1C6F62
:1059B0000001DCEC15F0015003013827080E3625F4
:1059C000E96E000E3721EA6EEFCF3DF3ECCF3EF3E8
:1059D000ECCF3FF3ECCF40F31A0E3D27000E3E23F1
:1059E0003F23402340C319F43FC318F43EC317F4C8
:1059F0003DC316F404011B6B020E1A6F030E1D6FDC
:105A0000390E1C6F0001DCEC15F001500301382742
:105A100038530CE0190E3625E96E000E3721EA6E78
:105A2000EF502009EF6EFF0E016EDCD03953D8A481
:105A300085D03A53D8A482D03B53D8A47FD03C53CE
:105A4000D8A47CD0140E3625E96E000E3721EA6EFC
:105A5000EFCFF4F3ECCFF5F3ECCFF6F3ECCFF7F3B5
:105A6000000192EC19F003C03CF302C03BF301C00B
:105A70003AF300C039F3080E03013625E96E000E33
:105A80003721EA6EEFCF3DF3ECCF3EF3ECCF3FF39F
:105A9000ECCF40F3140E3D27000E3E233F2340235E
:105AA00040C32DF43FC32CF43EC32BF43DC32AF472
:105AB00004012F6B020E2E6F030E316F3B0E306F01
:105AC000000130EC1DF0015003013827080E362587
:105AD000E96E000E3721EA6EEFCF3DF3ECCF3EF3D7
