:10000000EEEF03F0EA6A8D0EE96EEF500DE0020E9E
:10001000016E006A002EFED7012EFBD7970E006EF0
:10002000002EFED7EF2EF3D71200080E016E00004F
:100030008990929000008D378992D8B09282D8A092
:100040009292928080A0FED7012EF1D70000899075
:1000500092900000928200000000928080A0FED763
:10006000016A000080B201808990929089929292F8
:100070001200080E8E6F00C08FF0928200009280F6
:1000800080A0FED780B2D88080A2D8900136000030
:10009000929089908E2FF1D79282000089928F5191
:1000A000D8A492920000928080A0FED70000899090
:1000B000929000008992929212008E0E006E8EC075
:1000C00001F08DC002F0036A015209E102C001F0A3
:1000D000026A080E005E015202E1006A08D0D89060
:1000E00001BE04D0023601360006F9D7019E120087
:1000F0009A51D8B471D0006E9E51D8B46DD00026FC
:1001000004E3810E002668E204D07F0E005E64E303
:1001100063E09BC0A2F09F51A21B9B8F9F8F9D51BC
:10012000A103F4CFA4F09C51A003F4CF03F0F3CFCC
:10013000A3F0A103F350A427F450A323000E03223D
:100140009D51A003F350A427F450A323000E026A8C
:10015000032202229B51A103F350A327F450032250
:10016000000E02229B51A003F3500326F4500222FA
:10017000000E016A01229D519F03F350A327F45002
:100180000322000E022201229C519F03F3500326FA
:10019000F4500222000E01229B519F03F3500226CD
:1001A000F4500122002A01BE05D0A33703360236DF
:1001B00001360006000EA3AF0AD0032A0222012254
:1001C000015005E1025003E1035001E1002AA2BF02
:1001D000018EA2AF019E04D0006A016A026A036A1E
:1001E0001200076A066A0B6A0A6A096A086A92823A
:1001F0000000928000008992929200008990929073
:10020000900E8D6F12DF010E8D6F0FDFD00E8D6F90
:100210000CDFC30E8D6F09DF92920000928080A0E8
:10022000FED7000000D00000928200009282000001
:100230009280000089929292000089909290900E94
:100240008D6FF3DE8D6BF1DE92920000928080A0C4
:10025000FED7000000D000009282000092820000D1
:100260009280000089929292000089909290910E63
:100270008D6FDBDE010E006EFCDE01C005F0010EAD
:10028000006EF7DE01C004F092920000928080A020
:10029000FED7000000D000009282000005C007F0E9
:1002A000066A04500612075075082CE303E1065055
:1002B0002F0828E307C08EF006C08DF0FEDE050E85
:1002C0009D6F790E9C6F440E9B6F720E9A6F03C0E8
:1002D000A1F002C0A0F001C09FF000C09EF008DFB6
:1002E00003C00BF002C00AF001C009F000C008F022
:1002F00008C000F009C001F00AC002F00BC003F012
:100300000DD00CD00B6A0A6A096A086A08C000F0AE
:1003100009C001F00AC002F00BC003F0FFEF03F0C8
:10032000076A066A0F6A0E6A0D6A0C6A92820000FA
:100330009280000089929292000089909290900E93
:100340008D6F73DE010E8D6F70DEE00E8D6F6DDED2
:10035000C30E8D6F6ADE92920000928080A0FED75D
:10036000000000D000009282000092820000928083
:10037000000089929292000089909290900E8D6F69
:1003800054DE8D6B52DE92920000928080A0FED7E8
:10039000000000D000009282000092820000928053
:1003A000000089929292000089909290910E8D6F38
:1003B0003CDE010E006E5DDE01C005F0010E006E38
:1003C00058DE01C004F092920000928080A0FED717
:1003D000000000D000009282000005C007F0066A0D
:1003E00004500612075075082CE303E106502F084D
:1003F00028E307C08EF006C08DF05FDE050E9D6F0E
:10040000790E9C6F440E9B6F720E9A6F03C0A1F021
:1004100002C0A0F001C09FF000C09EF069DE03C0E2
:100420000FF002C00EF001C00DF000C00CF00CC0C7
:1004300000F00DC001F00EC002F00FC003F00DD0AF
:100440000CD00F6A0E6A0D6A0C6A0CC000F00DC069
:1004500001F00EC002F00FC003F003EF04F08E0EA7
:10046000006E8D51005E8EC002F08FC001F0028ED2
:10047000005209E0D890025202E1015204E0023237
:100480000132002EF7D78EAF05D0011E021E012AC1
:10049000D8B4022A20EF04F092968996080E016ED5
:1004A00000D00000018E0ED0019E9A33D8B089860C
:1004B000D8A08996018C06D0019C012EF6D700D0D9
:1004C000000089863F0EE96EE92EFED7000001BECE
:1004D000EBD701BCF1D71200EACF95F0E9CF94F049
:1004E0008E39F009906F9027E20F916F320F936F62
:1004F0008E510F0B912791279327E90F926F922727
:1005000092278D390F0B9227932792379337931F9A
:1005100093378D510F0B93279037070E8F6F0A0E6D
:1005200092079327FDE391079227FDE39007912718
:10053000FDE38F079027FDE3EA6A8F0EE96E070E51
:100540009415949DE926000EEA22E950930803E1F0
:10055000EA5201E1948DEF50006E08E194BD06D09F
:1005600094B913D094B702D0200E03D094879499F5
:10057000300E0026EACF8EF0E9CF8DF000C09AF061
:100580008BDF8EC0EAFF8DC0E9FFEE5094ADDDD762
:100590002BEF04F09A51B6089A6F036A9BC09EF045
:1005A0009B8FD8909B339C339D33033202320132B0
:1005B00000329A2FF6D79EAF0BD0001E011E021EEE
:1005C000031E002AD8B4012AD8B4022AD8B4032AB8
:1005D00058EF03F0D8B203D0EA6AA20EE96E006ABF
:1005E000016A026A036AA26BA36BA46BA56BA1519B
:1005F000A0119F119E112CE0200EA66FD8909A3763
:100600009B379C379D37A237A337A437A537A15115
:10061000A55D08E1A051A45D05E19F51A35D02E144
:100620009E51A25D0FE39E51A25F9F51D8A09F3DB6
:10063000A35FA051D8A0A03DA45FA151D8A0A13D27
:10064000A55FD8800036013602360336A62FD6D7EE
:10065000A2C0EFFFA3C0ECFFA4C0ECFFA5C0ECFF5D
:100660001200E950926F9151946F19E090C09DF083
:100670008FC09CF08EC09BF08DC09AF0A16BA06BD8
:10068000200E9F6F820E9E6F33DD03C090F002C07C
:100690008FF001C08EF000C08DF0942FE7D790C08E
:1006A0009DF08FC09CF08EC09BF08DC09AF072D7E9
:1006B00003C090F002C08FF001C08EF000C08DF03A
:1006C00090AF0DD09207928B8D1F8E1F8F1F901FA2
:1006D0008D2BD8B48E2BD8B48F2BD8B4902B3B0E47
:1006E000996F9A0E986FCA0E976F966B0A0E946F59
:1006F0009151D8B4922BD882EA6A8D0EE96E90C0DF
:100700009DF08FC09CF08EC09BF08DC09AF099C078
:10071000A1F098C0A0F097C09FF096C09EF05ADF5D
:10072000015000520FE19129945D0CE092510CE0D0
:100730000F0B945D01E037E292BF35D092BD04D03B
:10074000200E2DD0200E921792AB0CD0929B91517F
:10075000D8A492070050926F2D0E9A6F9DDE925191
:10076000006E926B9151945D0AE10050926F2E0ED3
:100770009A6F92DE9251006E200E9217000E300E8C
:1007800092AB0DD0929B9151D8A492070050926FDA
:100790002D0E9A6F81DE9251006E926B300E002604
:1007A00000C09AF079DED89299C09DF098C09CF074
:1007B00097C09BF096C09AF0A16BA06B9F6B0A0E3E
:1007C0009E6F08DF03C099F002C098F001C097F057
:1007D00000C096F0942F8FD73BEF04F0F86AD09EBC
:1007E000700ED36ED35092968986C150C00B0F09FC
:1007F000C16E070EB46E0A0E8D6F04DCF2D40A0EC1
:100800008D6F00DC8DD50A0E8D6F02EC00F00BC0F1
:100810009DF00AC09CF009C09BF008C09AF0A16B43
:10082000D00EA06F4C0E9F6F8B0E9E6F61DC03C0CD
:1008300090F002C08FF001C08EF000C08DF00FD696
:1008400002C08CF001C08BF0100EE96E8CC08EF0EF
:100850008BC08DF041D6200E9A6F1EDEC90EE96E58
:100860000FC090F00EC08FF00DC08EF00CC08DF058
:10087000060E916FF6D60D0E9A6F0EDE0A0E9A6F67
:060880000BDEB9D70300F6
:020000040030CA
:0E00000027C83E1E008781000FC00FE00F4092
:00000001FF
;PIC18F2550
;CRC=A28A  CREATED="17-feb.-20 11:25"
