:100000001AEF04F054696D65206F7574210D0A00B4
:10001000436865636B73756D204572726F72210D55
:100020000A004E6F20726573706F6E736520667282
:100030006F6D207468652073656E736F720D0A00B2
:10004000EA6A220EE96EEF500DE0020E016E006AC0
:10005000002EFED7012EFBD7970E006E002EFED786
:10006000EF2EF3D7120092968996080E016E00D0FB
:100070000000018E12D0019E2DC002F00232D8B0D5
:100080008986D8A08996018C08D0019C012EF6D7CC
:1000900002C02DF000D00000898601BEECD701BC63
:1000A000F4D71200939A8A9A190E226EC9DF8A8AAF
:1000B000130E006E002EFED700D0938AC7EF01F01A
:1000C0001A0E006E002EFED7000081BA0CD0350E3D
:1000D000006E002EFED781AA06D0210E006E002EE3
:1000E000FED7010E016EC8EF01F0236A04A000D014
:1000F000216A215007083EE3226A81BA08D0222AE9
:100100002250640802E2048002D000D0F6D7130E19
:10011000006E002EFED700D081BA11D0070ED88015
:100120002154246E010E006E2450016E04E0D8901C
:100130000036012EFCD70050FF0A231619D0070EF7
:10014000D8802154246E010E006E2450016E04E00C
:10015000D8900036012EFCD70050231281AA08D077
:10016000222A2250640802E2048002D000D0F6D78E
:10017000212ABFD723C001F012000900F5520CE07C
:10018000F6CF21F0F7CF22F0F5CF2DF06CDF21C0B4
:10019000F6FF22C0F7FFF1D7120022502418800B7F
:1001A000266E22AE05D0211E221E212AD8B4222A74
:1001B00024AE05D0231E241E232AD8B4242A21507D
:1001C0002302F3CF01F0F4CF00F02402F350002615
:1001D00022502302F3500020026E26AE05D0011EED
:1001E000021E012AD8B4022A0BEF02F08E0E006E16
:1001F00022C001F021C002F0036A015209E102C0ED
:1002000001F0026A080E005E015202E1006A08D0A5
:10021000D89001BE04D0023601360006F9D7019EFF
:1002200012002150D8B4A5D02D6E2550D8B4A1D03D
:100230002D5E05E37F0E2D26D8B09BD006D0810E13
:100240002D5ED8A096D0D8B494D02DC000F0016A0D
:10025000026A036A2C6A22C02BF02B8E23C02AF07C
:1002600024C029F0190E2D6E2850295E0DE2010ED2
:100270002A5E0AE22B5E08E22C5E06E22C2A2B2A7A
:100280002A2A2850292628D027502A5E12E2010E59
:100290002B5E0FE22C5E0DE22C2A2B2A27502A26F9
:1002A0002850292619E32A2A17E12B2A15E12C2A9E
:1002B00013D0265080092B5E0EE2010E2C5E0BE25D
:1002C0002C2A265080092B2627502A26E9E32B2AA0
:1002D000E7E12C2AE5D703802D2E01D00BD0D89052
:1002E00029362A362B362C36D8900336023601367C
:1002F0002E36BAD72EA006D0D89001320232033261
:100300002E3202D0000635E02EBE1ED0D8902936FF
:100310002A362B362C362850295E07E2010E2A5E3B
:1003200004E22B5E02E22C5E1AE327502A5E05E20D
:10033000010E2B5E02E22C5E12E3265080092B5E3A
:1003400003E2010E2C5E0BE3032A09E1022A07E116
:10035000012A05E1002A0DE001320232033222C0F7
:100360002DF026502D1A2DAE02D0018E06D0019E02
:1003700004D0006A016A026A036A1200020E216E4A
:10038000FA0E226E5DDE212EFBD704908BD698D616
:100390000152D8B4ACD0A9DE01C007F0A6DE01C07E
:1003A00008F0A3DE01C005F0A0DE01C006F09DDE6E
:1003B00001C009F004A006D0040EF66E000EF76E20
:1003C000DCDE94D00850072405240624095CD8A458
:1003D00088D00D6A07C00CF00CC00DF0216A2150C6
:1003E00008100C6E0B6A05C00AF00AC00BF0216AF7
:1003F000215006100A6E0B507F0814E2FF0A03E139
:100400000A5000080FE20B9E0BC022F00AC021F038
:1004100024682368C2D602C003F001C00AF002C0FB
:100420000BF00DD00BC022F00AC021F0DFDE03C0BC
:1004300011F002C010F001C00FF000C00EF011C0AA
:1004400024F010C023F00FC022F00EC021F0286A63
:10045000276A200E266E820E256EE3DE03C011F0A1
:1004600002C010F001C00FF000C00EF00DC022F06D
:100470000CC021F0BBDE03C015F002C014F001C0B7
:1004800013F000C012F015C024F014C023F013C004
:1004900022F012C021F0286A276A200E266E820EF2
:1004A000256EBFDE03C015F002C014F001C013F0CA
:1004B00000C012F0205209E10EC000F00FC001F0A0
:1004C00010C002F011C003F017D0202C09D012C0C8
:1004D00000F013C001F014C002F015C003F00CD0FE
:1004E00005D0100EF66E000EF76E47DE05D0220E18
:1004F000F66E000EF76E41DE12002D50D8B471D0AA
:10050000006E3150D8B46DD0002604E3810E002671
:1005100068E204D07F0E005E64E363E02EC035F035
:100520003250351A2E8E328E30503402F4CF37F0DE
:100530002F503302F4CF03F0F3CF36F03402F350F0
:100540003726F4503622000E032230503302F35087
:100550003726F4503622000E026A032202222E5061
:100560003402F3503626F4500322000E02222E509D
:100570003302F3500326F4500222000E016A0122D6
:1005800030503202F3503626F4500322000E02227D
:1005900001222F503202F3500326F4500222000EA3
:1005A00001222E503202F3500226F4500122002A7A
:1005B00001BE05D036360336023601360006000E7F
:1005C00036AE0AD0032A02220122015005E1025070
:1005D00003E1035001E1002A35BE018E35AE019ED4
:1005E00004D0006A016A026A036A72EF03F02D50B8
:1005F000B6082D6E036A2EC031F02E8ED8902E32A2
:100600002F32303203320232013200322D2EF6D731
:1006100031AE0BD0001E011E021E031E002AD8B4EC
:10062000012AD8B4022AD8B4032A85EF03F0D8B23D
:1006300003D0EA6A350EE96E006A016A026A036A4B
:10064000356A366A376A386A3450331032103110DE
:100650002CE0200E396ED8902D362E362F363036BF
:1006600035363636373638363450385C08E1335054
:10067000375C05E13250365C02E13150355C0FE306
:100680003150355E3250D8A0323C365E3350D8A05F
:10069000333C375E3450D8A0343C385ED8800036C6
:1006A000013602360336392ED6D735C0EFFF36C0B5
:1006B000ECFF37C0ECFF38C0ECFF1200E950256EAC
:1006C0002450276E19E023C030F022C02FF021C043
:1006D0002EF020C02DF0346A336A200E326E820E66
:1006E000316E0BD703C023F002C022F001C021F00D
:1006F00000C020F0272EE7D723C030F022C02FF013
:1007000021C02EF020C02DF072D703C023F002C00C
:1007100022F001C021F000C020F023AE0DD025064C
:10072000258A201E211E221E231E202AD8B4212AFB
:10073000D8B4222AD8B4232A3B0E2C6E9A0E2B6EE4
:10074000CA0E2A6E296A0A0E276E2450D8B4252AAA
:10075000D882EA6A200EE96E23C030F022C02FF062
:1007600021C02EF020C02DF02CC034F02BC033F06F
:100770002AC032F029C031F05ADF015000520FE197
:100780002428275C0CE025500CE00F0B275C01E0CF
:1007900037E225BE35D025BC04D0200E2DD0200E4A
:1007A000251625AA0CD0259A2450D8A42506005039
:1007B000256E2D0E2D6E57DC2550006E256A2450B7
:1007C000275C0AE10050256E2E0E2D6E4CDC255064
:1007D000006E200E2516000E300E25AA0DD0259A8B
:1007E0002450D8A425060050256E2D0E2D6E3BDC1E
:1007F0002550006E256A300E002600C02DF033DC37
:10080000D8922CC030F02BC02FF02AC02EF029C077
:100810002DF0346A336A326A0A0E316E08DF03C083
:100820002CF002C02BF001C02AF000C029F0272EC6
:100830008FD71200F86AD09E700ED36ED350929666
:100840008986176A166AC150C00B0F09C16E070E60
:10085000B46E040E206EFA0E226E20EC00F0202EF4
:10086000FAD70D0E2D6E33EC00F00A0E2D6E33EC20
:1008700000F0206A83DD03C01BF002C01AF001C043
:1008800019F000C018F0C90EE96E1BC023F01AC0A1
:1008900022F019C021F018C020F0010E246E0EDFE6
:1008A000200E2D6E33EC00F0200E2D6E33EC00F098
:1008B000010E206E63DD03C01FF002C01EF001C0F8
:1008C0001DF000C01CF0C90EE96E1FC023F01EC051
:1008D00022F01DC021F01CC020F0010E246EEEDEBF
:1008E0000D0E2D6E33EC00F00A0E2D6E33EC00F081
:0408F000C0D703006A
:020000040030CA
:0E00000027C83E1E008781000FC00FE00F4092
:00000001FF
;PIC18F2550
;CRC=4718  CREATED="16-feb.-20 20:20"
