:10000000EFEF00F041540D0A000041542B434950DA
:1000100053544152543D256354435025632C25636A
:100020006170692E7468696E67737065616B2E63A9
:100030006F6D25632C38300D0A0041542B43495015
:100040004D4F44453D310D0A000041542B4349506A
:1000500053454E440D0A000047455420687474709F
:10006000733A2F2F6170692E7468696E67737065BB
:10007000616B2E636F6D2F7570646174653F617085
:10008000695F6B65793D533051313852594546525D
:1000900047594E474D47266669656C64313D257565
:1000A000266669656C64323D25750D0A00009296DE
:1000B0008996080E016E00D00000018E12D0019EBC
:1000C0000BC002F00232D8B08986D8A08996018C84
:1000D00008D0019C012EF6D702C00BF000D0000022
:1000E000898601BEECD701BCF4D712000900F55295
:1000F0000CE0F6CF08F0F7CF09F0F5CF0BF0D7DF23
:1001000008C0F6FF09C0F7FFF1D71200EA6A090E2E
:10011000E96EEF500DE0020E016E006A002EFED770
:10012000012EFBD7970E006E002EFED7EF2EF3D7D1
:1001300012000900F6CF09F0F7CF0AF0F5CF0BF067
:10014000B6DF09C0F6FF0AC0F7FF082EF2D712008B
:100150000B50016A0A5C03E20AC000F00CD0006A8E
:10016000080E0C6E0A3600360B50005CD8B0006EDC
:1001700001360C2EF7D71200015008C00AF0640EA9
:100180000B6EE6DF00C008F00150300E07E109A257
:100190000CD009B60AD009B8200E03D009960998E8
:1001A0000980012601C00BF082DF08C00AF00A0EA8
:1001B0000B6ECEDF00C008F00150300E06E109B62C
:1001C00008D009A006D009B8200E012601C00BF006
:1001D0006EDF300E082608C00BF069DF1200F86AE7
:1001E000D09E700ED36ED35092968986046A056AAB
:1001F000076A066AC150C00B0F09C16E070EB46EC4
:10020000040EF66E000EF76E71DF280E086EFA0E01
:10021000096E7CDF082EFBD70A0EF66E000EF76E15
:100220000C0E086E86DF220E0B6E41DF180EF66E86
:10023000000EF76E030E086E7CDF220E0B6E37DFAA
:100240002C0E0B6E34DF220E0B6E31DF200EF66E9D
:10025000000EF76E120E086E6CDF220E0B6E27DF9B
:10026000340EF66E000EF76E050E086E62DF040E99
:10027000086EFA0E096E4ADF082EFBD73A0EF66EAC
:10028000000EF76E33DF040E086EFA0E096E3EDFC5
:10029000082EFBD74A0EF66E000EF76E27DF040E0F
:1002A000086EFA0E096E32DF082EFBD7580EF66E76
:1002B000000EF76E460E086E3CDF04C008F01B0E01
:1002C000096E5ADFA00EF66E000EF76E080E086E6D
:1002D00030DF05C008F01B0E096E4EDF0D0E0B6EF1
:1002E000E6DE0A0E0B6EE3DE140E04260526500E23
:1002F000086EFA0E096E0ADF082EFBD7D7D7030067
:020000040030CA
:0E00000027C83E1E008781000FC00FE00F4092
:00000001FF
;PIC18F2550
;CRC=C850  CREATED="16-feb.-20 01:42"
