:1000000007EF0AF0545B635D3A20252E336720200A
:100010000A0D0000505B635D3A20252E33672020D7
:100020000A0D0A0D0000080E016E000089929292DE
:1000300000007C378990D8B09280D8A092909282AC
:1000400080A2FED7012EF1D7000089929292000083
:10005000928000000000928280A2FED7016A000018
:1000600080B0018089929292899092901200080E3D
:100070007D6F00C07EF092800000928280A2FED749
:1000800080B0D88080A0D8900136000092928992EA
:100090007D2FF1D79280000089907E51D8A4929054
:1000A0000000928280A2FED7000089929292000006
:1000B00089909290120092800000928200008990B4
:1000C0009290000089929292EE0E7C6FACDF75C028
:1000D0007CF0A9DF928000009282000080A2FED70F
:1000E00089909290000089929292EF0E7C6F9BDF34
:1000F000010E006EBCDF01C076F0006AB8DF01C0FF
:1001000077F092900000928280A2FED7000000D08B
:1001100000009280000076C079F077C078F078C057
:1001200001F079C002F012008E0E006E73C001F073
:1001300072C002F0036A73AF05D0011E021E022ACC
:1001400001E1012A015209E102C001F0026A080E30
:10015000005E015202E1006A0AD0D89001BE04D0CC
:10016000023601360006F9D773BF01D0019E120096
:100170008F51D8B471D0006E9351D8B46DD0002691
:1001800004E3810E002668E204D07F0E005E64E383
:1001900063E090C097F09451971B908F948F925189
:1001A0009603F4CF99F091519503F4CF03F0F3CF78
:1001B00098F09603F3509927F4509823000E0322E9
:1001C00092519503F3509927F4509823000E026A38
:1001D0000322022290519603F3509827F4500322F1
:1001E000000E022290519503F3500326F450022290
:1001F000000E016A012292519403F3509827F450A3
:100200000322000E0222012291519403F35003268F
:10021000F4500222000E012290519403F350022662
:10022000F4500122002A01BE05D098370336023669
:1002300001360006000E98AF0AD0032A02220122DE
:10024000015005E1025003E1035001E1002A97BF8C
:10025000018E97AF019E04D0006A016A026A036AA8
:1002600012008E0E006E7BC001F07AC002F0036AAD
:10027000015209E102C001F0026A080E005E01525B
:1002800002E1006A08D0D89001BE04D002360136DF
:100290000006F9D7019E12008F51D8B4A5D09B6FEC
:1002A0009351D8B4A1D09B5F05E37F0E9B27D8B0B4
:1002B0009BD006D0810E9B5FD8A096D0D8B494D0A6
:1002C0009BC000F0016A026A036A9A6B90C099F0C1
:1002D000998F91C098F092C097F0190E9B6F96512C
:1002E000975F0DE2010E985F0AE2995F08E29A5F5C
:1002F00006E29A2B992B982B9651972728D0955147
:10030000985F12E2010E995F0FE29A5F0DE29A2B5D
:10031000992B955198279651972719E3982B17E118
:10032000992B15E19A2B13D094518009995F0EE215
:10033000010E9A5F0BE29A2B9451800999279551EF
:100340009827E9E3992BE7E19A2BE5D703809B2FC8
:1003500001D00BD0D8909737983799379A37D890E3
:100360000336023601369C37BAD79CA106D0D89006
:100370000132023203329C3302D0000635E09CBFCA
:100380001ED0D8909737983799379A379651975FFC
:1003900007E2010E985F04E2995F02E29A5F1AE3B6
:1003A0009551985F05E2010E995F02E29A5F12E3B0
:1003B00094518009995F03E2010E9A5F0BE3032ACF
:1003C00009E1022A07E1012A05E1002A0DE00132D4
:1003D0000232033290C09BF094519B1B9BAF02D022
:1003E000018E06D0019E04D0006A016A026A036A87
:1003F0001200AA0E756F5FDE02C005F001C004F0A6
:10040000AC0E756F58DE02C007F001C006F0AE0EEC
:10041000756F51DE02C009F001C008F0B00E756FB3
:100420004ADE02C00BF001C00AF0B20E756F43DE67
:1004300002C00DF001C00CF0B40E756F3CDE02C0BE
:100440000FF001C00EF0B60E756F35DE02C011F070
:1004500001C010F0B80E756F2EDE02C013F001C09F
:1004600012F0BA0E756F27DE02C015F001C014F04D
:10047000BC0E756F20DE02C017F001C016F0BE0E74
:10048000756F19DE02C019F001C018F009C073F0D1
:1004900008C072F049DE926B916B200E906F770E60
:1004A0008F6F03C096F002C095F001C094F000C0B9
:1004B00093F05EDE03C01DF002C01CF001C01BF013
:1004C00000C01AF00BC07BF00AC07AF0CADE6F0ED3
:1004D000926F120E916F030E906F660E8F6F03C0B6
:1004E00096F002C095F001C094F000C093F040DE99
:1004F00003C021F002C020F001C01FF000C01EF0B8
:100500000DC07BF00CC07AF0ACDECD0E926FCC0E3D
:10051000916F4C0E906F680E8F6F03C096F002C003
:1005200095F001C094F000C093F022DE03C029F0E2
:1005300002C028F001C027F000C026F00FC07BF0F9
:100540000EC07AF08EDE03C02DF002C02CF001C088
:100550002BF000C02AF011C073F010C072F0E4DD7F
:10056000926B916B480E906F6F0E8F6F03C096F079
:1005700002C095F001C094F000C093F0F9DD03C013
:1005800025F002C024F001C023F000C022F017C003
:1005900073F016C072F0C8DD0A0E926FD70E916F1D
:1005A000230E906F7B0E8F6F03C096F002C095F004
:1005B00001C094F000C093F0DBDD03C031F002C055
:1005C00030F001C02FF000C02EF019C073F018C039
:1005D00072F0AADD03C075F002C074F001C073F0C0
:1005E00000C072F003C092F002C091F001C090F020
:1005F00000C08FF0966B956B200E946F860E936FF4
:100600004BDE03C035F002C034F001C033F000C04F
:1006100032F005C073F004C072F086DD03C039F01B
:1006200002C038F001C037F000C036F007C073F0E8
:1006300006C072F079DD926B916B200E906F790E8F
:100640008F6F03C096F002C095F001C094F000C017
:1006500093F08EDD03C03DF002C03CF001C03BF0E2
:1006600000C03AF013C073F012C072F05DDD926BFF
:10067000916B480E906F740E8F6F03C096F002C09E
:1006800095F001C094F000C093F072DD03C041F01A
:1006900002C040F001C03FF000C03EF021C092F027
:1006A00020C091F01FC090F01EC08FF0966B956B2C
:1006B000946B8E0E936F5CDD03C045F002C044F076
:1006C00001C043F000C042F021C092F020C091F080
:1006D0001FC090F01EC08FF01DC096F01CC095F09A
:1006E0001BC094F01AC093F043DD03C049F002C070
:1006F00048F001C047F000C046F021C092F020C091
:1007000091F01FC090F01EC08FF025C096F024C05D
:1007100095F023C094F022C093F02ADD03C04DF081
:1007200002C04CF001C04BF000C04AF0EC0E516E1C
:10073000510E506E170E4F6E800E4E6E330E556E6C
:10074000340E546E7E0E536E526E1A0E596E580E43
:10075000586E140E576E6D0E566E16EF0AF092809C
:1007600000009282000089909290000089929292FB
:10077000EE0E7C6F58DC7AC07CF055DC7BC07CF0E0
:1007800052DC92900000928280A2FED7000000D03E
:100790000000928000001200EA6A7A0EE96EEF50C3
:1007A0000DE0020E016E006A002EFED7012EFBD76F
:1007B000970E006E002EFED7EF2EF3D712008E0E8E
:1007C000006E7551005E76C002F077C001F0028EB7
:1007D000005209E0D890025202E1015204E00232D4
:1007E0000132002EF7D776AF05D0011E021E012A76
:1007F000D8B4022A19EF04F0F40E7A6F2E0E7B6F34
:10080000AEDF050E7A6FC8DFF60E756F54DC02C0DE
:1008100074F001C073F074C07BF073C07AF021DD16
:1008200003C078F002C077F001C076F000C075F028
:10083000C6D702501200800ED8B2941B996B9A6BE7
:1008400090C098F09451981B8F51D8B4DCD0976F1A
:10085000006E9351D8B4E0D0975FD8B481D03DE317
:1008600094C09DF09D8F95C09CF096C09BF09A6BB4
:10087000D8909D339C339B339A33972FF8D798AFFA
:1008800003D09981DDD0999197919989EA6A920E66
:10089000E96EE9D0999998BF0AD097A113D09D33FA
:1008A0009C339B339A33002AD8B4C5D00BD09DBF5C
:1008B0000CD0D8909A379B379C379D370006D8B418
:1008C000BAD0F5D7998D6BD0999D90C098F090AF24
:1008D00002D09D8FA9D09D9FA7D093C097F093C0C1
:1008E00000F08F51975F90C09DF09D8F91C09CF05C
:1008F00092C09BF09A6BD8909D339C339B339A3374
:10090000972FF8D798AF03D099839AD0999397915E
:10091000998BEA6A960EE96EA6D0999B98BF0AD089
:1009200097A113D09D339C339B339A33002AD8B4BC
:1009300082D00BD09DBF0CD0D8909A379B379C3774
:100940009D370006D8B477D0F5D7998F28D0999FD6
:1009500094C098F094AF02D09D8F66D09D9F64D0D4
:1009600094C09DF09D8F95C09CF096C09BF098AF71
:1009700004D09D9F998564D099959A6B9791EA6A66
:10098000920EE96E70D098BF1CD090C098F097A1DD
:1009900006D09D339C339B339A33002A4CE09AAFA8
:1009A0000BD09B2B09E19C2B07E19D2B05E19D338F
:1009B0009C339B33002A3FE099BD86D799BFC7D7A8
:1009C0001CD0800E9D1B9DAF04D03AD094C098F0EF
:1009D0000AD090C098F09D5306E19C5304E19B53CC
:1009E00002E1006A21D09DBF08D0D8909A379B378A
:1009F0009C379D37002EF7D71ED098AF02D09D8F21
:100A000013D09D9F11D093C000F094C09DF095C06D
:100A10009CF096C09BF008D08FC000F090C09DF075
:100A200091C09CF092C09BF09DC001F09CC002F070
:100A30009BC003F034D0006A016A026A036A2FD0B7
:100A40009A6B9B1F9C1F9D1F9A1F9A2B05E19B2B46
:100A500003E19C2B01E19D2B99B115D799B356D792
:100A600099B58AD7B3D7EF509B2705E39C2B03E1B9
:100A70009D2BD8B49781ED52EF509C2703E39D2B1B
:100A8000D8B49781ED52EF50EFBE01D0800A9D2778
:100A9000D8B0978199B9FED699BB3FD774D71200C9
:100AA000D8827AC092F079C091F078C090F077C087
:100AB0008FF02DC096F02CC095F02BC094F02AC07A
:100AC00093F0B9DE29C092F028C091F027C090F0D1
:100AD00026C08FF003C096F002C095F001C094F0DC
:100AE00000C093F0B8EC00F003C07EF002C07DF0CF
:100AF00001C07CF000C07BF0D8927EC092F07DC037
:100B000091F07CC090F07BC08FF035C096F034C07F
:100B100095F033C094F032C093F08DDE31C092F086
:100B200030C091F02FC090F02EC08FF003C096F02F
:100B300002C095F001C094F000C093F04CEC01F0BD
:100B4000D8927EC092F07DC091F07CC090F07BC0C6
:100B50008FF003C096F002C095F001C094F000C081
:100B600093F069DE03C082F002C081F001C080F022
:100B700000C07FF0D88282C092F081C091F080C026
:100B800090F07FC08FF0966B956B480E946F830E3C
:100B9000936F51DE03C05DF002C05CF001C05BF0FA
:100BA00000C05AF07FC000F080C001F081C002F0A8
:100BB00082C003F0120092800000928200008990AF
:100BC0009290000089929292EE0E7C6F13EC00F0EE
:100BD0007AC07CF013EC00F092800000928200005A
:100BE00080A2FED789909290000089929292EF0E97
:100BF0007C6F13EC00F0006A37EC00F001C07BF072
:100C000092900000928280A2FED7000000D00000E7
:100C1000928000007BC001F012007F51B6087F6F08
:100C2000036A80C083F0808FD89080338133823311
:100C300003320232013200327F2FF6D783AF0BD05E
:100C4000001E011E021E031E002AD8B4012AD8B4B9
:100C5000022AD8B4032A1200F40E7A6F7B6F7FDD6C
:100C60001A0E7A6F99DDF60E7A6FA5DF01C073F068
:100C7000F70E7A6FA0DF01C074F0F80E7A6F9BDF79
:100C800001C075F0036A73C07BF07A6B74517A27E8
:100C9000000E7B23036A7A25016E7B51032201C07B
:100CA0007AF003C07BF031EC01F003C079F002C0B0
:100CB00078F001C077F000C076F079C082F078C09B
:100CC00081F077C080F076C07FF0A7DF6DEF08F08D
:100CD000B60E006E036A026A016A735174117511CF
:100CE000761102E1006A0DD0D89001BE09D07337A9
:100CF000743775377637033602360136002EF4D74F
:100D0000019E76EF08F041C092F040C091F03FC0E4
:100D100090F03EC08FF05DC096F05CC095F05BC077
:100D200094F05AC093F0B8EC00F003C08EF002C00B
:100D30008DF001C08CF000C08BF003C092F002C0B7
:100D400091F001C090F000C08FF05DC096F05CC0E3
:100D500095F05BC094F05AC093F0B8EC00F003C07B
:100D60008EF002C08DF001C08CF000C08BF03DC051
:100D700092F03CC091F03BC090F03AC08FF05DC063
:100D800096F05CC095F05BC094F05AC093F0B8EC5C
:100D900000F0D8928EC092F08DC091F08CC090F08F
:100DA0008BC08FF003C096F002C095F001C094F0A4
:100DB00000C093F040DD03C08EF002C08DF001C092
:100DC0008CF000C08BF0D89203C092F002C091F07A
:100DD00001C090F000C08FF039C096F038C095F097
:100DE00037C094F036C093F026DD03C07EF002C019
:100DF0007DF001C07CF000C07BF04DC092F04CC093
:100E000091F04BC090F04AC08FF05DC096F05CC08E
:100E100095F05BC094F05AC093F0B8EC00F003C0BA
:100E20008EF002C08DF001C08CF000C08BF003C0CA
:100E300092F002C091F001C090F000C08FF05DC050
:100E400096F05CC095F05BC094F05AC093F0B8EC9B
:100E500000F003C08EF002C08DF001C08CF000C025
:100E60008BF049C092F048C091F047C090F046C066
:100E70008FF05DC096F05CC095F05BC094F05AC0F6
:100E800093F0B8EC00F0D8928EC092F08DC091F043
:100E90008CC090F08BC08FF003C096F002C095F02C
:100EA00001C094F000C093F0C6DC03C08EF002C015
:100EB0008DF001C08CF000C08BF0D89203C092F08E
:100EC00002C091F001C090F000C08FF045C096F0D4
:100ED00044C095F043C094F042C093F0ACDC03C032
:100EE00082F002C081F001C080F000C07FF0D882A3
:100EF0007AC092F079C091F078C090F077C08FF00E
:100F00007EC096F07DC095F07CC094F07BC093F0DD
:100F100092DC03C08EF002C08DF001C08CF000C0E6
:100F20008BF003C092F002C091F001C090F000C0BD
:100F30008FF082C096F081C095F080C094F07FC0A1
:100F400093F04CEC01F003C086F002C085F001C0C4
:100F500084F000C083F059C092F058C091F057C09F
:100F600090F056C08FF086C096F085C095F084C092
:100F700094F083C093F0B8EC00F003C08EF002C090
:100F80008DF001C08CF000C08BF003C092F002C065
:100F900091F001C090F000C08FF086C096F085C03F
:100FA00095F084C094F083C093F0B8EC00F003C0D7
:100FB0008EF002C08DF001C08CF000C08BF055C0E7
:100FC00092F054C091F053C090F052C08FF086C0A0
:100FD00096F085C095F084C094F083C093F0B8EC8F
:100FE00000F0D8928EC092F08DC091F08CC090F03D
:100FF0008BC08FF003C096F002C095F001C094F052
:1010000000C093F018DC03C08EF002C08DF001C068
:101010008CF000C08BF0D89203C092F002C091F027
:1010200001C090F000C08FF051C096F050C095F014
:101030004FC094F04EC093F01BEC04F003C08AF054
:1010400002C089F001C088F000C087F0D8928AC041
:1010500092F089C091F088C090F087C08FF0966BB5
:10106000956B400E946F7F0E936F1BEC04F003C0E2
:101070008AF002C089F001C088F000C087F087C004
:1010800000F088C001F089C002F08AC003F087EF49
:1010900008F0725321E0FCEC03F002C07BF001C0C9
:1010A0007AF031EC01F003C076F002C075F001C0B7
:1010B00074F000C073F003C07AF002C079F001C090
:1010C00078F000C077F0ECDC03C061F002C060F0A3
:1010D00001C05FF000C05EF0BFD503C076F002C073
:1010E00075F001C074F000C073F0F2D503C076F063
:1010F00002C075F001C074F000C073F003C07AF054
:1011000002C079F001C078F000C077F0FCD519EF8B
:101110000AF0FCEC03F002C07BF001C07AF031EC85
:1011200001F003C075F002C074F001C073F000C09C
:1011300072F003C07AF002C079F001C078F000C00C
:1011400077F0AEDC03C061F002C060F001C05FF078
:1011500000C05EF05EC000F05FC001F060C002F051
:1011600061C003F022EF0AF092968996080E016E94
:1011700000D00000018E12D0019E7FC002F002322A
:10118000D8B08986D8A08996018C08D0019C012E00
:10119000F6D702C07FF000D00000898601BEECD7F0
:1011A00001BCF4D712000900F6CF73F0F7CF74F04A
:1011B000F5CF7FF0D9DF73C0F6FF74C0F7FF722F51
:1011C000F2D71200D8B203D0EA6A870EE96E006A3D
:1011D000016A026A036A876B886B896B8A6B865126
:1011E0008511841183112CE0200E8B6FD8907F37EE
:1011F0008037813782378737883789378A378651F2
:101200008A5D08E18551895D05E18451885D02E1CF
:101210008351875D0FE38351875F8451D8A0843D5C
:10122000885F8551D8A0853D895F8651D8A0863DCD
:101230008A5FD88000360136023603368B2FD6D728
:1012400087C0EFFF88C0ECFF89C0ECFF8AC0ECFFCD
:101250001200E950776F7651796F1AE075C092F0FD
:1012600074C091F073C090F072C08FF0966B956B64
:10127000200E946F820E936FB8EC00F003C075F0EF
:1012800002C074F001C073F000C072F0792FE6D78D
:101290007E0E006E016A73BF018E026A036AD892E5
:1012A00075C092F074C091F073C090F072C08FF06E
:1012B00003C096F002C095F001C094F0936F1BEC50
:1012C00004F003C075F002C074F001C073F000C0F8
:1012D00072F075C082F074C081F073C080F072C08B
:1012E0007FF09BDC03C075F002C074F001C073F0A6
:1012F00000C072F075AF0DD07707778B721F731F28
:10130000741F751F722BD8B4732BD8B4742BD8B438
:10131000752B3B0E7E6F9A0E7D6FCA0E7C6F7B6BBA
:101320000A0E796F7651D8B4772BD882EA6A720E9A
:10133000E96E75C082F074C081F073C080F072C035
:101340007FF07EC086F07DC085F07CC084F07BC0DD
:1013500083F038DF015000520FE17629795D0CE00F
:1013600077510CE00F0B795D01E037E277BF35D0A4
:1013700077BD04D0200E2DD0200E771777AB0CD080
:10138000779B7651D8A477070050776F2D0E7F6F2B
:10139000EBDE7751006E776B7651795D0AE1005094
:1013A000776F2E0E7F6FE0DE7751006E200E77177D
:1013B000000E300E77AB0DD0779B7651D8A477070F
:1013C0000050776F2D0E7F6FCFDE7751006E776BF9
:1013D000300E002600C07FF0C7DED8927EC082F0BB
:1013E0007DC081F07CC080F07BC07FF0866B856B18
:1013F000846B0A0E836FE6DE03C07EF002C07DF0D0
:1014000001C07CF000C07BF0792F8FD71200F86A02
:10141000D09E700ED36ED35092968986C150C00B69
:101420000F09C16E070EB46EF9EF01F0010E726F75
:1014300030D603C065F002C064F001C063F000C0A4
:1014400062F067D603C069F002C068F001C067F0BF
:1014500000C066F0040EF66E000EF76E060E726F98
:10146000A2DE890EE96E69C075F068C074F067C0CD
:1014700073F066C072F0030E766FEBDE0E0EF66E42
:10148000000EF76E040E726F8EDE140EF66E000EF6
:10149000F76E060E726F87DE890EE96E65C075F015
:1014A00064C074F063C073F062C072F0030E766FB4
:1014B000D0DE1E0EF66E000EF76E060E726F73DE35
:1014C000020E726FFA0E7A6FCCEC03F0722FFAD71D
:0414D000ADD7030091
:020000040030CA
:0E00000027C83E1E008781000FC00FE00F4092
:00000001FF
;PIC18F2550
;CRC=8134  CREATED="15-feb.-20 13:39"
