:1000000003EF25F0F76A140FF66E000EF7220900D1
:10001000F55012002F4461746F732E7478740000D1
:100020000D0A2D2D25732D2D00000D0A0D0A2020FF
:1000300020202020202020000D0A0D0A2D2D4641D1
:10004000542053746174732D2D0D0A004669727328
:100050007420464154207374617274732061743A41
:10006000203078256C580D0A0000446174612053DB
:1000700074617274732041743A203078256C580D85
:100080000A00526F6F74204469726563746F7279ED
:100090002049732041743A203078256C580D0A00AD
:1000A00042797465732050657220436C7573746572
:1000B000723A203078256C580D0A00000D0A0D0A9E
:1000C0002D2D000020496E666F2D2D000D0A417404
:1000D00074726962757465733A203078255800002F
:1000E0000D0A437265617465643A20000D0A4D6F14
:1000F0006469666965643A2000000D0A5374617290
:1001000074696E6720636C75737465723A20256C30
:1001100058000D0A5374617274696E6720616464DB
:10012000726573733A20256C58000D0A53697A651D
:100130003A20256C752042797465730D0A000D0A0A
:100140000A496E697469616C697A65204641542078
:100150006C696272617279202E2E2E200000457229
:10016000726F7220696E697469616C697A696E6711
:1001700020464154206C696272617279210D0A0037
:10018000464154204C69627261727920696E6974CB
:1001900069616C697A6564202E2E2E20000043610F
:1001A000726420547970653A20004D4D43200D0A49
:1001B000000053445343200D0A0053444843200D8C
:1001C0000A0043726561746520274461746F732E61
:1001D000747874272066696C65202D2D2D3E2000D3
:1001E0004F4B200D0A006572726F72206372656159
:1001F00074696E672066696C65200D0A0000656C85
:10020000696D696E6174696E6720274461746F73EC
:100210002E747874272066696C65202D2D2D3E2064
:1002200000004F4B200D0A006572726F7220656CE2
:10023000696D696E6174696E672066696C65200D11
:100240000A0020206572726F72206F70656E696E91
:10025000672066696C65200D0A002020777269743A
:10026000696E67206572726F72200D0A0000202D82
:100270002D2D3E2077726974696E67206572726FEA
:1002800072200D0A00002020636C6F73696E672076
:100290006572726F72200D0A000052656164696EAA
:1002A0006720274461746F732E7478742720666901
:1002B0006C653A200D0A00000D0A0A00020EEA6E73
:1002C000890EE96EEF500DE0020E016E006A002EFD
:1002D000FED7012EFBD7970E006E002EFED7EF2E15
:1002E000F3D7120092968996080E016E00D0000096
:1002F000018E10D0019E020196330001D8B089868C
:10030000D8A08996018C06D0019C012EF4D700D08C
:10031000000089863F0EE96EE92EFED7000001BE7F
:10032000E9D701BCF1D712000900F5520CE0F6CF75
:1003300094F2F7CF95F2F5CF96F2D4DF94C2F6FFA0
:1003400095C2F7FFF1D712008B801200C9500FC47D
:10035000C9FFC730FEE3C9CF01F012008B90120035
:100360000401156B126B1151125D1DE20FC4E9FF00
:1003700010C4EAFFEFCF14F4136B135107080CE31A
:10038000D890153714511519800B02E0090E151B72
:10039000D8901437132BF1D7159F1251122B0F2B16
:1003A000D8B4102BE0D7D880153715C401F0000160
:1003B000F2EF01F0040104514009096F08C40AF486
:1003C00007C40BF406C40CF405C40DF4020104A127
:1003D0000DD0040E0401106F090E0F6F050E116F82
:1003E0000001BED701C00EF404D0020104010E6961
:1003F000000109C40FF4AADF0AC40FF4A7DF0BC47D
:100400000FF4A4DF0CC40FF4A1DF0DC40FF49EDFC2
:100410000EC40FF49BDF000E016E12000401046B8A
:10042000056905530EE00F69000190DF01C004F477
:100430000401043D01D003D004C401F004D0050739
:10044000F0D7800E016E000112000401046B086BEE
:10045000076B066B056B0001ADDFE0DF015012009A
:10046000010E0401046F086B076B066B056B00013E
:10047000A1DFD4DF0150ADEF03F0040E02018D25A2
:10048000016E000E8E21036E01C090F2916F00018B
:10049000C5DF91C2EAFF90C2E9FF01C0EFFF020190
:1004A0008F6B8F51030818E3030ED8808F558D256D
:1004B000016E000E8E21036E01C090F2916F040157
:1004C0000F69000143DF91C2EAFF90C2E9FF01C05A
:1004D000EFFF02018F2BE5D7040E8D25E96E000E8C
:1004E0008E21EA6EEFCF01F000011200080E040128
:1004F000046F086B076B010E066FAA0E056F0001F3
:1005000059DF8AC28EF289C28DF2B7DF0150CEEF79
:1005100003F0370E0401046F086B076B066B056B65
:10052000000148DF7BDF0150DCEF03F0290E0401FE
:10053000046F400E086F076B066B056B00013ADF16
:100540006DDF0150DFEF03F08CC28EF28BC28DF2B3
:1005500094DF0150BAEF02F03A0E0401046F086B09
:10056000076B066B056B000125DF8AC28CF289C21E
:100570008BF2EAD7015002EF04F0100E0401046F71
:100580008CC208F48BC207F48AC206F489C205F44F
:10059000000110DF43DF015019EF04F03B0E0401AE
:1005A000046F086B076B066B89C205F4000102DF5C
:1005B0000201049189B10481000130DF01502FEF65
:1005C00004F0110E0401046F03C408F402C407F41C
:1005D00001C406F400C405F40001ECDE1FDF015085
:1005E0000BEF03F01BDF01C001F404010051015DBA
:1005F00003E1000E016E02D001C401F000011BEF07
:1006000003F0ACDEF8C303F4F7C302F4F6C301F45D
:10061000F5C300F4D6D701C0FDF30301FD5306E096
:10062000000192DE0301FDC301F03ED0FE0E040185
:10063000006F0001D7D701C0FDF30301FD5306E0B1
:10064000000182DE0301FDC301F02ED0FF6BFE6BC3
:10065000FF51FA5D1DE303E1F951FE5D19E2FB5123
:10066000FE25016EFC51FF21036E01C000F4040160
:10067000016F0F6900016ADE01C4EAFF00C4E9FFEF
:1006800001C0EFFF010E0301FE27000EFF23E0D79C
:1006900004010F6900015ADE04010F69000156DEF2
:1006A00053DE000E016E030100016AEF03F0020148
:1006B000049308C2F8F307C2F7F306C2F6F305C2C3
:1006C000F5F3020E0301FA6FF96BFC6B040EFB6F7E
:1006D000000197D70150120002010481086B076BDB
:1006E000066B056B9490C69A93809392320EC66EF9
:1006F000000EC76E000128DEFA0E0201896F0001AC
:10070000DDDD0201836B8351090807E304010F69F2
:1007100000011CDE0201832BF6D7836B010E896F6B
:100720000001CCDD1BDE91DE01C084F20DDE020192
:10073000832B833D09D0845304E1010E016E98D0D0
:1007400003D084C201F094D0842DE8D7836B010ECE
:10075000896F0001B3DD02DE83D601C084F2F4DDCF
:100760000201832B84A102D0833DF1D7833D20D0A9
:10077000640E896F0001A2DDF1DD67DE01C084F245
:10078000E3DD640E0201896F000198DDE7DD020EF2
:1007900002018A6F850E896F0001A8D601C084F21C
:1007A000D3DD0201842D01D003D084C201F060D0DA
:1007B000836B0001D3DDADD601C084F2B7D601C092
:1007C00084F2C2DD640E0201896F000177DD02014F
:1007D000832B842D02D0833DECD7842D03D084C29B
:1007E00001F046D08451040802E1096B18D0010ED3
:1007F000096F0001B3DD020E02018A6F850E896F59
:100800000001AAD601C084F29FDD020184510408D0
:1008100006E088C284F284AD02D0020E096F0001A6
:100820009DDD02018C6B8B6B020E8A6F896B000160
:10083000A4D601C084F288DD0201845303E084C29F
:1008400001F016D0C69A93809392300EC66E000EB9
:10085000C76E000183DD0201896B00019FD601C0D4
:1008600084F272DD24DF01C084F2000E016E020109
:100870000001C8EF05F0180E0401046F03C408F46A
:1008800002C407F401C406F400C405F4000192DDBB
:10089000C5DD015056EF04F061DDF8C303F4F7C382
:1008A00002F4F6C301F4F5C300F4E5D701C0FDF38B
:1008B0000301FD5306E0000147DD0301FDC301F024
:1008C00041D0FE0E04010F6F000140DD0301FF6BFC
:1008D000FE6BFF51FA5D14E303E1F951FE5D10E296
:1008E000FB51FE25E96EFC51FF21EA6EEFCF0FF4BC
:1008F00000012CDD010E0301FE27000EFF23E9D7C6
:1009000004010F69000122DD04010F6900011EDDF1
:1009100085DD01C0FDF30301FD510A0B06E0000176
:1009200013DD0301FDC301F00DD004010F690001C7
:100930000DDD0152D8A402D00301F7D705DD000E6A
:10094000016E03010001BAEF04F0020104A315D007
:10095000049308C2F8F307C2F7F306C2F6F305C220
:10096000F5F3020E0301FA6FF96BFC6B040EFB6FDB
:10097000000192D7015004D00201000E016E000167
:1009800012000301F06B0201095102080BE1D8903B
:100990000301F46BEF31F36FEE31F26FED31F16F74
:1009A00013D002010301ED51010B016E026A036ACB
:1009B000EC51EC5DF16F0150ED59F26F0250EE59C0
:1009C000F36F0350EF59F46FF1510201055D0FE130
:1009D0000301F2510201065D0AE10301F351020134
:1009E000075D05E10301F4510201085D1BE004A36A
:1009F0000CD00001AADF01C0F0F30301F05303E0C3
:100A0000F0C301F012D002010493F4C308F2F3C35F
:100A100007F2F2C306F2F1C305F2000148DE01C09D
:100A2000F0F302010301F0C301F000011200D1C391
:100A3000EFF3D0C3EEF3CFC3EDF3CEC3ECF3A1DFFE
:100A400001C0D4F30301D45303E0D4C301F015D0A3
:100A5000CF51010BD86FD96BDA6B040ECE25E96E3E
:100A6000000ED821EA6EEFCFDBF3D3C3EAFFD2C387
:100A7000E9FFDBC3EFFF000E016E000174EF05F02C
:100A80000301C76BC66BC751C25D3AE303E1C151B5
:100A9000C65D36E2C0C3D1F3BFC302F0BEC301F0EE
:100AA000BDC300F0010EBD27D8B0BE2BD8B4BF2BFC
:100AB000D8B4C02B02C0CAF301C0C9F300C0C8F348
:100AC000C4C303F0C351C32BD8B4C42BCC6F03C031
:100AD000CDF302C0D0F301C0CFF300C0CEF303C00A
:100AE000D3F3D26F0001A3D701C0C5F30301C553EF
:100AF00003E0C5C301F006D0C62BD8B4C72BC3D7BB
:100B0000000E016E00011200020183518503F3CF34
:100B100001F0F4CF00F08603F350002684518503E2
:100B2000F3500020026E00015DEF07F00301E26B5D
:100B3000E36B010EE46FDA6AD96A030EE76FDA0E2F
:100B4000E66F030EEA6EDE0EE96EE7C3E2FFE6C370
:100B5000E1FFE4C3E5F3D890E550EE02F350E22361
:100B6000F450E323E52FF7D7E2C3DEFFE3C3E2F35C
:100B7000E36BD8B0E32BE62BD8B4E72BE42BE4519E
:100B80000508DFE1000112000201616B0001A4D53C
:100B9000015203E0FF0E016E0BD20301C06BBF6B6D
:100BA000010EBE6FBE0EBD6FC26B010EC16F020E95
:100BB000C46F760EC36F000163DF0150020161272D
:100BC0000301C06BBF6B010EBE6FC60EBD6FC26B63
:100BD000040EC16F020EC46F7F0EC36F000150DFA1
:100BE0000150020161270301C06BBF6B010EBE6F94
:100BF000CA0EBD6FC26B040EC16F020EC46F7B0EB6
:100C0000C36F00013DDF01500201612776517F0B68
:100C100011E17E5307E17D5305E17C5303E17B51F4
:100C2000630808E27F530BE1805309E1815307E138
:100C3000825305E17A6B796B786B776B08D0D8902B
:100C4000776B7F35786F8035796F81357A6F0B0ED2
:100C50007725836F000E7821846F000E7921856FD0
:100C6000000E7A21866FE8CFC0F385C2BFF384C23D
:100C7000BEF383C2BDF30301C26B020EC16FC46F2A
:100C8000640EC36F0001FCDE0150020161270D0EEE
:100C90007725836F000E7821846F000E7921856F90
:100CA000000E7A21866FE8CFC0F385C2BFF384C2FD
:100CB000BEF383C2BDF30301C26B010EC16F020E0E
:100CC000C46F630EC36F0001DBDE015002016127B8
:100CD0000E0E7725836F000E7821846F000E792128
:100CE000856F000E7A21866FE8CFC0F385C2BFF30F
:100CF00084C2BEF383C2BDF30301C26B020EC16F97
:100D0000C46F660EC36F0001BBDE01500201612794
:100D1000100E7725836F000E7821846F000E7921E5
:100D2000856F000E7A21866FE8CFC0F385C2BFF3CE
:100D300084C2BEF383C2BDF30301C26B010EC16F57
:100D4000020EC46F620EC36F00019ADE01500201F1
:100D50006127130E7725836F000E7821846F000EB4
:100D60007921856F000E7A21866FE8CFC0F385C2A6
:100D7000BFF384C2BEF383C2BDF30301C26B020E94
:100D8000C16FC46F680EC36F00017ADE01500201AB
:100D90006127240E7725836F000E7821846F000E63
:100DA0007921856F000E7A21866FE8CFC0F385C266
:100DB000BFF384C2BEF383C2BDF30301C26B040E52
:100DC000C16F020EC46F720EC36F000159DE015075
:100DD000020161271C0E7725836F000E7821846F36
:100DE000000E7921856F000E7A21866FE8CFC0F35F
:100DF00085C2BFF384C2BEF383C2BDF30301C26BDD
:100E0000040EC16F020EC46F6A0EC36F000138DE9C
:100E1000015002016127200E7725836F000E782193
:100E2000846F000E7921856F000E7A21866FE8CFDE
:100E3000C0F385C2BFF384C2BEF383C2BDF3030116
:100E4000C26B040EC16F020EC46F6E0EC36F000141
:100E500017DE015002016127EC0E7725836F030E28
:100E60007821846F000E7921856F000E7A21866FBC
:100E7000E8CFC0F385C2BFF384C2BEF383C2BDF323
:100E80000301C26B040EC16F020EC46F1A0EC36F52
:100E90000001F6DD015002016127615305E0FF0EFC
:100EA000016E000185D00201846B63C283F265C2CA
:100EB00086F264C285F2000127D602C00DF201C09D
:100EC0000CF264C200F065C201F0026A036A03C05A
:100ED00086F202C085F265C284F264C283F275C2F2
:100EE000DDF374C2DCF373C2DBF372C2DAF303C066
:100EF000E1F302C0E0F365C2DFF364C2DEF316DEA5
:100F000003C019F202C018F201C017F200C016F2B5
:100F10000201866B856B67C284F266C283F286C269
:100F2000DDF385C2DCF367C2DBF366C2DAF30301EB
:100F3000E16BE06B65C2DFF364C2DEF30001F6DD56
:100F40000050020177250E6F015078210F6F02507B
:100F50007921106F03507A21116F0301DD6BDC6B77
:100F6000DB6B62C2DAF319C2E1F318C2E0F317C215
:100F7000DFF316C2DEF30001D9DD005002010E25B9
:100F80001E6F01500F211F6F02501021206F035060
:100F90001121216F0C511E25126F0D511F21136F4E
:100FA000000E2021146F000E2121156F000E016E1E
:100FB0000001E8EF07F03E0EF66E010EF76E94ECBE
:100FC00001F0640E0201896F00015EEC01F0DCD5D6
:100FD00001C024F2020124530AE05E0EF66E010EF7
:100FE000F76E000194EC01F0FFD738D00201800EBB
:100FF000F66E010EF76E000194EC01F0640E020132
:10100000896F00015EEC01F09E0EF66E010EF76E28
:1010100094EC01F002010951000A000105E0010A07
:101020000AE0030A0FE01AD0AA0EF66E010EF76E60
:1010300094EC01F013D0B20EF66E010EF76E94EC44
:1010400001F00CD0BA0EF66E010EF76E94EC01F0C2
:10105000640E0201896F00015EEC01F01DEF25F0C6
:101060009BC39DF39AC39CF39DC303F003019CC3F0
:10107000E9FF9DC3EAFFEF5206E09C2BD8B49D2BFD
:101080000001F2D703019A519C5D006E9B519D595E
:10109000036E00C001F0026E000112000301996BA3
:1010A000986B98510A083BE3985190259A6F000E6F
:1010B00091219B6F000E92219C6F000E93219D6FDA
:1010C000C06F9CC3BFF39BC3BEF39AC3BDF3C26B97
:1010D000010EC16F030EC46F970EC36F0001D0DC09
:1010E000015203E0FF0E016E72D0030197512008F8
:1010F00013E099519425E96E000E9521EA6E9751FF
:10110000400806E297515A0803E39751200901D09D
:101110009751EF6E010E9927010E9827C2D799516A
:101120009425E96E000E9521EA6EEF6A965110083B
:1011300044E095C39BF394C39AF3000191DF02C08E
:101140009BF301C09AF303019B5303E19A510308F7
:1011500034E295C39BF394C39AF3000181DF01C08D
:1011600099F399C398F3030E0301995D985D1DE00F
:101170001CE398519425016E000E9521036E01C069
:101180009AF39B6F010E985D9425E96E000E9521F0
:10119000EA6EEFCF9CF303C0EAFF01C0E9FF9CC3F6
:1011A000EFFF98070001DFD7030198519425E96EFE
:1011B000000E9521EA6E2E0EEF6E010E99259425F4
:1011C000E96E000E9521EA6EEF6A000E016E0001D5
:1011D000A2EF0BF0D8B204D0030EEA6EB00EE96EA7
:1011E000006A016A026A036A0301B06BB16BB26BF9
:1011F000B36BAF51AE11AD11AC112CE0200EB46F3A
:10120000D890A837A937AA37AB37B037B137B2373C
:10121000B337AF51B35D08E1AE51B25D05E1AD51F9
:10122000B15D02E1AC51B05D0FE3AC51B05FAD51C7
:10123000D8A0AD3DB15FAE51D8A0AE3DB25FAF51C9
:10124000D8A0AF3DB35FD8800036013602360336F2
:10125000B42FD6D7B0C3EFFFB1C3ECFFB2C3ECFFDE
:10126000B3C3ECFF0001120002011E510301A05D97
:10127000A46F02011F510301A159A56F0201205162
:101280000301A259A66F020121510301A359A76FBF
:10129000D892AB6FA6C3AAF3A5C3A9F3A4C3A8F3BE
:1012A000AF6BAE6B0DC2ADF30CC2ACF3000192DFBD
:1012B00003C0A7F302C0A6F301C0A5F300C0A4F3C6
:1012C000020E03010024006E000E0120016E000ECC
:1012D0000220026E000E0320036E000112000301C3
:1012E000A16BA06B9F6B010E9E6FA56BA46BA36B94
:1012F000A26B9CC3E9FF9DC3EAFFEFCF00F0ECCFE8
:1013000001F0ECCF02F0ECCF03F00050A25D09E158
:101310000150A35D06E10250A45D03E10350A55D09
:101320003DE0010E9E27000E9F23A023A1239E35A2
:10133000A76F9F35A86FA035A96FA135AA6FA737F2
:10134000A837A937AA37FC0EA71702010E510301CF
:10135000A72702010F510301A82302011051030125
:10136000A923020111510301AA23AAC3C0F3A9C3EF
:10137000BFF3A8C3BEF3A7C3BDF3C26B040EC16F16
:10138000030EC46FA20EC36F000140EC05F00152C2
:1013900003E0FF0E016E10D00301ABD79CC3E9FF41
:1013A0009DC3EAFF9EC3EFFF9FC3ECFFA0C3ECFF0A
:1013B000A1C3ECFF000E016E0001D3EF0AF0020E94
:1013C0000301D25D006E000ED359016E000ED45998
:1013D000026E000ED559036ED96F02C0D8F301C05A
:1013E000D7F300C0D6F3DD6BDC6B0DC2DBF30CC2B0
:1013F000DAF3E16F02C0E0F301C0DFF300C0DEF317
:10140000000196EC05F002011E5100261F51012239
:1014100020510222215103220001120097C303F040
:10142000030196C3E9FF97C3EAFFEFCF9CF3ECCF2C
:101430009DF3ECCF9EF3ECCF9FF39F510201215D12
:1014400015E311E103019E510201205D0FE30BE161
:1014500003019D5102011F5D09E305E103019C5158
:1014600002011E5D03E3000E016EF8D097C303F086
:1014700096C3E9FF97C3EAFFEFCF9CF3ECCF9DF350
:10148000ECCF9EF3ECCF9FF30201125103019C5F5E
:101490000201135103019D5B0201145103019E5B84
:1014A0000201155103019F5BEACFA1F3E9CFA0F33D
:1014B000D882030EEA6EA20EE96E9FC3ABF39EC301
:1014C000AAF39DC3A9F39CC3A8F3AF6BAE6B0DC287
:1014D000ADF30CC2ACF300017DDEA2C300F0A3C3E8
:1014E00001F0A4C302F0A5C303F0A1C3EAFFA0C3A7
:1014F000E9FFA5C39FF3A4C39EF3A3C39DF3A2C3B7
:101500009CF303019C53D8A48DD09D53D8A48AD0BA
:101510009E53D8A487D09F53D8A484D097C303F0F8
:1015200096C3E9FF97C3EAFFEFCF9CF3ECCF9DF39F
:10153000ECCF9EF3ECCF9FF30201155103019F5DA9
:10154000D8A070D011E10201145103019E5D6AE33D
:101550000BE10201135103019D5D64E305E102010A
:10156000125103019C5D5EE397C303F096C3E9FF4C
:1015700097C3EAFFEFCFA0F3ECCFA1F3ECCFA2F338
:10158000ECCFA3F3000170DE03C09BF302C09AF31B
:1015900001C099F300C098F3030E03019D6F980EEC
:1015A0009C6F00019CD60150FF0805E1FF0E016E03
:1015B000020154D0000197C303F096C39CF397C374
:1015C0009DF39BC3D5F39AC3D4F399C3D3F398C3C4
:1015D000D2F30001F4DE03C0A1F302C0A0F301C006
:1015E0009FF300C09EF3010E02010C5D006E000E21
:1015F0000D59036E005003019E25006E035001201B
:10160000016E000E0220026E000EA1219DC3EAFFB2
:101610009CC3E9FF00C0EFFF01C0ECFF02C0ECFF7C
:10162000EC6E19D096C3E9FF97C3EAFF010EEF5C99
:10163000006E000EEC58016E000EEC58026E000EAB
:10164000EC58ED52ED52ED5200C0EFFF01C0ECFF3F
:1016500002C0ECFFEC6E000E016E020100014AEFC9
:101660000BF0030190C3E9FF91C3EAFFEFCF92F3C0
:10167000ECCF93F3ECCF94F3ECCF95F31F0E925F86
:10168000000E935B945B955B030E976F920E966FC3
:101690000001C4D60150FF0803E1FF0E016E0FD018
:1016A000030190C3E9FF91C3EAFF92C3EFFF93C325
:1016B000ECFF94C3ECFF95C3ECFF000E016E00013C
:1016C000B2EF0BF00301896B85C38FF384C38EF3F4
:1016D00083C38DF382C38CF3150E8C5D906F000E67
:1016E0008D59916F000E8E59926F000E8F59936F26
:1016F000C06F92C3BFF391C3BEF390C3BDF3C26B7F
:10170000010EC16F030EC46F8B0EC36F000140EC5E
:1017100005F0015203E0FF0E016E90D003018B51E2
:101720000F081AE08FC393F38EC392F38DC391F326
:101730008CC390F387C395F386C394F38BC396F35E
:101740000001ACD40150FF0803E1FF0E016E76D01A
:10175000000E016E73D00301030E916F8C0E906F1B
:1017600000017FD70150FF0803E1FF0E016E66D034
:10177000010E0301886F88511F083DE388510B0853
:1017800003E10E0E886F05D088511A0802E11C0E85
:10179000886F88518C25906F000E8D21916F000EFF
:1017A0008E21926F000E8F21936F89518625016ED5
:1017B000000E8721036E01C094F3956F93C3C0F3AD
:1017C00092C3BFF391C3BEF390C3BDF3C26B010ECE
:1017D000C16F03C0C4F301C0C3F3000140EC05F0C6
:1017E000015203E0FF0E016E29D0020E030188278B
:1017F000010E8927C0D78FC3C0F38EC3BFF38DC33B
:10180000BEF38CC3BDF3C26B010EC16F030EC46F78
:101810008A0EC36F000140EC05F0015203E0FF0E99
:10182000016E0CD003018AAD97D789518625E96EE8
:10183000000E8721EA6EEF6A000E016E000127EFAD
:1018400015F0030182C3E9FF83C3EAFFEFCF86F3FC
:1018500085C303F084C3E9FF85C3EAFFEF50865DCB
:1018600015E183C303F082C3E9FF03C0EAFFEF522F
:1018700003E1000E016E1FD083C303F08251822B5F
:10188000D8B4832B842BD8B4852BDCD783C303F047
:1018900082C3E9FF83C3EAFFEFCF86F385C303F07A
:1018A00084C3E9FF85C3EAFFEF50865D02E2FF0EC5
:1018B00001D0010E016E000112009CC303F0030170
:1018C0009BC3E9FF9CC3EAFFEFCF9DF3ECCF9EF3F0
:1018D000ECCF9FF3ECCFA0F39D379E379F37A03717
:1018E0009D379E379F37A037FC0E9D1702010E5182
:1018F00003019D2702010F5103019E230201105194
:1019000003019F23020111510301A023A0C3C0F3CF
:101910009FC3BFF39EC3BEF39DC3BDF3C26B040E52
:10192000C16F9CC3C4F39BC3C3F3000140EC05F03B
:10193000015203E0FF0E016E02D0000E016E120094
:10194000E9C3EFF3E8C3EEF3E7C3EDF3E6C3ECF36B
:10195000C1EC04F001C0EBF30301EB5303E0EBC374
:1019600001F012D0E751010BED6FEE6BEF6B040E3F
:10197000E625E96E000EED21EA6EEAC3EFFF0201F3
:101980000483000E016E03010001FAEF0CF0030165
:10199000E06BDF6BE051DB5D39E303E1DA51DF5DE2
:1019A00035E2D9C3E9F3D8C302F0D7C301F0D6C3F7
:1019B00000F0010ED627D8B0D72BD8B4D82BD8B486
:1019C000D92B02C0E3F301C0E2F300C0E1F3DDC3B1
:1019D00003F0DC51DC2BD8B4DD2BE96E03C0EAFF49
:1019E000EFCFEAF302C0E8F301C0E7F300C0E6F38B
:1019F0000001A6D701C0DEF30301DE5303E0DEC31E
:101A000001F006D0DF2BD8B4E02BC4D7000E016E56
:101A1000000112000301A735B06FA835B16FA935D9
:101A2000B26FAA35B36FB037B137B237B337FC0EE8
:101A3000B01702010E510301B02702010F5103013B
:101A4000B123020110510301B2230201115103011C
:101A5000B323B3C3D9F3B2C3D8F3B1C3D7F3B0C37D
:101A6000D6F3DB6B040EDA6F030EDD6FAB0EDC6FAB
:101A700000018DDF015203E0FF0E016E02D0000E67
:101A8000016E120089C38DF388C38CF387C38BF377
:101A900086C38AF38DC391F38CC390F38BC38FF30A
:101AA0008AC38EF3030E03019C6F8E0E9B6F0001A1
:101AB00004DF0150FF0803E1FF0E016E35D08DC336
:101AC000AAF38CC3A9F38BC3A8F38AC3A7F30301BA
:101AD000AE6BAD6BAC6BAB6B00019CDF0150FF08D4
:101AE00003E1FF0E016E20D091C38DF390C38CF300
:101AF0008FC38BF38EC38AF303018A3D01D002D0DA
:101B00000001D0D78B3D01D002D00001CBD78C3D56
:101B100001D002D00001C6D78D510F08D8B402D031
:101B20000001C0D7000E016E0001B8EF16F0040EE0
:101B300003019025016E000E9121036E01C092F306
:101B4000936F140E9025E96E000E9121EA6EEFCF8F
:101B500000F0ECCF01F0ECCF02F0ECCF03F093C338
:101B6000EAFF92C3E9FF00C0EFFF01C0ECFF02C033
:101B7000ECFF03C0ECFF100E9025E96E000E9121E2
:101B8000EA6EEFCF00F0ECCF01F0ECCF02F0ECCF3B
:101B900003F091C3EAFF90C3E9FF00C0EFFF01C06B
:101BA000ECFF02C0ECFF03C0ECFF0001B0EF12F04D
:101BB0000301A7C3E9FFA8C3EAFFEFCFB9F3ECCF56
:101BC000BAF3ECCFBBF3ECCFBCF3B937BA37BB37C2
:101BD000BC37B937BA37BB37BC37FC0EB91702016F
:101BE0000E510301B925B16F02010F510301BA2152
:101BF000B26F020110510301BB21B36F02011151F9
:101C00000301BC21B46FB86BB76BB66BB56BB85141
:101C10000201195DD8A08ED016E10301B75102016F
:101C2000185DD8A087D00FE10301B6510201175DFE
:101C3000D8A080D008E116510301B55DD8A002D02C
:101C4000020178D002010301B551B125B96FB65137
:101C5000B221BA6FB751B321BB6FB851B421BC6F79
:101C6000C06FBBC3BFF3BAC3BEF3B9C3BDF3C26B8E
:101C7000040EC16F030EC46FA90EC36F000140ECC8
:101C800005F0015203E0FF0E016E57D0ACC3B0F374
:101C9000ABC3AFF3AAC3AEF3A9C3ADF30301AD5316
:101CA00041E1AE533FE1AF533DE1B0533BE1B551AC
:101CB000B127B651B223B751B323B851B423A7C348
:101CC000E9FFA8C3EAFF02010E510301B15DBB6F3A
:101CD00002010F510301B259BC6F020110510301FF
:101CE000B359BD6F020111510301B459BE6FBE312A
:101CF000036EBD31026EBC31016EBB31006E03322A
:101D00000232013200323F0E031600C0EFFF01C065
:101D1000ECFF02C0ECFF03C0ECFF000E016E0001FF
:101D20000CD00301040EB527000EB623B723B82349
:101D30006ED70201FF0E016E00011200AAC3D5F397
:101D4000A9C3D4F3A8C3D3F3A7C3D2F3DFEC09F03C
:101D500003C0D1F302C0D0F301C0CFF300C0CEF373
:101D60000301CB6BCB511F080BE3036ACB51AB0FC5
:101D7000E96E030E0320EA6EEF6A010ECB27F2D75D
:101D8000CD6BCC6BCD5102010D5D32E308E10C51FE
:101D90000301CC5DD8A002D002012AD002010301C8
:101DA000CC51CE25D26FCD51CF21D36F000ED02193
:101DB000D46F000ED121D56FD96FD4C3D8F3D3C35C
:101DC000D7F3D2C3D6F3DB6B200EDA6F030EDD6FD1
:101DD000AB0EDC6F0001DBDD015203E0FF0E016E94
:101DE0000AD0200E0301CC27000ECD23CBD7020151
:101DF000000E016E00011200040E03019325E96E2E
:101E0000000E9421EA6EEFCF96F3ECCF97F3ECCF70
:101E100098F3ECCF99F31F0E9617976B986B996B0D
:101E200096536BE1975369E1985367E1995365E1E4
:101E3000040E9325E96E000E9421EA6EEFCF96F31F
:101E4000ECCF97F3ECCF98F3ECCF99F3140E9325E6
:101E5000E96E000E9421EA6EEFCF00F0ECCF01F0B6
:101E6000ECCF02F0ECCF03F00050965D09E1015099
:101E7000975D06E10250985D03E10350995D3DE0F6
:101E8000040E9325E96E000E9421EA6EEFCF96F3CF
:101E9000ECCF97F3ECCF98F3ECCF99F3200E965F4D
:101EA000000E975B985B995B1A0E9325016E000EEE
:101EB0009421036E01C09AF39B6F99C3D9F398C321
:101EC000D8F397C3D7F396C3D6F3DB6B200EDA6F44
:101ED00003C0DDF301C0DCF3000159DD01520EE067
:101EE000190E03019325E96E000E9421EA6EEF505E
:101EF0004009EF6EFF0E016E29D00001040E0301B0
:101F00009325E96E000E9421EA6EEFCF96F3ECCFA5
:101F100097F3ECCF98F3ECCF99F31F0E9617976BCE
:101F2000986B996B1A0E9625006E000E9721016E24
:101F3000000E9821000E992193510024E96E9451CE
:101F40000120EA6E95C3EFFF000E016E0001DAEF8B
:101F500011F096C303F0030195C3E9FF96C3EAFFAE
:101F6000EFCF9BF3ECCF9CF3ECCF9DF3ECCF9EF344
:101F7000010E9B27000E9C239D239E2302011251DC
:101F800003019B5F0201135103019C5B0201145189
:101F900003019D5B0201155103019E5BEACFA0F393
:101FA000E9CF9FF3D882030EEA6EA10EE96E9EC3BD
:101FB000ABF39DC3AAF39CC3A9F39BC3A8F3AF6B78
:101FC000AE6B0DC2ADF30CC2ACF30001EAEC08F04D
:101FD000A1C300F0A2C301F0A3C302F0A4C303F0A5
:101FE000A0C3EAFF9FC3E9FFA4C39EF3A3C39DF36D
:101FF000A2C39CF3A1C39BF303019B53D8A48DD030
:102000009C53D8A48AD09D53D8A487D09E53D8A4DB
:1020100084D096C303F095C3E9FF96C3EAFFEFCFE0
:102020009BF3ECCF9CF3ECCF9DF3ECCF9EF302013E
:10203000155103019E5DD8A070D012E10201145128
:1020400003019D5DD8A069D00BE10201135103018A
:102050009C5D63E305E10201125103019B5D5DE3B9
:1020600096C303F095C3E9FF96C3EAFFEFCFA0F351
:10207000ECCFA1F3ECCFA2F3ECCFA3F3000134EC4F
:1020800009F003C09AF302C099F301C098F300C0AD
:1020900097F3030E03019C6F970E9B6F00010DDCFD
:1020A0000150FF0803E1FF0E016E54D00301973D7C
:1020B00007D0983D05D0993D03D09A3D01D009D075
:1020C000973D0CD0983D0AD0993D08D09A510F0801
:1020D00005E1FF0E016E00013DD0030196C303F040
:1020E00095C39BF396C39CF39AC3D5F399C3D4F3DA
:1020F00098C3D3F397C3D2F30001DFEC09F09CC37C
:10210000EAFF9BC3E9FF00C0EFFF01C0ECFF02C084
:10211000ECFF03C0ECFF1CD0030195C3E9FF96C39D
:10212000EAFF010EEF24006E000EEC20016E000E9F
:10213000EC20026E000EEC20036EED52ED52ED52DB
:1021400000C0EFFF01C0ECFF02C0ECFFEC6E00012D
:10215000000E016E12009CC3A2F39BC3A1F39AC3AD
:10216000A0F399C39FF3A2C3A6F3A1C3A5F3A0C391
:10217000A4F39FC3A3F3030E0301A86FA30EA76FDD
:10218000000116DD0150FF0803E1FF0E016E5BD078
:10219000A2C3AAF3A1C3A9F3A0C3A8F39FC3A7F343
:1021A000A6C3AEF3A5C3ADF3A4C3ACF3A3C3ABF313
:1021B00031DC0150FF0803E1FF0E016E44D0A6C3DD
:1021C000AAF3A5C3A9F3A4C3A8F3A3C3A7F30F0E4F
:1021D0000301AE6FAD69AC69AB6900011BDC015056
:1021E000FF0803E1FF0E016E2ED0A6C3AAF3A5C31C
:1021F000A9F3A4C3A8F3A3C3A7F3A0DD0150FF086C
:1022000003E1FF0E016E1FD09EC303F09DC3A7F331
:102210009EC3A8F3A6C3D5F3A5C3D4F3A4C3D3F335
:10222000A3C3D2F30001DFEC09F0A8C3EAFFA7C300
:10223000E9FF00C0EFFF01C0ECFF02C0ECFF03C0EC
:10224000ECFF000E016E1200190E03019125E96EDC
:10225000000E9221EA6EEFB208D0190E9125E96EB8
:10226000000E9221EA6EEFA459D1180E9125E96E65
:10227000000E9221EA6EEF52D8A450D1040E91259F
:10228000E96E000E9221EA6EEFCF93F3ECCF94F358
:10229000ECCF95F3ECCF96F396510201155DD8A0E3
:1022A00081D016E1030195510201145DD8A07AD0C6
:1022B0000FE1030194510201135DD8A073D008E12E
:1022C00012510301935DD8A002D002016BD002012C
:1022D000020E0301A86F1A0EA76F000169DC0150FE
:1022E000FF0803E1FF0E016E1CD11DC2AAF31CC240
:1022F000A9F31BC2A8F31AC2A7F30F0E0301AE6F16
:10230000AD69AC69AB6900010AEC0DF00150FF0842
:1023100003E1FF0E016E05D11DC2AAF31CC2A9F391
:102320001BC2A8F31AC2A7F309DD0150FF0803E19D
:10233000FF0E016EF6D0040E03019125016E000E12
:102340009221036E01C093F3946F140E9125016ED8
:10235000000E9221036E01C095F3966F1DC2D5F356
:102360001CC2D4F31BC2D3F31AC2D2F30001DFECB8
:1023700009F096C3EAFF95C3E9FF00C0EFFF01C073
:10238000ECFF02C0ECFF03C0ECFF94C3EAFF93C371
:10239000E9FF00C0EFFF01C0ECFF02C0ECFF03C08B
:1023A000ECFF020192C394F391C393F390C395F3AE
:1023B000000122D50150FF0803E1FF0E016EB1D0EC
:1023C000040E03019125016E000E9221036E01C0DF
:1023D00093F3946F966F01C095F30001BADD01503D
:1023E000FF08D8A479D0040E03019125E96E000EF0
:1023F0009221EA6EEFCF93F3ECCF94F3ECCF95F309
:10240000ECCF96F3200E935F000E945B955B965B8A
:10241000010E9327000E9423952396231A0E9125DF
:10242000016E000E9221036E01C097F3986F96C360
:10243000D9F395C3D8F394C3D7F393C3D6F3DB6B27
:10244000200EDA6F03C0DDF301C0DCF30001C7EC3E
:102450000CF001520EE0190E03019125E96E000EF9
:102460009221EA6EEF504009EF6EFF0E016E0001FF
:1024700058D0040E03019125E96E000E9221EA6EF8
:10248000EFCFA0F3ECCFA1F3ECCFA2F3ECCFA3F30B
:10249000000134EC09F003C09CF302C095F301C0C5
:1024A0009AF300C093F3040E03019125016E000E10
:1024B0009221036E01C097F3986F02C09BF300C096
:1024C00099F39E6F01C09DF3000145DE0150FF08A6
:1024D00003E1FF0E016E25D0100E03019125E96E78
:1024E000000E9221EA6E010EEF24006E000EEC2029
:1024F000016E000EEC20026E000EEC20ED52ED524B
:10250000ED5200C0EFFF01C0ECFF02C0ECFFEC6E2B
:1025100090C301F0000105D004D00301FF0E016E4D
:102520000001120087C303F0030186C3E9FF87C3DC
:10253000EAFFEFCF90F3ECCF91F3ECCF92F3ECCF37
:1025400093F3905311E191530FE192530DE19353A3
:102550000BE185C391F384C390F3000197EF0DF075
:10256000000E016ED7D10301190E8425E96E000E0D
:102570008521EA6EEFB208D0190E8425E96E000EAF
:102580008521EA6EEFA466D0100E8425E96E000E58
:102590008521EA6EEFCF90F3ECCF91F3ECCF92F37D
:1025A000ECCF93F386C3E9FF87C3EAFFEFCF00F0D8
:1025B000ECCF01F0ECCF02F0ECCF03F09351035CD1
:1025C00049E30BE19251025C45E307E19151015C63
:1025D00041E303E10050905D3DE2100E8425E96E79
:1025E000000E8521EA6EEFCF90F3ECCF91F3ECCFA4
:1025F00092F3ECCF93F386C3E9FF87C3EAFFEFCFF3
:1026000000F0ECCF01F0ECCF02F0ECCF03F09351EF
:10261000035C1BE30BE19251025C17E307E191516C
:10262000015C13E303E10050905D0FE2906B85C302
:1026300092F384C391F3000107DE0150FF0803E128
:10264000FF0E016E67D10301C8D7000E016E0001B5
:1026500061D1030187C303F086C3E9FF87C3EAFFA3
:10266000EFCFA8F3ECCFA9F3ECCFAAF3ECCFABF309
:10267000EACF95F3E9CF94F3D892AF6BAE6B0DC26E
:10268000ADF30CC2ACF30001EAEC08F095C3EAFF2D
:1026900094C3E9FF03C08FF302C08EF301C08DF332
:1026A00000C08CF3140E03018425E96E000E852111
:1026B000EA6EEFCFA0F3ECCFA1F3ECCFA2F3ECCF17
:1026C000A3F3000134EC09F003C08BF302C08AF3DA
:1026D00001C089F300C088F303018C5306E18D53D8
:1026E00004E18E5302E18F5314E0030E9C6F880EB9
:1026F0009B6F00015DEC0CF0015203E0FF0E016ED8
:1027000009D1010E03018C5F000E8D5B8E5B8F5B28
:10271000E4D7040E8425016E000E8521036E01C0EE
:1027200090F3916F8BC3D5F38AC3D4F389C3D3F3EA
:1027300088C3D2F30001DFEC09F091C3EAFF90C334
:10274000E9FF00C0EFFF01C0ECFF02C0ECFF03C0D7
:10275000ECFF040E03018425016E000E852101C0EB
:1027600090F3916FEA6E01C0E9FFEFCF92F3ECCFE7
:1027700093F3ECCF94F3ECCF95F387C303F086C3C8
:10278000E9FF87C3EAFFEFCFA8F3ECCFA9F3ECCFC3
:10279000AAF3ECCFABF3EACF9BF3E9CF9AF3D8825D
:1027A000030EEA6E9C0EE96EAF6BAE6B0DC2ADF31D
:1027B0000CC2ACF30001EAEC08F09CC300F09DC32E
:1027C00001F09EC302F09FC303F09BC3EAFF9AC3CC
:1027D000E9FF0301925100269351012294510222F4
:1027E0009551032291C3EAFF90C3E9FF00C0EFFFB8
:1027F00001C0ECFF02C0ECFF03C0ECFF190E842502
:10280000E96E000E8521EA6EEFA063D0100E8425DC
:10281000E96E000E8521EA6EEFCF92F3ECCF93F3D1
:10282000ECCF94F3ECCF95F386C3E9FF87C3EAFFBF
:10283000EFCF00F0ECCF01F0ECCF02F0ECCF03F0E3
:102840000050925D006E01509359016E02509459F0
:10285000026E0350955985C3EAFF84C3E9FF00C0A7
:10286000EFFF01C0ECFF02C0ECFFEC6E040E84250C
:10287000E96E000E8521EA6EEFCFBDF3ECCFBEF31B
:10288000ECCFBFF3ECCFC0F31A0E8425016E000E1F
:102890008521036E01C094F3956FC26B200EC16F4A
:1028A00003C0C4F301C0C3F3000140EC05F00152C2
:1028B0000EE0190E03018425E96E000E8521EA6EF3
:1028C000EF502009EF6EFF0E016E000123D020D0E3
:1028D0000301100E8425016E000E852101C090F3C6
:1028E00086C3E9FF87C3EAFFEFCF00F0ECCF01F02A
:1028F000ECCF02F0ECCF03F0EA6E90C3E9FF00C02A
:10290000EFFF01C0ECFF02C0ECFF03C0ECFF0001D1
:10291000000E016E02EF17F0030182C3E9FF83C3CB
:10292000EAFFEFCF84F3ECCF85F3ECCF86F3ECCF67
:1029300087F31F0E8427000E852386238723030E2B
:10294000966F840E956F0001A9EC0FF00150FF08FF
:1029500003E1FF0E016E10D0030182C3E9FF83C3C0
:10296000EAFF84C3EFFF85C3ECFF86C3ECFF87C398
:10297000ECFF000E016E0001120003015D6B140EEE
:102980005925E96E000E5A21EA6EEFCF5EF3ECCFC7
:102990005FF3ECCF60F3ECCF61F361C3C0F360C3CE
:1029A000BFF35FC3BEF35EC3BDF3C26B010EC16F65
:1029B000030EC46F5C0EC36F000140EC05F00150C4
:1029C00003015D270B0E5E25826F000E5F21836F72
:1029D000000E6021846F000E6121856FC06F84C37B
:1029E000BFF383C3BEF382C3BDF3C26B010EC16FDD
:1029F000030EC46F5B0EC36F000140EC05F0015085
:102A000003015D275D530CE0190E5925E96E000E98
:102A10005A21EA6EEF502009EF6EFF0E016E13D3BC
:102A20005C51E508D8B4F0D258515B5DD8A4ECD223
:102A300061C385F360C384F35FC383F35EC382F332
:102A4000030E876F620E866F000162EF0BF001507C
:102A5000FF0805E1FF0E016E0301F5D2000157C327
:102A600083F356C382F3030E0301856F620E846FF6
:102A7000000121EC0CF00152D8A4C7D20C0E0301C6
:102A80005925016E000E5A21036E01C082F3836F37
:102A9000140E5925E96E000E5A21EA6EEFCF00F0B0
:102AA000ECCF01F0ECCF02F0ECCF03F083C3EAFFF0
:102AB00082C3E9FF00C0EFFF01C0ECFF02C0ECFFE2
:102AC00003C0ECFF1C0E5E25826F000E5F21836F3A
:102AD000000E6021846F000E6121856F100E592554
:102AE000016E000E5A21036E01C086F3876F85C305
:102AF000C0F384C3BFF383C3BEF382C3BDF3C26B11
:102B0000040EC16F03C0C4F301C0C3F3000140EC65
:102B100005F0015003015D27140E5E25826F000E43
:102B20005F21836F000E6021846F000E6121856F2D
:102B3000140E5925016E000E5A21036E01C086F352
:102B4000876F020E8627000E872385C3C0F384C3D8
:102B5000BFF383C3BEF382C3BDF3C26B020EC16F6A
:102B600087C3C4F386C3C3F3000140EC05F00150F2
:102B700003015D271A0E5E25826F000E5F21836FB1
:102B8000000E6021846F000E6121856F140E59259F
:102B9000016E000E5A21036E01C086F3876F85C354
:102BA000C0F384C3BFF383C3BEF382C3BDF3C26B60
:102BB000020EC16F03C0C4F301C0C3F3000140ECB7
:102BC00005F0015003015D275D530CE0190E5925F6
:102BD000E96E000E5A21EA6EEF502009EF6EFF0EEB
:102BE000016E31D2140E5925016E000E5A21036E6A
:102BF00001C082F3836F140E5925E96E000E5A212D
:102C0000EA6EEFCFD2F3ECCFD3F3ECCFD4F3ECCF2B
:102C1000D5F30001DFEC09F083C3EAFF82C3E9FFCB
:102C200000C0EFFF01C0ECFF02C0ECFF03C0ECFFEF
:102C3000080E03015925E96E000E5A21EA6E5EC3A3
:102C4000EFFF5FC3ECFF60C3ECFF61C3ECFF100E4E
:102C50005925E96E000E5A21EA6EEFCF00F0ECCF55
:102C600001F0ECCF02F0ECCF03F05AC3EAFF59C3F6
:102C7000E9FF00C0EFFF01C0ECFF02C0ECFF03C0A2
:102C8000ECFF58512008D8A4B4D1180E5925E96E8C
:102C9000000E5A21EA6EEF6A190E5925E96E000EF0
:102CA0005A21EA6EEFA27CD0100E5925E96E000E73
:102CB0005A21EA6EEE52EE52EC6AED52EF6AED5294
:102CC000EF6AED52EF6A000E5AC3EAFF59C3E9FFFB
:102CD00000C0EFFF59C3ECFF02C0ECFF5AC3ECFF8A
:102CE000140E5925E96E000E5A21EA6EEFCF82F3D9
:102CF000ECCF83F3ECCF84F3ECCF85F302011551D5
:102D00000301855D3CE311E1020114510301845D7F
:102D100036E30BE1020113510301835D30E305E16A
:102D2000020112510301825D2AE3140E5925E96E56
:102D3000000E5A21EA6EEFCFA0F3ECCFA1F3ECCF57
:102D4000A2F3ECCFA3F3000134EC09F003C085F348
:102D500002C084F301C083F300C082F303C089F38F
:102D600002C088F301C087F300C086F342EF0DF084
:102D70000150FF0805E1FF0E016E030164D100015F
:102D8000040E03015925E96E000E5A21EA6EEE5237
:102D9000EE52EC6AED52EF6AED52EF6AED52EF6AD5
:102DA000190E5925E96E000E5A21EA6EEFA4C3D020
:102DB000100E5925E96E000E5A21EA6EEFCF82F30C
:102DC000ECCF83F3ECCF84F3ECCF85F3825307E1B0
:102DD000835305E1845303E18553D8B4ACD0100E7E
:102DE0005925016E000E5A21036E01C082F3836FD4
:102DF0005AC385F359C384F3876F01C086F300017A
:102E000092EF12F001C05DF3040E03015925E96E43
:102E1000000E5A21EA6EEFCF82F3ECCF83F3ECCFB2
:102E200084F3ECCF85F31F0E8217836B846B856B65
:102E3000825339E1835337E1845335E1855333E1DC
:102E4000040E5925E96E000E5A21EA6EEFCF82F387
:102E5000ECCF83F3ECCF84F3ECCF85F3200E825FCD
:102E6000000E835B845B855B1A0E5925016E000E94
:102E70005A21036E01C086F3876F85C3C0F384C3F4
:102E8000BFF383C3BEF382C3BDF3C26B200EC16F19
:102E900003C0C4F301C0C3F3000140EC05F00150CE
:102EA00003015D2748D0040E5925E96E000E5A2112
:102EB000EA6EEFCF82F3ECCF83F3ECCF84F3ECCF69
:102EC00085F3040E5925E96E000E5A21EA6EEFCF04
:102ED00086F3ECCF87F3ECCF88F3ECCF89F3865100
:102EE0001F0B006E016A026A036A0050825F015084
:102EF000835B0250845B0350855B1A0E5925016E7B
:102F0000000E5A21036E01C086F3876F85C3C0F39C
:102F100084C3BFF383C3BEF382C3BDF3C26B200E71
:102F2000C16F03C0C4F301C0C3F3000140EC05F05E
:102F3000015003015D27190E5925E96E000E5A2133
:102F4000EA6EEFA047D0040E5925016E000E5A21FB
:102F5000036E01C082F3836F140E5925E96E000ED3
:102F60005A21EA6EEFCF00F0ECCF01F0ECCF02F087
:102F7000ECCF03F083C3EAFF82C3E9FF00C0EFFF99
:102F800001C0ECFF02C0ECFF03C0ECFF040E5925AA
:102F9000E96E000E5A21EA6EEFCFBDF3ECCFBEF31F
:102FA000ECCFBFF3ECCFC0F31A0E5925016E000E23
:102FB0005A21036E01C086F3876FC26B200EC16F6A
:102FC00003C0C4F301C0C3F3000140EC05F001C02D
:102FD0005DF303015D530CE0190E5925E96E000EF7
:102FE0005A21EA6EEF502009EF6EFF0E016E2BD0D2
:102FF00008D0180E5925E96E000E5A21EA6E010E0E
:10300000EF6E000E016E1FD00001030E0301836FEF
:103010005E0E826F000180DC0150FF0805E1FF0EAB
:10302000016E030110D0000103015C53D8A4B5D494
:10303000190E5925E96E000E5A21EA6EEF508009EB
:10304000EF6EFF0E016E00011200010E0201F96F1A
:103050000301546B0201F551E96EF651EA6EEF502F
:10306000720A000105E0050A07E0160A09E00DD022
:10307000010E0301336F0DD0020E0301336F09D02F
:10308000040E0301336F05D00001FF0E016E2FD136
:103090000301010E0201F525E96E000EF621EA6E2C
:1030A000EF50620803E103013387020121C229F3D3
:1030B00020C228F31FC227F31EC226F329C331F30F
:1030C00028C330F327C32FF326C32EF3F951F3257A
:1030D000E96E000EF421EA6EEF520FE0F951F3258C
:1030E000E96E000EF421EA6EEF502F0803E10301B0
:1030F000542B0201010EF927E9D7010EF96F0301E4
:1031000054536BE0556B0201F951F325E96E000E43
:10311000F421EA6EEF502F082BE0F951F325E96E08
:10312000000EF421EA6EEF5205E1FF0E016E000180
:10313000DED00201036A03015551FA0F016E020E3F
:1031400003220201F951F325E96E000EF421EA6E23
:10315000EFCF58F3030103C0EAFF01C0E9FF58C3F2
:10316000EFFF010E0201F92703015527CCD7020119
:10317000010EF927036A03015551FA0FE96E020E99
:103180000320EA6EEF6A020E576FFA0E566F100EAA
:10319000586F030E5A6F1A0E596F0001BDEC14F0F0
:1031A000015217E00301338FF8C203F00201F7C2A6
:1031B000E9FFF8C2EAFF030EE26E1A0EE16E3A0E64
:1031C000016EE6CFEEFF012EFCD7FF0E016E00016F
:1031D0008ED0010E0301545F93D70201F951F325FC
:1031E000E96E000EF421EA6EEF5215E1F8C203F029
:1031F000F7C2E9FFF8C2EAFF030EE26E1A0EE16EB3
:103200003A0E016EE6CFEEFF012EFCD7000E016EE6
:1032100000016DD002010301556B0201F951F32544
:10322000E96E000EF421EA6EEF521EE0036A03011C
:103230005551FA0F016E020E03220201F951F325D6
:10324000E96E000EF421EA6EEFCF58F3030103C0DC
:10325000EAFF01C0E9FF58C3EFFF010E0201F927A1
:1032600003015527DAD70201036A03015551FA0F0A
:10327000E96E020E0320EA6EEF6A020E576FFA0E35
:10328000566F200E586F030E5A6F1A0E596F0001B9
:10329000BDEC14F0015217E00301338FF8C203F0C4
:1032A0000201F7C2E9FFF8C2EAFF030EE26E1A0E4E
:1032B000E16E3A0E016EE6CFEEFF012EFCD7FF0E57
:1032C000016E000114D0F8C203F00201F7C2E9FF59
:1032D000F8C2EAFF030EE26E1A0EE16E3A0E016EBC
:1032E000E6CFEEFF012EFCD7000E016E00011200AA
:1032F0000201F76BF66BF4C203F0F3C2E9FFF4C20C
:10330000EAFFF551EF5C04E1F4C2F7F2F3C2F6F222
:10331000F4C203F0F3C2E9FFF4C2EAFFEF5205E1A1
:10332000F6C201F0F7C202F004D0F32BD8B4F42BAC
:10333000E2D7000176EF1FF00301316B31512F25E9
:10334000E96E000E3021EA6EEF522CE031511F0879
:1033500029E331512F25E96E000E3021EA6EEFCFBF
:1033600032F33251220818E032512A0815E0325166
:103370002F0812E032513A080FE032513C080CE0BD
:1033800032513D0803E232513F0806E232515C08F7
:1033900003E032517C0803E1FF0E016E05D0010EFF
:1033A0003127CCD7000E016E0001CFEF1DF063C3B3
:1033B00003F0030162C3E9FF63C3EAFF6451EF5CFA
:1033C00012E063C303F062C3E9FF63C3EAFFEF5295
:1033D00004E1000E016E026E0AD0622BD8B4632B9A
:1033E0000001E5D7030162C301F063C302F00001ED
:1033F000120023C2EAFF22C2E9FF03016EC3EFFFFE
:10340000E92AD8B4EA2AEF6A0201222BD8B4232B86
:1034100000011200E9500301666F3B0E6D6F9A0EBA
:103420006C6FCA0E6B6F6A6B0A0E686FD882030EE0
:10343000EA6E620EE96E65C3ABF364C3AAF363C3BD
:10344000A9F362C3A8F36DC3AFF36CC3AEF36BC350
:10345000ADF36AC3ACF30001EAEC08F0015000528E
:1034600013E103016851010AD8A402D000010CD075
:1034700066510CE00F0B685D01E00FE266BF0DD0F6
:1034800066BD04D0200E03D00301666B300E00260B
:1034900000C06EF30001ADDF0301D8926DC3ABF342
:1034A0006CC3AAF36BC3A9F36AC3A8F3AF6BAE6B8B
:1034B000AD6B0A0EAC6F0001EAEC08F003C06DF3CF
:1034C00002C06CF301C06BF300C06AF30301682F04
:1034D000ADD70001B1EF1BF0200E0301376F386F3D
:1034E000396F3A6F3B6F3C6F3D6F3E6F3F6F406F80
:1034F000416F426B436F446F456F466F476F486F34
:10350000496F4A6F4B6F4C6F4D6F4E6B4F6F506FE3
:10351000516F526F536F546F556B586B596B5D6B96
:103520005C6B5B6B5A6B34C363F333C362F32E0E75
:10353000646F00013CDF01C057F30301575346E1BC
:103540005951070842E358513325E96E000E3421E2
:10355000EA6EEF523AE0036A5951370F016E030EDB
:10356000032201C062F303C063F358513325E96EAF
:10357000000E3421EA6EEFCF64F36451600806E276
:1035800064517A0803E36451DF0B01D0645163C3D3
:10359000EAFF62C3E9FFEF6E010E59275827585121
:1035A0003325E96E000E3421EA6EEF502E0809E053
:1035B00058513325E96E000E3421EA6EEF50200891
:1035C00003E1010E5827EBD7BBD757D0010E335D6F
:1035D000006E000E34590050575F59510A084DE3F0
:1035E00058513325E96E000E3421EA6EEF5245E062
:1035F000036A5951370F016E030E032201C062F3B3
:1036000003C063F358513325E96E000E3421EA6E8E
:10361000EFCF64F36451600806E264517A0803E373
:103620006451DF0B01D0645163C3EAFF62C3E9FF59
:10363000EF6E010E5927582758513325E96E000EB9
:103640003421EA6EEF502E0809E058513325E96E17
:10365000000E3421EA6EEF50200803E1010E5827D6
:10366000EBD75751585D03E1080E596F05D05951FA
:10367000080802E157C358F3B0D732C361F331C32E
:1036800060F330C35FF32FC35EF30B0E5E25626FF2
:10369000000E5F21636F000E6021646F000E6121D8
:1036A000656FC06F64C3BFF363C3BEF362C3BDF392
:1036B000C26B010EC16F030EC46F560EC36F0001C3
:1036C00040EC05F0015203E0FF0E016E39D1030119
:1036D0005653D8B408D15651200804E0565110086A
:1036E000D8A4A8D061C3C0F360C3BFF35FC3BEF367
:1036F0005EC3BDF3C26B0B0EC16F030EC46F430EEE
:10370000C36F000140EC05F0015203E0FF0E016EB3
:1037100017D103014E6B030E836F430E826F030EAE
:10372000856F370E846F000121EC0CF00152D8A494
:1037300082D0010E03015A27000E5B235C235D2318
:10374000030E0201236F4F0E226F410EE96E5DC31F
:1037500065F35CC364F35BC363F35AC362F30001B4
:1037600059D60301586B030E636F370E626F200E3C
:10377000646F00011CDE01C059F3030159530FE1CE
:10378000030E9B6F4F0E9A6F000130EC08F002C0E1
:1037900003F00150FF0A080F0301596F02D0390EE0
:1037A000595F0A0E566F5D5307E15C5305E15B53A9
:1037B00003E156515A5D07E3010E595F56510A0D58
:1037C000F3CF56F3F0D7036A5951370FE96E030E62
:1037D0000320EA6E7E0EEF6E010E5927036A5851E0
:1037E0004F0FE96E030E0320EA6EEF521BE0036AEF
:1037F0005951370F016E030E032203C063F3036AAE
:1038000058514F0FE96E030E0320EA6EEFCF64F3B9
:1038100063C3EAFF01C0E9FF64C3EFFF010E59274C
:103820005827DCD732C361F331C360F330C35FF391
:103830002FC35EF30001030E0301836F5E0E826FE0
:1038400000018CEC14F00150FF0828E161C3A3F3E0
:1038500060C3A2F35FC3A1F35EC3A0F334EC09F02D
:1038600003C065F302C064F301C063F300C062F3F8
:1038700003C09CF302C09BF301C09AF300C099F30C
:10388000030E03019E6F5E0E9D6F0001ABEC10F006
:103890000150FF0803E1FF0E016E52D00B0E030131
:1038A0005E25626F000E5F21636F000E6021646F02
:1038B000000E6121656FC06F64C3BFF363C3BEF3C5
:1038C00062C3BDF3C26B010EC16F030EC46F560E0F
:1038D000C36F000140EC05F0015203E0FF0E016EE2
:1038E0002FD0F5D60301616B606B5F6B5E6B61532C
:1038F00025E1605323E15F5321E15E510B081EE394
:1039000035515E25016E36515F21036E01C062F3B1
:10391000636F370E5E25E96E030E5F21EA6EEFCF0F
:1039200064F303C0EAFF01C0E9FF64C3EFFF010EC7
:103930005E27000E5F2360236123D9D7000E016E3E
:103940000001E8EF1DF00301326B0B0E316F3153B4
:1039500018E032A102D0800E01D0000E336FD89053
:103960003231332730C303F02F512F2BD8B4302BF3
:10397000E96E03C0EAFFEF503325326F010E315F6D
:10398000E6D732C301F00001F5EF1DF003012FC3AC
:10399000E9FF30C3EAFFEFCF32F3ECCF33F3ECCFE4
:1039A00034F3ECCF35F335C3C0F334C3BFF333C3C3
:1039B000BEF332C3BDF3C26B010EC16F030EC46F01
:1039C000310EC36F000140EC05F0015203E0FF0E21
:1039D000016E64D00301315352E01F0E3227000EF6
:1039E000332334233523030E966F320E956F000177
:1039F000A9EC0FF00150FF0828E135C3A3F334C34D
:103A0000A2F333C3A1F332C3A0F334EC09F003C033
:103A100039F302C038F301C037F300C036F303C0F6
:103A20009CF302C09BF301C09AF300C099F3030E0C
:103A300003019E6F320E9D6F0001ABEC10F0015040
:103A4000FF0803E1FF0E016E29D035C3C0F334C374
:103A5000BFF333C3BEF332C3BDF30301C26B010E28
:103A6000C16F030EC46F310EC36F000140EC05F04F
:103A7000015203E0FF0E016E11D0ACD703012FC33A
:103A8000E9FF30C3EAFF32C3EFFF33C3ECFF34C3B7
:103A9000ECFF35C3ECFF000E016E000112000301C4
:103AA0002F513019800B326F2FAF02D02F1F2F2BC9
:103AB00030AF02D0301F302B3051016A2F5D03E24E
:103AC0002FC300F00CD0006A080E316F2F3700367C
:103AD0003051005CD8B0006E0136312FF7D732AFCD
:103AE00002D0011E012A0001120032C333F3030188
:103AF00033510C0847E33351040815E3D8903335AC
:103B0000010F2F25E96E000E3021EA6E31C3EFFF61
:103B1000D8903335020F2F25E96E000E3021EA6E62
:103B200031C3EFFF2CD033510A0815E3D890333559
:103B3000040F2F25E96E000E3021EA6E31C3EFFF2E
:103B4000D8903335050F2F25E96E000E3021EA6E2F
:103B500031C3EFFF14D0D8903335060F2F25E96E0F
:103B6000000E3021EA6E31C3EFFFD8903335070FD6
:103B70002F25E96E000E3021EA6E31C3EFFF010EF2
:103B80003327B6D7000112000301076B010E2A6F1D
:103B9000FAC230F3F9C22FF300019CEF19F0015083
:103BA000FF0803E1FF0E016E74D1F6C232F3F5C2D5
:103BB00031F3F4C230F3F3C22FF3FAC234F3F9C293
:103BC00033F3020E0301366FFB0E356F000184D410
:103BD0000150FF0803E1FF0E016E5BD1020E0301ED
:103BE000306FFB0E2F6F0001AED601C008F303014A
:103BF000296B29511F080BE3036A2951090FE96E4C
:103C0000030E0320EA6EEF6A010E2927F2D7F6C2EF
:103C10002EF3F5C22DF3F4C22CF3F3C22BF3030EF3
:103C2000306F2B0E2F6F0001B1DE0150FF0803E152
:103C3000FF0E016E2ED10F0E0301146FFAC29BF31B
:103C4000F9C29AF3000130EC08F001C007F307C392
:103C50002FF30D0E0301306F000121DF00C007F3C9
:103C6000030107530CE0010E0727030E306F090E06
:103C70002F6F316907C332F3000137DF0301FAC246
:103C80009BF3F9C29AF3000130EC08F001C007F38E
:103C900007C32FF30D0E0301306F000100DF010E8B
:103CA000012403012A6F07C32FF30D0E306F0001AB
:103CB000F6DE005204E1010E03012A5F0001030158
:103CC0002A8D07BFC0D007C32FF30D0E306F000140
:103CD000E6DE00C029F303012951040821E3D8904E
:103CE0002935010F036A090F016E030E032201C07B
:103CF0002FF303C030F3036A0751006EE8BE0306DA
:103D00000201F925E96EFA510320EA6EEFCF31F393
:103D1000030130C3EAFF01C0E9FF31C3EFFF41D027
:103D200029510A0821E3D8902935040F036A090FA5
:103D3000016E030E032201C02FF303C030F3036AA8
:103D40000751006EE8BE03060201F925E96EFA513B
:103D50000320EA6EEFCF31F3030130C3EAFF01C065
:103D6000E9FF31C3EFFF1DD0D8902935060F036A54
:103D7000090F016E030E032203C030F3036A0751DB
:103D8000E8BE03060201F925E96EFA510320EA6E46
:103D9000EFCF31F3030130C3EAFF01C0E9FF31C3C4
:103DA000EFFF29534DE1FAC29BF3F9C29AF30001E8
:103DB00030EC08F00301306B01C02FF3036A0751A8
:103DC000006EE8BE0306015C03E13051035C38E09D
:103DD0002AC309F3075302E03F0E2A17010E2A5F98
:103DE00008C316F32EC3D9F32DC3D8F32CC3D7F3CE
:103DF0002BC3D6F3DB6B200EDA6F030EDD6F090EDB
:103E0000DC6F0001C7EC0CF0015203E0FF0E016E05
:103E100040D0030E0301306F2B0E2F6F0001B6DD73
:103E20000150FF0803E1FF0E016E33D0030E0301C2
:103E3000306F090E2F6F316B326B000156DE0301BC
:103E4000010E075F3ED72EC3D9F32DC3D8F32CC381
:103E5000D7F32BC3D6F3DB6B0B0EDA6F020EDD6FDD
:103E6000FB0EDC6F0001C7EC0CF0015203E0FF0E0B
:103E7000016E0FD00201F7C2E9FFF8C2EAFF2BC3BF
:103E8000EFFF2CC3ECFF2DC3ECFF2EC3ECFF000EA5
:103E9000016E0001BFEF1FF0720E0201906F916B77
:103EA000B36B6FC2F4F26EC2F3F2020EF66F900EB5
:103EB000F56F020EF86FB90EF76F000125EC18F0E0
:103EC000015203E1FF0E016EA4D00201D2BF05D062
:103ED000FF0E016E00019DD002016FC2F4F26EC2AE
:103EE000F3F22F0EF56F000178EF19F002C0F4F233
:103EF00001C0F3F202016E51F35F6F51F45B010EEA
:103F0000F325B46FB4516E25E96E000E6F21EA6E91
:103F1000EF521BE0B3511F0818E3036AB351700F4F
:103F2000016E020E0322B4516E25E96E000E6F2160
:103F3000EA6EEFCFF5F203C0EAFF01C0E9FFF5C278
:103F4000EFFF010EB427B327DDD7036AB351700F1B
:103F5000E96E020E0320EA6EEF6AD0C2F6F2CFC21B
:103F6000F5F2CEC2F4F2CDC2F3F2020EF86FB50E46
:103F7000F76F020EFA6F700EF96F000105D601504F
:103F8000FF0803E1FF0E016E44D00201926B9251D3
:103F90001F080BE3036A9251930FE96E020E032090
:103FA000EA6EEF6A010E9227F2D7200E9E6FB8C21A
:103FB000C0F3B7C2BFF3B6C2BEF3B5C2BDF30301CF
:103FC000C26B0B0EC16F020EC46F930EC36F000164
:103FD00040EC05F0015203E0FF0E016E1AD0B8C2AA
:103FE000D9F3B7C2D8F3B6C2D7F3B5C2D6F303013B
:103FF000DB6B200EDA6F020EDD6F930EDC6F0001BB
:10400000C7EC0CF0015203E0FF0E016E02D0000E6F
:10401000016E28EF20F0C20EF66E010EF76E94ECE2
:1040200001F0020EEA6E610EE96E0B0E016EF76A88
:10403000000E02EC00F00A000900F5CFEEFF012EA1
:10404000FBD7020E02016F6F610E6E6F000124D765
:10405000015207E1E00EF66E010EF76E94EC01F0EE
:1040600006D0E60EF66E010EF76E94EC01F0010E2E
:104070000201896F00015EEC01F025EF25F0020ED0
:10408000EA6E610EE96E0B0E016EF76A000E02EC2D
:1040900000F00A000900F5CFEEFF012EFBD7610EFC
:1040A00002016C6F6D6B020EF46F610EF36F020E06
:1040B000F66F6C0EF56F020EF86F260EF76F0001AB
:1040C00025EC18F0015206E0420EF66E020EF76E75
:1040D00094EC01F027EF25F002019751016A965DFB
:1040E00003E296C200F00CD0006A080E986F963773
:1040F00000369751005CD8B0006E0136982FF7D784
:1041000000011200015094C296F2640E0201976FF2
:104110000001E2DF00C094F20150300E08E102011C
:1041200095A310D095B70ED095B9200E04D00201FA
:10413000959795999581012601C06EF30001F9ECE0
:1041400019F0020194C296F20A0E976F0001C4DFC3
:1041500000C094F20150300E08E1020195B70BD077
:1041600095A109D095B9200E0001012601C06EF37A
:10417000F9EC19F00201300E942794C26EF300019D
:10418000F9EC19F00AEF21F00201986B985194258F
:10419000E96E000E9521EA6EEF5219E098519425D0
:1041A000E96E000E9521EA6EEFCF90F397C292F37D
:1041B00096C291F3000124EC11F00150FF0803E1D5
:1041C000FF0E016E07D0010E02019827DFD7000E07
:1041D000016E00011200EF5210E0EACF95F2E9CF34
:1041E00094F2EFCF96F272EC01F095C2EAFF94C21E
:1041F000E9FFE92AD8B4EA2AEED71CEF21F0020E33
:104200000201236F620E226F61C294F2010E956F5C
:10421000000178D7020E0201956F620E946F020EB4
:10422000976F260E966F0001AFDF015206E1020E76
:10423000EA6E620EE96ECFD706D05A0EF66E020E07
:10424000F76E94EC01F02BEF25F00D0E0201616F7B
:104250000A0E626F636B020E956F610E946F020E11
:10426000976F260E966F00018FDF2DEF25F0190E48
:1042700002016825E96E000E6921EA6EEFB208D0EE
:10428000190E6825E96E000E6921EA6EEFA4B8D018
:10429000040E6825E96E000E6921EA6EEFCF6AF21E
:1042A000ECCF6BF2ECCF6CF2ECCF6DF21F0E6A1715
:1042B0006B6B6C6B6D6B6A5348E16B5346E16C53EF
:1042C00044E16D5342E1040E6825E96E000E692158
:1042D000EA6EEFCF6AF2ECCF6BF2ECCF6CF2ECCF80
:1042E0006DF2200E6A5F000E6B5B6C5B6D5B1A0EED
:1042F0006825016E000E6921036E01C06EF26F6FBA
:104300006DC2D9F36CC2D8F36BC2D7F36AC2D6F3CD
:104310000301DB6B200EDA6F03C0DDF301C0DCF3B9
:104320000001C7EC0CF001520EE0190E02016825E5
:10433000E96E000E6921EA6EEF504009EF6EFF0E44
:10434000016E60D0000157D00201040E6825E96EAD
:10435000000E6921EA6EEFCF6AF2ECCF6BF2ECCF80
:104360006CF2ECCF6DF2040E6825E96E000E692147
:10437000EA6EEFCF6EF2ECCF6FF2ECCF70F2ECCFD3
:1043800071F26E511F0B006E016A026A036A0050DF
:104390006A5F01506B5B02506C5B03506D5B1A0EE1
:1043A0006825016E000E6921036E01C06EF26F6F09
:1043B0006DC2D9F36CC2D8F36BC2D7F36AC2D6F31D
:1043C0000301DB6B200EDA6F03C0DDF301C0DCF309
:1043D0000001C7EC0CF001520EE0190E0201682535
:1043E000E96E000E6921EA6EEF504009EF6EFF0E94
:1043F000016E08D00001A5EC04F00150020102D0CA
:10440000000E016E000143EF23F00201636B190EF1
:104410006125E96E000E6221EA6EEFB208D0190E36
:104420006125E96E000E6221EA6EEFA433D1080E19
:104430006125E96E000E6221EA6EEFCF68F2ECCFE3
:1044400069F2ECCF6AF2ECCF6BF21C0E6827000E1B
:1044500069236A236B23100E6125016E000E622111
:10446000036E01C06CF26D6F6BC2D9F36AC2D8F3F0
:1044700069C2D7F368C2D6F30301DB6B040EDA6FAF
:1044800003C0DDF301C0DCF30001C7EC0CF0015206
:104490000EE0190E02016125E96E000E6221EA6E3E
:1044A000EF504009EF6EFF0E016E3BD10001080E88
:1044B00002016125E96E000E6221EA6EEFCF68F21B
:1044C000ECCF69F2ECCF6AF2ECCF6BF2140E6827F6
:1044D000000E69236A236B236BC2C0F36AC2BFF369
:1044E00069C2BEF368C2BDF30301C26B020EC16FA5
:1044F000C46F660EC36F000140EC05F0015002016D
:104500006327080E6125E96E000E6221EA6EEFCF87
:1045100068F2ECCF69F2ECCF6AF2ECCF6BF21A0ED4
:104520006827000E69236A236B236BC2C0F36AC23B
:10453000BFF369C2BEF368C2BDF30301C26B020ED2
:10454000C16FC46F640EC36F000140EC05F00150F1
:104550000201632763530CE0190E6125E96E000E1A
:104560006221EA6EEF502009EF6EFF0E016ED9D086
:104570006453D8A482D06553D8A47FD06653D8A4FE
:104580007CD067537AE1140E6125E96E000E62213A
:10459000EA6EEFCFA0F3ECCFA1F3ECCFA2F3ECCF18
:1045A000A3F3000134EC09F003C067F202C066F225
:1045B00001C065F200C064F2080E02016125E96ED7
:1045C000000E6221EA6EEFCF68F2ECCF69F2ECCF19
:1045D0006AF2ECCF6BF2140E6827000E69236A238F
:1045E0006B236BC2D9F36AC2D8F369C2D7F368C22E
:1045F000D6F30301DB6B020EDA6FDD6F660EDC6F44
:104600000001C7EC0CF0015002016327080E612580
:10461000E96E000E6221EA6EEFCF68F2ECCF69F22C
:10462000ECCF6AF2ECCF6BF21A0E6827000E69230A
:104630006A236B236BC2D9F36AC2D8F369C2D7F37A
:1046400068C2D6F30301DB6B020EDA6FDD6F640E16
:10465000DC6F0001C7EC0CF00150020163276353CB
:104660000CE0190E6125E96E000E6221EA6EEF5032
:104670004009EF6EFF0E016E54D062C269F261C252
:1046800068F20001F4D50150FF0805E1FF0E016E4C
:10469000020147D00001040E02016125E96E000EFF
:1046A0006221EA6EEE52EE52EC6AED52EF6AED5282
:1046B000EF6AED52EF6A080E6125E96E000E622185
:1046C000EA6EEE52EE52EC6AED52EF6AED52EF6A8C
:1046D000ED52EF6A100E6125E96E000E6221EA6E5E
:1046E000EE52EE52EC6AED52EF6AED52EF6AED5285
:1046F000EF6A140E6125E96E000E6221EA6EEE5239
:10470000EE52EC6AED52EF6AED52EF6AED52EF6A4B
:10471000190E6125E96E000E6221EA6EEF6A000E45
:10472000016E00019BEF23F0020E0201626F260E64
:10473000616F00016AD6015201E106D0860EF66E65
:10474000020EF76E94EC01F02EEF25F0040E02013C
:104750007425E96E000E7521EA6EEFCF79F2ECCF89
:104760007AF2ECCF7BF2ECCF7CF21F0E79177A6BEA
:104770007B6B7C6B795337E17A5335E17B5333E1C3
:104780007C5331E1040E7425E96E000E7521EA6E4A
:10479000EFCFBDF3ECCFBEF3ECCFBFF3ECCFC0F364
:1047A0001A0E7425016E000E7521036E01C07DF294
:1047B0007E6F0301C26B200EC16F03C0C4F301C042
:1047C000C3F3000140EC05F001520EE0190E0201A6
:1047D0007425E96E000E7521EA6EEF502009EF6E28
:1047E000FF0E016E32D0000102011A0E7425E96E2F
:1047F000000E7521EA6EEFCF7BF277C2EAFF76C238
:10480000E9FF7BC2EFFF786B785107081CE31A0EB3
:104810007425016E000E7521036E01C079F27A6F66
:10482000200E006E03C0EAFF01C0E9FFEFCF03F0E6
:104830001F0EE926000EEA220330ED32002EFDD7CE
:10484000010E7827E1D7000E016E00015BEF24F026
:10485000190E02017125E96E000E7221EA6EEFA0B9
:104860007ED071C2E9FF72C2EAFFEFCF74F2ECCFE3
:1048700075F2ECCF76F2ECCF77F2745312E1755308
:1048800010E176530EE177530CE1190E7125E96EB4
:10489000000E7221EA6EEF501009EF6EFF0E016EEE
:1048A00060D072C275F271C274F2020E776F730E2D
:1048B000766F00014BD70150FF0805E1FF0E016E36
:1048C00002014FD000010201735314E1190E71254A
:1048D000E96E000E7221EA6EEFB60CD0190E71254A
:1048E000E96E000E7221EA6EEF501009EF6EFF0EB6
:1048F000016E37D0040E7125016E000E7221036E19
:1049000001C074F2756FE8CF96F301C095F3000112
:10491000A9EC0FF0015205E0FF0E016E020121D05B
:104920000001020171C2E9FF72C2EAFF010EEF5CF1
:10493000006E000EEC58016E000EEC58026E000E78
:10494000EC58ED52ED52ED5200C0EFFF01C0ECFF0C
:1049500002C0ECFFEC6E73C201F003D002D0FF0E78
:10496000016E0001B9EF24F06FC272F26EC271F2F3
:104970006FD701C070F270C296F272EC01F00201C2
:104980007051FF08D8B402D00001EED770C201F018
:104990000001FBEF24F09A0EF66E020EF76E94EC17
:1049A00001F0020EEA6E610EE96E0B0E016EF76AFF
:1049B000000E02EC00F00A000900F5CFEEFF012E18
:1049C000FBD7720E02016C6F6D6B020EF46F610EFD
:1049D000F36F020EF66F6C0EF56F020EF86F260E77
:1049E000F76F000125EC18F0020E02016F6F260E22
:1049F0006E6F0001B9D7B80EF66E020EF76E94EC2A
:104A000001F02FEF25F0F86AD09E700ED36ED350D0
:104A1000929689860201236B226B606BC150C00B9A
:104A20000F09C16E070EB46E0A6B0B6B640E896FB3
:104A300000015EEC01F0DBEF07F0640E0201896F0C
:104A400000015EEC01F00BEF20F03FEF20F060C2C0
:104A500061F2FFEF20F025EF21F066D69CD702012E
:104A6000602B040E616FFA0E896F00015EEC01F09D
:0C4A70000201612FF8D70001E8D7030015
:020000040030CA
:0E00000021C83E1E008781000FC00FE00F4098
:00000001FF
;PIC18F2550
;CRC=2181  CREATED="17-feb.-20 00:09"
