:100000002EEF03F054494D453A20253032753A25FC
:100010003032753A25303275000020444154453A5B
:1000200020253032752F253032752F323025303271
:10003000750D0A00EA6A0E0EE96EEF500DE0020E31
:10004000016E006A002EFED7012EFBD7970E006EC0
:10005000002EFED7EF2EF3D71200080E016E00001F
:1000600089909290000012368992D8B09282D8A0DE
:100070009292928080A0FED7012EF1D70000899045
:1000800092900000928200000000928080A0FED733
:10009000016A000080B201808990929089929292C8
:1000A0001200080E136E00C014F0928200009280BD
:1000B00080A0FED780B2D88080A2D8900136000000
:1000C00092908990132EF1D7928200008992145059
:1000D000D8A492920000928080A0FED70000899060
:1000E000929000008992929212000D38006E0F0ECD
:1000F000001600500A0DF3CF0EF00D500F0B0E241A
:10010000016E120092820000928000008992929209
:10011000000089909290D00E126E9FDF126A9DDFD0
:10012000928200009280000080A0FED78992929275
:10013000000089909290D10E126E8FDF010E006E3A
:10014000B0DF01507F0B046E010E006EAADF01C00C
:1001500005F0010E006EA5DF01C006F0010E006E75
:10016000A0DF01C007F0010E006E9BDF01C008F0A8
:10017000010E006E96DF01C009F0006A92DF01C037
:100180000AF092920000928080A0FED7000000D07A
:1001900000009282000004C00DF0A7DF01C004F04F
:1001A00005C00DF0A2DF01C005F006C00DF09DDF17
:1001B00001C006F008C00DF098DF01C008F009C0CA
:1001C0000DF093DF01C009F00AC00DF08EDF01C011
:1001D0000AF0040E016E000E026E120092968996CD
:1001E000080E016E00D00000018E12D0019E13C0D7
:1001F00002F00232D8B08986D8A08996018C08D046
:10020000019C012EF6D702C013F000D000008986B1
:1002100001BEECD701BCF4D712000900F6CF11F0F3
:10022000F7CF12F0F5CF13F0D9DF11C0F6FF12C0EF
:10023000F7FF102EF2D712001650016A155C03E288
:1002400015C000F00CD0006A080E176E1536003687
:100250001650005CD8B0006E0136172EF7D712008A
:10026000015010C015F0640E166EE6DF00C010F0ED
:100270000150300E07E111A20CD011B60AD011B80E
:10028000200E03D0119611981180012601C013F0A1
:10029000A5DF10C015F00A0E166ECEDF00C010F0FC
:1002A0000150300E06E111B608D011A006D011B8E9
:1002B000200E012601C013F091DF300E102610C071
:1002C00013F08CDF1200020E0B24E96E000E0C20DE
:1002D000EA6EEFCF0DF0010E0B24E96E000E0C203C
:1002E000EA6EEFCF0EF00BC0E9FF0CC0EAFFEFCFD4
:1002F0000FF0040EF66E000EF76E060E106E8DDF18
:100300000DC010F0010E116EABDF3A0E136E66DFFA
:100310000EC010F0010E116EA3DF3A0E136E5EDFF9
:100320000FC010F0010E116E9BDF040E0B24E96E5E
:10033000000E0C20EA6EEFCF0DF0050E0B24E96ED7
:10034000000E0C20EA6EEFCF0EF0060E0B24E96EC5
:10035000000E0C20EA6EEFCF0FF01A0EF66E000EB4
:10036000F76E070E106E59DF0DC010F0010E116E02
:1003700077DF2F0E136E32DF0EC010F0010E116EFC
:100380006FDF2A0EF66E000EF76E030E106E45DF5D
:100390000FC010F0010E116E63DF0D0E136E1EDF25
:1003A0000A0E136E1BDF1200928200009280000082
:1003B00089929292000089909290D00E126E4DDE3A
:1003C00010C012F04ADE928200009280000080A0ED
:1003D000FED789929292000089909290D10E126E6F
:1003E0003CDE006A5EDE01C011F092920000928055
:1003F00080A0FED7000000D000009282000011C053
:1004000001F0120013C015F00A0E166E15DF013848
:10041000146EF00E141613C015F00A0E166E0CDFD3
:1004200000501424016E1200106ABEDF01C00FF0EC
:10043000040E0D24016E000E0E20036E01C010F09C
:10044000116E040E0D24E96E000E0E20EA6EEFCF41
:1004500013F0D8DF11C0EAFF10C0E9FF01C0EFFFC1
:10046000050E0D24016E000E0E20036E01C010F06B
:10047000116E050E0D24E96E000E0E20EA6EEFCF10
:1004800013F0C0DF11C0EAFF10C0E9FF01C0EFFFA9
:10049000060E0D24016E000E0E20036E01C010F03A
:1004A000116E060E0D24E96E000E0E20EA6EEFCFDF
:1004B00013F0A8DF11C0EAFF10C0E9FF01C0EFFF91
:1004C000020E0D24016E000E0E20036E01C010F00E
:1004D000116E020E0D24E96E000E0E20EA6EEFCFB3
:1004E00013F090DF11C0EAFF10C0E9FF01C0EFFF79
:1004F000010E0D24016E000E0E20036E01C010F0DF
:10050000116E010E0D24E96E000E0E20EA6EEFCF83
:1005100013F078DF11C0EAFF10C0E9FF01C0EFFF60
:100520000DC001F00EC003F00DC010F00EC011F0B0
:100530000DC0E9FF0EC0EAFFEFCF13F063DF11C07B
:10054000EAFF10C0E9FF01C0EFFF0FAE07D00DC0FA
:10055000E9FF0EC0EAFFEF508009EF6E92820000C3
:100560009280000089929292000089909290D00E21
:10057000126E73DD126A71DD0DC0E9FF0EC0EAFF75
:10058000EFCF12F06ADD010E0D24E96E000E0E2091
:10059000EA6EEFCF12F061DD020E0D24E96E000E5F
:1005A0000E20EA6EEFCF12F058DD030E0D24E96E37
:1005B000000E0E20EA6EEFCF12F04FDD040E0D2478
:1005C000E96E000E0E20EA6EEFCF12F046DD050E4A
:1005D0000D24E96E000E0E20EA6EEFCF12F03DDD25
:1005E000060E0D24E96E000E0E20EA6EEFCF12F01B
:1005F00034DD92920000928080A0FED7000000D0EF
:1006000000009282000088EF03F092820000928046
:10061000000089929292000089909290D00E126E02
:100620001CDD0EC012F019DD0FC012F016DD929223
:100630000000928080A0FED7000000D000009282CF
:1006400000002CEF03F0106AAFDE01C00DF00D8E3C
:100650000E6A0DC00FF0D9D789EF03F0F86AD09E6B
:10066000700ED36ED35092968986C150C00B0F097D
:10067000C16E070EB46E040E0D6EFA0E0E6EDADC4D
:100680000D2EFBD73FDD02C00CF001C00BF01BDECE
:10069000040E0D6EFA0E0E6ECDDC0D2EFBD7020E83
:1006A0000B24E96E000E0C20EA6E090EEF6E010EAF
:1006B0000B24E96E000E0C20EA6E050EEF6E0BC0E7
:1006C000E9FF0CC0EAFFEF6A040E0B24E96E000E8E
:1006D0000C20EA6E130EEF6E050E0B24E96E000E71
:1006E0000C20EA6E020EEF6E060E0B24E96E000E71
:1006F0000C20EA6E140EEF6E040E0D6EFA0E0E6EE6
:1007000099DC0D2EFBD70CC00EF00BC00DF08CD673
:100710009AD7F8DC02C00CF001C00BF0D4DD780EE3
:100720000D6EFA0E0E6E86DC0D2EFBD7F2D703008F
:020000040030CA
:0E00000027C83E1E008781000FC00FE00F4092
:00000001FF
;PIC18F2550
;CRC=B5ED  CREATED="19-feb.-20 09:04"
